:100000000C9486010C94B7010C94B7010C94B701C1
:100010000C94B7010C94B7010C94B7010C94B70180
:100020000C94B7010C94B7010C94B7010C94B70170
:100030000C94B7010C946F090C94B7010C94B701A0
:100040000C94B7010C94980A0C94B7010C94B70166
:100050000C94B7010C94B7010C94B7010C94C5082B
:100060000C94B7010C9439090C940F090C94B70146
:100070000C94B7010C94B7010C94B7010C94B70120
:100080000C946A0A0C94B7010C94B7010C94B70154
:100090000C94B7010C94B7010C94B7010C94B70100
:1000A0000C94B7010C94B7010C943C0A0C94B70162
:1000B0000C94B7010C94B7010C94B7010C940E0A80
:1000C0000C94B7010C94B7010C94B7010C94B701D0
:1000D0000C94B7010C94B7010C94B7010C94B701C0
:1000E0000C94B701E901EC01DB01DF01E30123021C
:1000F000F001F401FA01FE01020208020C021002F2
:10010000230216021A021E021F03240329033303CB
:100110003D03B60347034F03570361036B037503A6
:1001200084038E03B6039803A203AC030C94FE0170
:100130000C944F030C94B6030C9433030C945703A4
:100140000C948E030C9498030C949A080C948403DA
:100150000C941F030C9455080C9410020C94230269
:100160000C94E9010C9424030C940C020C94BF032E
:100170000C94AC030C9484040C94FA010C94F401D8
:100180000C94DF040C946B030C9475030C94E30142
:100190000C941E020C941A020C9440080C94DB017F
:1001A0000C9447030C943D030C94A2030C943D045F
:1001B0000C94B9010C94F0010C9429030C94F803ED
:1001C0000C94E4030C9406040C9461030C940B0B44
:1001D0000C94DF010C94EC010C9408020C941602B0
:1001E0000C9402020C94D503020000200023002688
:1001F0000029002C002F003200000100000301063E
:1002000001090100002100240027002A002D0030F0
:1002100000330001010000040107010A010000226F
:1002200000250028002B002E0031003400020100C0
:1002300000050108010B010505050507050808086B
:1002400008020202020A0A08080404040401010167
:10025000010101010103030303030303030407076F
:10026000070C0C0C0C0C0C0C0C020202020606060D
:1002700006060606060B0B0B0B0B0B0B0B010210F5
:1002800020200808102040102040800201020108B0
:100290000402010102040810204080804020100860
:1002A00004020180040201804020100804020108B9
:1002B0000402010102040810204080010204081019
:1002C00020408000000A0B02090C0D0E08070304F1
:1002D000010000000000000000000000000000001D
:1002E00000000000000000000000000000000012FC
:1002F00011100000000000000000000000000000DD
:10030000000000000000000000000B0B11241FBEC5
:10031000CFEFD1E2DEBFCDBF00E00CBF12E0A0E026
:10032000B2E0EAE1F1E200E00BBF02C007900D92FB
:10033000AA38B107D9F724E0AAE8B2E001C01D92BB
:10034000A43BB207E1F711E0C6E8D1E000E006C047
:1003500021970109802FFE010E94510FC538D10756
:1003600080E00807A9F70E94060C0C948B100C94EF
:1003700000000895362F90E0FC01ED53FD4F4491AD
:10038000FC01E358FD4F2491FC01E95CFD4F949181
:10039000992309F46BC0442309F455C050E0FA01D5
:1003A0003197E231F10508F04EC08827EE58FF4F33
:1003B0008F4F0C94510F809180008F7707C08091F0
:1003C00080008F7D03C080918000877F80938000B4
:1003D0003AC084B58F7702C084B58F7D84BD33C0A9
:1003E0008091B0008F7703C08091B0008F7D8093A3
:1003F000B00029C0809190008F7707C08091900055
:100400008F7D03C080919000877F809390001BC0F8
:100410008091A0008F7707C08091A0008F7D03C0DE
:100420008091A000877F8093A0000DC08091200163
:100430008F7707C0809120018F7D03C080912001BC
:10044000877F80932001E92FF0E0EE0FFF1FE35E2E
:10045000FD4FA591B4918FB7F894EC91311103C081
:1004600020952E2301C02E2B2C938FBF0895CF9360
:10047000DF9390E0FC01E358FD4F2491FC01E95C1F
:10048000FD4F8491882361F190E0880F991FFC0152
:10049000ED5FFD4FC591D491FC01E35EFD4FA59149
:1004A000B491611109C09FB7F89488812095822387
:1004B0008883EC912E230BC0623061F49FB7F894CF
:1004C0003881822F809583238883EC912E2B2C9367
:1004D0009FBF06C08FB7F894E8812E2B28838FBF6B
:1004E000DF91CF9108951F93CF93DF93EC01162FE7
:1004F0008881803308F049C061E0812F0E94370273
:10050000888196E0899FF0011124E454FD4F1F7308
:100510009081907C192B108319821A826CE00E94C2
:10052000450F9CE0899FA001112420E030E096E077
:10053000B901640F751F969FF001979FF00D11246C
:10054000E454FD4F608166FD16C02F5F3F4F2C3095
:10055000310571F78130F1F41092800082E08093D0
:1005600081001092850010928400B19A80916F00F2
:10057000826080936F00E88186E0E89FF00111249B
:10058000E454FD4F8081806480838881DF91CF9126
:100590001F910895823061F4109290008093910031
:1005A000109295001092940088BB80937100E3CF65
:1005B000833069F41092A00082E08093A100109231
:1005C000A5001092A40089BB80937200D4CF811142
:1005D000D2CF1092200182E0809321011092250158
:1005E000109224018ABB80937300C5CF1F93CF93D1
:1005F000DF93182FEB0161E00E943702209711F47E
:1006000060E004C0CF3FD10539F461E0812FDF9174
:10061000CF911F910C94BA01E12FF0E0ED53FD4F03
:10062000E4914E2F50E0FA013197E231F10508F0E4
:100630009DC08827EC57FF4F8F4F0C94510F84B506
:10064000806884BDC7BD97C084B5806284BDC8BDC5
:1006500092C080918000806880938000D093890050
:10066000C093880088C08091800080628093800061
:10067000D0938B00C0938A007EC0809180008860F8
:1006800080938000D0938D00C0938C0074C08091C3
:10069000B00080688093B000C093B3006CC08091BC
:1006A000B00080628093B000C093B40064C08091B9
:1006B0009000806880939000D0939900C093980038
:1006C0005AC080919000806280939000D0939B00EC
:1006D000C0939A0050C080919000886080939000F1
:1006E000D0939D00C0939C0046C08091A00080687C
:1006F0008093A0008091A0008F7B8093A000D09376
:10070000A900C093A80037C08091A00080628093A8
:10071000A000D093AB00C093AA002DC08091A00090
:1007200088608093A000D093AD00C093AC0023C03C
:1007300080912001806880932001D0932901C0938B
:10074000280119C080912001806280932001D093FC
:100750002B01C0932A010FC08091200188608093F3
:100760002001D0932D01C0932C0105C0C038D105C4
:100770000CF04BCF45CFDF91CF911F910895CF93D0
:10078000DF93FC01C4A9D5A960E070E088810E94D4
:10079000F60260E070E08A810E94F60260E070E09C
:1007A0008C81DF91CF910C94F602FC01538D448D26
:1007B000252F30E0842F90E0821B930B541710F00C
:1007C000CF96089501970895FC01918D828D981719
:1007D00061F0828DDF01A80FB11D5D968C91928D25
:1007E0009F5F9F73928F90E008958FEF9FEF089522
:1007F000FC01918D828D981731F0828DE80FF11DEB
:10080000858D90E008958FEF9FEF0895FC01918D05
:10081000228D892F90E0805C9F4F821B91098F73FE
:10082000992708958CED93E00E94060421E0892B1E
:1008300009F420E0822F0895FC01848DDF01A80FC8
:10084000B11DA35ABF4F2C91848D90E001968F73F8
:100850009927848FA689B7892C93A089B1898C9117
:1008600080648C93938D848D981306C00288F389DD
:10087000E02D80818F7D80830895EF92FF920F930A
:100880001F93CF93DF93EC0181E0888F9B8D8C8D3C
:10089000981305C0E889F989808185FD24C0F62E6A
:1008A0000B8D10E00F5F1F4F0F731127E02E8C8D03
:1008B000E8120CC00FB607FCFACFE889F9898081ED
:1008C00085FFF5CFCE010E941C04F1CF8B8DFE0178
:1008D000E80FF11DE35AFF4FF0820B8FEA89FB8985
:1008E0008081806207C0EE89FF896083E889F98989
:1008F00080818064808381E090E0DF91CF911F91BF
:100900000F91FF90EF900895CF93DF93EC01888DC6
:100910008823C9F0EA89FB89808185FD05C0A88903
:10092000B9898C9186FD0FC00FB607FCF5CF808189
:1009300085FFF2CFA889B9898C9185FFEDCFCE01D3
:100940000E941C04E7CFDF91CF91089580E090E0F2
:10095000892B21F00E941204811125C080E090E0D3
:10096000892B41F080E090E0892B21F00E9400006B
:1009700081111CC080E090E0892B41F080E090E084
:10098000892B21F00E940000811113C080E090E0CB
:10099000892BA1F080E090E0892B81F00E9400007B
:1009A00081110AC008950E940000D8CF0E94000063
:1009B000E1CF0E940000EACF0C9400000895CF928E
:1009C000DF92EF92FF920F931F93CF93DF936C010F
:1009D0007A018B01C0E0D0E0CE15DF0589F0D801A7
:1009E0006D918D01D601ED91FC910190F081E02D8A
:1009F000C6011995892B11F47E0102C02196ECCF16
:100A0000C701DF91CF911F910F91FF90EF90DF9081
:100A1000CF900895089580E090E008958F929F927E
:100A2000AF92BF92CF92DF92EF92FF921F93CF933C
:100A3000DF93EC01DB01F42E1881442309F471C02B
:100A4000603232E07307E4F577FD06C0653B71055F
:100A50002CF0A4EBB0E002C0A0E0B0E0898128E86F
:100A600030E04901881A910887FD9394880C991CFD
:100A7000880C991C092C000CAA08BB088A8128E55F
:100A800032E0281B310987FD3395220F331F220FD7
:100A9000331FA901330F660B770B9A01AB0128199D
:100AA00039094A095B090E94DB0D24EB30E040E084
:100AB00050E00E94B10D820E931EA41EB51ED401FB
:100AC000103308F09EC0298188E890E0821B9109CC
:100AD00027FD9395880F991F880F991FA817B907AD
:100AE00084F08A8128E532E0281B310987FD33959F
:100AF000220F331F220F331FCD012A173B070CF49F
:100B0000C9012FB7F89436E0139FE0011124C454B3
:100B1000DD4F0297880F991F9C838B83FD822FBF27
:100B200070C0603282E07807E4F577FD06C0653B6F
:100B300071052CF0A4EBB0E002C0A0E0B0E0898128
:100B400028E830E06901C81AD10887FDD394CC0C9D
:100B5000DD1CCC0CDD1C0D2C000CEE08FF088A817E
:100B600028E532E0281B310987FD3395220F331F1A
:100B7000220F331FA901330F660B770B9A01AB01CC
:100B80002C193D094E095F090E94DB0D24EB30E072
:100B900040E050E00E94B10DC20ED31EE41EF51ECF
:100BA000D601103370F5898128E830E0281B31091F
:100BB00087FD3395220F331F220F331FA217B30770
:100BC00084F02A8188E592E0821B910927FD9395A4
:100BD000880F991F880F991F9D018A179B070CF496
:100BE0009C018FB7F89496E0199FE0011124C4543A
:100BF000DD4F22503109220F331F3A8329838FBFE3
:100C00001D82DF91CF911F91FF90EF90DF90CF90E9
:100C1000BF90AF909F908F900895E091A702E0332E
:100C200088F421E02E0F2093A702DC01EC93B6E0BC
:100C3000EB9FF0011124E454FD4F88EB9BE092837D
:100C4000818308952FEFFC0120830895CF92DF92D6
:100C5000EF92FF920F931F93CF93DF936C018B0161
:100C60007A01EC01CD55DD4F888187FF04C0FB017F
:100C70001182108223C08CE08C9D90018D9D300DDF
:100C800011248881A901480F511D87FD5A95809133
:100C9000A70290E0481759078CF48881A901480FF2
:100CA000511D87FD5A9586E0849FF001859FF00DC8
:100CB0001124E454FD4F908196FD19C088818F5F07
:100CC00088838CE08C9D90018D9D300D112488814E
:100CD000A901480F511D87FD5A958091A70290E008
:100CE00048175907B4F488818C3034F112C09881C8
:100CF000290F311D97FD3A95829FF001839FF00DDA
:100D00001124E454FD4F808160E08F730E94BA018A
:100D1000D5CFF8018081918184349C4918F480E416
:100D20009CE904C0F801808191810496F7019183C8
:100D300080838FEF88833AC18881A901480F511DB4
:100D400087FD5A9586E0849FF001859FF00D112460
:100D5000E454FD4F9581992309F4E7C048819881B7
:100D6000B901640F711D47FD7A95869FD001879F59
:100D7000B00D1124A454BD4FA901490F511D97FD79
:100D80005A95849FF001859FF00D1124E454FD4F86
:100D900013966D917C9114974181528198814617E9
:100DA000570708F04FC04881F901E40FF11D47FDD6
:100DB000FA95AF01849FF001859FF00D1124E45452
:100DC000FD4FA901490F511D97FD5A95849FD001F0
:100DD000859FB00D1124A454BD4F15969C9141815F
:100DE0005281490F511D5283418348819881B90135
:100DF000640F711D47FD7A95869FD001879FB00DC6
:100E00001124A454BD4FA901490F511D97FD5A95B6
:100E1000849FF001859FF00D1124E454FD4F13963B
:100E20006D917C911497418152814617570708F4C0
:100E30007CC048819881F901E40FF11D47FDFA95C6
:100E4000AF014CC04881B901640F711D47FD7A950F
:100E5000869FF001879FF00D1124E454FD4FA901F6
:100E6000490F511D97FD5A95849FD001859FB00D64
:100E70001124A454BD4F15969C9141815281491B68
:100E800051095283418348819881F901E40FF11D92
:100E900047FDFA958E9FD0018F9FB00D1124A45469
:100EA000BD4FA901490F511D97FD5A95849FF0012F
:100EB000859FF00D1124E454FD4F13966D917C91A4
:100EC0001497418152816417750778F148819881A0
:100ED000B901640F711D47FD7A95AB01849FF00144
:100EE000859FF00D1124E454FD4FA901490F511DB8
:100EF00097FD5A95849FD001859FB00D1124A4546D
:100F0000BD4F13964D915C91149752834183988104
:100F1000A901490F511D97FD5A95849FF001859FA6
:100F2000F00D1124E454FD4F1582F80160817181A8
:100F30008881A901480F511D87FD5A9586E0849F3D
:100F4000F001859FF00D1124E454FD4F4181528141
:100F5000460F571FF701518340839881A901490F1C
:100F6000511D97FD5A95849FF001859FF00D112426
:100F7000E454FD4F908196FF19C09881290F311DCF
:100F800097FD3A95829FF001839FF00D1124E45460
:100F9000FD4F808161E08F73DF91CF911F910F91A1
:100FA000FF90EF90DF90CF900C94BA01DF91CF913A
:100FB0001F910F91FF90EF90DF90CF9008950097D1
:100FC00069F0FC0101900020E9F73197AF01481B5F
:100FD000590BBC018CED93E00C94DF0480E090E0B1
:100FE00008958F929F92AF92BF920F931F93CF93CA
:100FF000DF93CDB7DEB7A1970FB6F894DEBF0FBE73
:10100000CDBF19A2423008F44AE08E010F5D1F4F98
:10101000842E912CA12CB12CA50194010E94E30DEA
:10102000E62FB901CA0101501109EA3014F4E05D5C
:1010300001C0E95CD801EC93232B242B252B61F70D
:10104000C8010E94DF07A1960FB6F894DEBF0FBE5D
:10105000CDBFDF91CF911F910F91BF90AF909F9027
:101060008F900895CF93DF930E94DF07EC0187E212
:1010700092E00E94DF078C0F9D1FDF91CF910895B2
:10108000CF93DF93009771F0EC018DE192E09983AB
:1010900088838AE292E00E943208CE01DF91CF91EC
:1010A0000C94EE0FDF91CF910895CF93DF93EC0175
:1010B00080E492E00E9432082FB7F8946091B80261
:1010C0007091B9028091BA029091BB022FBF4AE0A1
:1010D0000E94F10787E292E00E94DF078AA59BA5A4
:1010E000FC012381222319F06AE570E002C067E366
:1010F00070E04EE10E940E058CA59DA5FC012381A8
:10110000222319F06AE570E002C067E370E04EE167
:101110000E940E058EA59FA5FC012381222319F0B4
:101120006AE570E002C067E370E04EE1DF91CF91C5
:101130000C940E05CF93DF93EC0185E592E00E94BD
:1011400032082FB7F8946091B8027091B90280917B
:10115000BA029091BB022FBF4AE00E94F10787E2DA
:1011600092E00E94DF07E8A9F9A960E070E08481BD
:101170000E94F602EAA9FBA960E070E08481DF9199
:10118000CF910C94F6020E9486101F920F920FB618
:101190000F9211242F933F938F939F93AF93BF93FD
:1011A0008091B8029091B902A091BA02B091BB02AD
:1011B0003091B70223E0230F2D3720F40196A11DB3
:1011C000B11D05C026E8230F0296A11DB11D209375
:1011D000B7028093B8029093B902A093BA02B09379
:1011E000BB028091B3029091B402A091B502B0917C
:1011F000B6020196A11DB11D8093B3029093B40273
:10120000A093B502B093B602BF91AF919F918F9119
:101210003F912F910F900FBE0F901F9018951F9226
:101220000F920FB60F9211240BB60F922F933F938C
:101230004F935F936F937F938F939F93AF93BF93DE
:10124000EF93FF938CED93E00E941C04FF91EF91CC
:10125000BF91AF919F918F917F916F915F914F91CE
:101260003F912F910F900BBE0F900FBE0F901F90CC
:1012700018951F920F920FB60F9211240BB60F9272
:101280002F938F939F93EF93FF93E091EC03F09153
:10129000ED038081E091F203F091F30382FD12C02F
:1012A00090818091F5038F5F8F732091F6038217F1
:1012B00051F0E091F503F0E0E452FC4F958F8093FC
:1012C000F50301C08081FF91EF919F918F912F9144
:1012D0000F900BBE0F900FBE0F901F9018951F928E
:1012E0000F920FB60F9211240BB60F922F933F93CC
:1012F0004F935F936F937F938F939F93AF93BF931E
:10130000EF93FF938091AB029091AC02A091AD025C
:10131000B091AE02892B8A2B8B2B59F18091AA02B6
:10132000E091A802F091A9029081892780838091A1
:10133000AB029091AC02A091AD02B091AE02181632
:1013400019061A061B060CF056C08091AB0290914C
:10135000AC02A091AD02B091AE020197A109B10912
:101360008093AB029093AC02A093AD02B093AE0217
:1013700042C080910002E8EEF1E0E4919FEF90938B
:101380000002E230C9F050F4EE2399F0E13081F52B
:1013900090916F009D7F90936F002AC0E43019F107
:1013A000E0F0E53029F5909173009D7F90937300F4
:1013B0001FC010926E001CC0909170009D7F909392
:1013C000700091E09093B0009091B100987F94608C
:1013D0009093B1001092B3000BC0909171009D7F6B
:1013E0009093710005C0909172009D7F9093720060
:1013F00060E00E94BA01FF91EF91BF91AF919F9180
:101400008F917F916F915F914F913F912F910F90AD
:101410000BBE0F900FBE0F901F9018951F920F924A
:101420000FB60F9211240BB60F922F933F934F9349
:101430005F936F937F938F939F93AF93BF93EF933C
:10144000FF9348E251E064E271E080E090E00E94A6
:101450002606FF91EF91BF91AF919F918F917F9160
:101460006F915F914F913F912F910F900BBE0F9015
:101470000FBE0F901F9018951F920F920FB60F92EC
:1014800011240BB60F922F933F934F935F936F935B
:101490007F938F939F93AF93BF93EF93FF9348EA0C
:1014A00050E064EA70E083E090E00E942606FF913D
:1014B000EF91BF91AF919F918F917F916F915F91CC
:1014C0004F913F912F910F900BBE0F900FBE0F9039
:1014D0001F9018951F920F920FB60F9211240BB602
:1014E0000F922F933F934F935F936F937F938F93BD
:1014F0009F93AF93BF93EF93FF9348E950E064E964
:1015000070E082E090E00E942606FF91EF91BF918B
:10151000AF919F918F917F916F915F914F913F918B
:101520002F910F900BBE0F900FBE0F901F9018952C
:101530001F920F920FB60F9211240BB60F922F939A
:101540003F934F935F936F937F938F939F93AF934B
:10155000BF93EF93FF9348E850E064E870E081E0C8
:1015600090E00E942606FF91EF91BF91AF919F916D
:101570008F917F916F915F914F913F912F910F903C
:101580000BBE0F900FBE0F901F901895CF92DF9259
:10159000EF92FF920F931F93E82FF92F05C0015090
:1015A00011092109310961F1908196239417B9F34A
:1015B00005C0015011092109310911F190819623CB
:1015C0009413F7CFC12CD12CE12CF12C0AC08FEF52
:1015D000C81AD80AE80AF80A0C151D052E053F0599
:1015E00079F080818623841791F36C2D7D2D8E2DCB
:1015F0009F2D1F910F91FF90EF90DF90CF90089556
:1016000060E070E080E090E01F910F91FF90EF901C
:10161000DF90CF9008956F927F928F929F92AF92BA
:10162000BF92CF92DF92EF92FF920F931F93CF93CF
:10163000DF93ECEDF3E01382128288EE93E0A0E0FA
:10164000B0E084839583A683B7838BE092E0918397
:10165000808385EC90E09587848784EC90E0978781
:10166000868780EC90E0918B808B81EC90E0938B6F
:10167000828B82EC90E0958B848B86EC90E0978B4C
:10168000868B118E128E138E148E84E090E00E9451
:10169000590F6C010E940D06D092AF04C092AE04A7
:1016A00084E090E00E94590F7C010E940D06F092A8
:1016B000AD04E092AC0484E090E00E94590F8C01EC
:1016C0000E940D061093AB040093AA0486E090E0FC
:1016D0000E94590F4C019093A9048093A80486E0BE
:1016E00090E00E94590F5C019093A7048093A60498
:1016F00086E090E00E94590F3C019093A5048093EE
:10170000A40488E090E00E94590F9093A304809372
:10171000A204ECE9F4E0D182C082F382E282158374
:101720000483E8E9F4E091828082B382A282C9E76F
:10173000D4E0DB82CA82FD82EC821F830E8399860D
:101740008886BB86AA867D866C869F878E871A8E42
:10175000198E88E290E09C8F8B8F188E1F8A84E010
:1017600090E09E8F8D8F8AE090E09C8B8B8B1E8A01
:101770001D8A86E390E00E94590F8C018DE192E072
:10178000F801918380838AE692E00E943208F80192
:101790001282138214821582168217821086118695
:1017A0008A819B8193A782A78C819D8195A784A71D
:1017B0008E819F8197A786A78885998591AB80ABFD
:1017C0008A859B8593AB82AB8C859D8595AB84ABDD
:1017D000C8010E949A08C8010E945508C8010E94C9
:1017E000BF031983088381E0888B1A8A198ADF91E5
:1017F000CF911F910F91FF90EF90DF90CF90BF900E
:10180000AF909F908F907F906F900895789484B55B
:10181000826084BD84B5816084BD85B5826085BDEC
:1018200085B5816085BD80916E00816080936E007A
:10183000109281008091810082608093810080916C
:10184000810081608093810080918000816080931D
:1018500080008091B10084608093B1008091B000DD
:1018600081608093B00080919100826080939100AC
:1018700080919100816080939100809190008160BF
:10188000809390008091A10082608093A10080915C
:10189000A10081608093A1008091A000816080936D
:1018A000A00080912101826080932101809121011B
:1018B00081608093210180912001816080932001CB
:1018C00080917A00846080937A0080917A008260AF
:1018D00080937A0080917A00816080937A00809171
:1018E0007A00806880937A001092C100C091AE04A3
:1018F000D091AF0466E070E0CE010E9473021B82BB
:10190000C091AC04D091AD0467E070E0CE010E94BC
:1019100073021B82C091AA04D091AB0468E070E00E
:10192000CE010E94730281E08B83C091A804D09104
:10193000A90461E088E10E94370261E086E10E942B
:10194000370261E08BE00E94370288E190E09983E2
:10195000888386E190E09B838A838BE090E09D837F
:101960008C83C091A604D091A70461E087E10E9416
:10197000370261E089E10E94370261E08CE00E9459
:10198000370287E190E09983888389E190E09B8327
:101990008A838CE090E09D838C83C091A404D091D5
:1019A000A50461E082E00E94370261E083E00E94CA
:1019B000370261E085E00E94370282E090E099837F
:1019C000888383E090E09B838A8385E090E09D8319
:1019D0008C8360E081E20E94370261E08FE10E9427
:1019E0003702E091EC03F091ED0382E08083E09117
:1019F000E803F091E9031082E091EA03F091EB0330
:101A00008FEC80831092F403E091F003F091F103E6
:101A100086E08083E091EE03F091EF0380818061A6
:101A20008083E091EE03F091EF03808188608083F2
:101A3000E091EE03F091EF03808180688083E09174
:101A4000EE03F091EF0380818F7D8083C3E0D0E0CF
:101A500093E2E92EF12C2CE9C22E22E0D22E36E5BB
:101A6000A32E32E0B32E60E081E20E94BA01CE01E3
:101A70000197F1F761E081E20E94BA01C701019785
:101A8000F1F760E081E20E94BA01F6016491F5018C
:101A9000249130E0220F331F27513E4FF9018591E9
:101AA000949100E412E42FE030E0462F0E94C60A31
:101AB000611571058105910539F0DC01CB010196B5
:101AC000A11DB11DBF7003C080E090E0DC019093C8
:101AD000B2028093B102BC01990F880B990B0E944E
:101AE0004C0E26E933E44BE05DE30E94B00E20E0AB
:101AF00030E040E05FE30E94B00E0E94140E70934D
:101B0000B0026093AF028EE792E00E94DF07409040
:101B1000AF025090B002052C000C6608770877FEE3
:101B200014C0E091DC03F091DD030190F081E02D21
:101B30006DE28CED93E0199566277727CB01641948
:101B40007509860997094AE003C04AE0C301B2015A
:101B50000E94F10787E292E00E94DF070E94A6043C
:101B600082CF052E97FB1EF400940E94C80D57FDEE
:101B700007D00E94E30D07FC03D04EF40C94C80D6F
:101B800050954095309521953F4F4F4F5F4F0895A9
:101B900090958095709561957F4F8F4F9F4F0895D9
:101BA0000E94050EA59F900DB49F900DA49F800DDF
:101BB000911D11240895B7FF0C94D00D0E94D00DF3
:101BC000821B930B0895A1E21A2EAA1BBB1BFD01D9
:101BD0000DC0AA1FBB1FEE1FFF1FA217B307E4070C
:101BE000F50720F0A21BB30BE40BF50B661F771F64
:101BF000881F991F1A9469F7609570958095909544
:101C00009B01AC01BD01CF010895A29FB001B39F1C
:101C1000C001A39F700D811D1124911DB29F700DF5
:101C2000811D1124911D08950E941B0E6894B1110D
:101C30000C94AA0E08950E948F0E88F09F5798F07A
:101C4000B92F9927B751B0F0E1F0660F771F881FC1
:101C5000991F1AF0BA95C9F714C0B13091F00E94DB
:101C6000A90EB1E008950C94A90E672F782F88274C
:101C7000B85F39F0B93FCCF3869577956795B39502
:101C8000D9F73EF490958095709561957F4F8F4F71
:101C90009F4F0895E89409C097FB3EF49095809576
:101CA000709561957F4F8F4F9F4F9923A9F0F92F22
:101CB00096E9BB279395F695879577956795B795A0
:101CC000F111F8CFFAF4BB0F11F460FF1BC06F5F86
:101CD0007F4F8F4F9F4F16C0882311F096E911C098
:101CE000772321F09EE8872F762F05C0662371F0B9
:101CF00096E8862F70E060E02AF09A95660F771FCD
:101D0000881FDAF7880F9695879597F9089557FDFC
:101D10009058440F551F59F05F3F71F04795880F59
:101D200097FB991F61F09F3F79F0879508951216F0
:101D300013061406551FF2CF4695F1DF08C016169C
:101D400017061806991FF1CF86957105610508944D
:101D50000895E894BB2766277727CB0197F9089564
:101D60000E94C30E0C94340F0E94260F38F00E947C
:101D70002D0F20F0952311F00C941D0F0C94230FC0
:101D800011240C94AA0E0E94870E70F3959FC1F344
:101D9000950F50E0551F629FF001729FBB27F00D19
:101DA000B11D639FAA27F00DB11DAA1F649F66276E
:101DB000B00DA11D661F829F2227B00DA11D621FBD
:101DC000739FB00DA11D621F839FA00D611D221F77
:101DD000749F3327A00D611D231F849F600D211D5B
:101DE000822F762F6A2F11249F5750409AF0F1F0DE
:101DF00088234AF0EE0FFF1FBB1F661F771F881F47
:101E000091505040A9F79E3F510580F00C941D0F52
:101E10000C94AA0E5F3FE4F3983ED4F38695779531
:101E20006795B795F795E7959F5FC1F7FE2B880FEC
:101E3000911D9695879597F9089597F99F6780E882
:101E400070E060E008959FEF80EC089500240A940C
:101E50001616170618060906089500240A94121685
:101E60001306140605060895092E0394000C11F4B8
:101E7000882352F0BB0F40F4BF2B11F460FF04C065
:101E80006F5F7F4F8F4F9F4F0895991B79E004C07C
:101E9000991F961708F0961B881F7A95C9F78095A9
:101EA0000895EE0FFF1F881F8BBF0790F691E02D5E
:101EB0001994CF93DF938230910510F482E090E083
:101EC000E091B204F091B30420E030E0C0E0D0E053
:101ED000309711F14081518148175907C0F04817D8
:101EE000590761F482819381209719F09B838A833B
:101EF0002BC09093B3048093B20426C02115310502
:101F000019F04217530718F49A01BE01DF01EF01DF
:101F10000280F381E02DDCCF2115310509F1281B6A
:101F2000390B2430310590F412968D919C911397C2
:101F30006115710521F0FB019383828304C09093A6
:101F4000B3048093B204FD01329644C0FD01E20F58
:101F5000F31F81939193225031092D933C933AC002
:101F60002091B0043091B104232B41F4209103025D
:101F7000309104023093B1042093B0042091010207
:101F8000309102022115310541F42DB73EB7409141
:101F9000050250910602241B350BE091B004F0912C
:101FA000B104E217F307A0F42E1B3F0B28173907E3
:101FB00078F0AC014E5F5F4F2417350748F04E0FA5
:101FC0005F1F5093B1044093B0048193919302C07A
:101FD000E0E0F0E0CF01DF91CF9108950F931F93E0
:101FE000CF93DF93009709F48CC0FC0132971382E2
:101FF00012820091B2041091B3040115110581F40D
:1020000020813181820F931F2091B0043091B1045F
:102010002817390779F5F093B104E093B00471C043
:10202000D80140E050E0AE17BF0750F412962D9152
:102030003C911397AD012115310509F1D901F3CF79
:102040009D01DA013383228360817181860F971F9E
:102050008217930769F4EC0128813981260F371F15
:102060002E5F3F4F318320838A819B8193838283BC
:10207000452B29F4F093B304E093B20442C01396C5
:10208000FC93EE931297ED01499159919E01240F13
:10209000351FE217F30771F480819181840F951F3A
:1020A000029611969C938E938281938113969C93B2
:1020B0008E931297E0E0F0E0D80112968D919C91FA
:1020C0001397009719F0F8018C01F6CF8D919C9130
:1020D00098012E5F3F4F820F931F2091B0043091E3
:1020E000B1042817390769F4309729F41092B30422
:1020F0001092B20402C0138212821093B1040093B2
:10210000B004DF91CF911F910F91089581E090E08D
:0A211000F8940C948B10F894FFCFA4
:10211A00FF0000B4048000000000003D04DF04D585
:10212A000384040604E403F803000000009A085537
:10213A0008B901BF0340080D0A0065786974696E21
:10214A0067206E65757472616C20737461746500C2
:10215A00736572766F20616374696F6E206E657540
:10216A007472616C006D6F746F7220616374696F51
:10217A006E206E65757472616C00656E746572208E
:10218A004E65757472616C2073746174650044697C
:0A219A007374616E63653A20000063
:00000001FF
