:100000000C947F020C94B0020C94B0020C94B002D9
:100010000C94B0020C94B0020C94B0020C94B00298
:100020000C94B0020C94C3070C94C3070C94C30740
:100030000C94B0020C9487150C94B0020C94B0028E
:100040000C94B0020C947D060C94B0020C94B00297
:100050000C94B0020C94B0020C94B0020C942919C8
:100060000C94B0020C94BB0C0C94910C0C94B00248
:100070000C94B0020C94B0020C94B0020C94B00238
:100080000C944F060C94B0020C94B0020C94B00285
:100090000C94B0020C94B0020C94B0020C94B00218
:1000A0000C94B0020C94B0020C9421060C94B00293
:1000B0000C94B0020C94B0020C94B0020C94F305B2
:1000C0000C94B0020C94B0020C94B0020C94B002E8
:1000D0000C94B0020C94B0020C94B0020C94B002D8
:1000E0000C94B0022A072E0734072407340726078A
:1000F00032073C0734073407340734073407340722
:100100003407340737073407340734073407340714
:10011000EE1C4B1D371E911EE41E8F1FE51FE115BF
:10012000E415D315D715DB151B16E815EC15F215DC
:10013000F615FA150016041608161B160E161216DA
:100140001616941699169E16A816B2162B17BC16DC
:10015000C416CC16D616E016EA16F91603172B1796
:100160000D17171721170C94DB150C94FA0F0C942C
:1001700045140C9429120C9417170C94F9160C942E
:1001800032070C94BE110C94F30C0C94C1120C9415
:10019000CF0F0C9492120C9467080C9408160C94D0
:1001A000911E0C9453100C94170D0C94EA160C9499
:1001B0006B030C9471200C94EE140C9425110C9488
:1001C000D3150C94F6150C9412150C94FE030C9494
:1001D000D6160C941B160C94F20C0C946F0C0C9409
:1001E00056130C9434070C94D7150C94B2020C944B
:1001F00012160C9478140C940D170C9494160C94FD
:10020000AB100C946C030C9404160C94D2170C9441
:10021000750D0C940E160C9416160C9412140C9466
:100220008F1F0C9411090C9400160C949E160C94BC
:10023000C0030C94E41E0C949F170C94030F0C94B1
:10024000DE080C94000A0C941B0E0C94080D0C9400
:10025000FA150C94280C0C944B1D0C9475180C94E6
:10026000371E0C942E070C942A070C9403170C9439
:100270003C070C94360F0C9426070C94E3020C9464
:10028000A8160C94F2150C94E1150C9428030C9408
:10029000FD030C94C1020C94C40B0C94360D0C9409
:1002A000EE1C0C94EC150C9437070C945A150C9416
:1002B000EA120C94300E0C9499160C94E8150C94D8
:1002C00021170C94A8180C94F40C0C94B2160C94EE
:1002D000BC160C94F9030C945D0E0C9413180C943A
:1002E000E4150C9454100C942B170C94AB140C9430
:1002F000D70D0C94FA030C94D9180C94E0160C94B6
:1003000053030C94E51F0C9452100C94F10C0C94B4
:1003100036150C94D5020C94C4160C9424070C9436
:1003200094180C94CC160C94D8034446506C617904
:100330006572204D696E69206F6E6C696E652E0066
:10034000322E506C6561736520696E73657274201E
:1003500074686520534420636172642100312E501B
:100360006C65617365207265636865636B20746892
:100370006520636F6E6E656374696F6E2100556EE4
:1003800061626C6520746F20626567696E3A00492E
:100390006E697469616C697A696E67204446506C55
:1003A00061796572202E2E2E20284D61792074618E
:1003B0006B6520337E35207365636F6E647329002F
:1003C0004446526F626F74204446506C6179657286
:1003D000204D696E692044656D6F00000020002388
:1003E00000260029002C002F00320000010000032D
:1003F000010601090100002100240027002A002D28
:10040000003000330001010000040107010A01006F
:10041000002200250028002B002E003100340002AD
:10042000010000050108010B010505050507050888
:10043000080808020202020A0A0808040404040167
:100440000101010101010103030303030303030489
:100450000707070C0C0C0C0C0C0C0C020202020619
:10046000060606060606060B0B0B0B0B0B0B0B0109
:1004700002102020080810204010204080020102B5
:10048000010804020101020408102040808040207D
:1004900010080402018004020180402010080402B8
:1004A0000108040201010204081020408001020436
:1004B000081020408000000A0B02090C0D0E0807EE
:1004C0000304010000000000000000000000000024
:1004D000000000000000000000000000000000001C
:1004E00000121110000000000000000000000000D9
:1004F0000000000000000000000000007120112436
:100500001FBECFEFD1E2DEBFCDBF00E00CBF15E0D4
:10051000A0E0B2E0EAECFAE400E00BBF02C0079012
:100520000D92A034B107D9F727E0A0E4B5E001C0EF
:100530001D92A738B207E1F712E0CFE7D2E000E062
:1005400006C021970109802FFE010E941524CE3795
:10055000D10780E00807A9F70E9473190C9463255E
:100560000C940000FC01538D448D252F30E0842F26
:1005700090E0821B930B541710F0CF9608950197CB
:100580000895FC01918D828D981761F0828DDF01B5
:10059000A80FB11D5D968C91928D9F5F9F73928F76
:1005A00090E008958FEF9FEF0895FC01918D828D6B
:1005B000981731F0828DE80FF11D858D90E0089538
:1005C0008FEF9FEF0895FC01918D228D892F90E090
:1005D000805C9F4F821B91098F739927089580E05B
:1005E00090E0892B21F00E941E0C811125C080E033
:1005F00090E0892B41F080E090E0892B21F00E946F
:10060000000081111CC080E090E0892B41F080E067
:1006100090E0892B21F00E940000811113C080E03E
:1006200090E0892BA1F080E090E0892B81F00E947E
:10063000000081110AC008950E940000D8CF0E94D6
:100640000000E1CF0E940000EACF0C940000089562
:10065000CF92DF92EF92FF920F931F93CF93DF938E
:100660006C017A018B01C0E0D0E0CE15DF0589F086
:10067000D8016D918D01D601ED91FC910190F08131
:10068000E02DC6011995892B11F47E0102C0219637
:10069000ECCFC701DF91CF911F910F91FF90EF90A9
:1006A000DF90CF9008952091AB063091AC062817CB
:1006B000390771F49091A9068091AA06981741F024
:1006C000E091A906F0E0EC5BFA4F808190E008959C
:1006D0008FEF9FEF089508951F93CF93DF93DC0171
:1006E0005C962D913C915D972115310539F481E09F
:1006F00090E013969C938E9312973DC05196ED9186
:10070000FC91529750969C915097892F80951FB7D6
:100710005E964C915E9741FB772770F941FD60959D
:10072000F8944081772311F0492B01C0482340837E
:10073000E9012197F1F748E0508160FF02C0592B91
:1007400001C058235083E9012197F1F76695415084
:1007500099F7772321F090818923808303C08081DA
:10076000982B90831FBF5C968D919C915D9701970C
:10077000F1F721E030E0C901DF91CF911F91089599
:100780002091AB063091AC062817390771F480919F
:10079000AA062091A90690E0805C9F4F821B9109D8
:1007A00060E470E00E940124089580E090E00895E4
:1007B0002091AB063091AC0628173907B9F4909117
:1007C000A9068091AA06981789F0E091A906F0E0A1
:1007D000EC5BFA4F80812091A90630E02F5F3F4FFC
:1007E0002F7333272093A90690E008958FEF9FEF92
:1007F0000895089580E090E0089508950E945E2590
:10080000CF92DF92EF92FF920F931F93CF93DF93DC
:100810006C018B017A01EC01CC57DA4F888187FF9C
:1008200004C0FB011182108223C08CE08C9D9001DA
:100830008D9D300D11248881A901480F511D87FD20
:100840005A958091A80690E0481759078CF4888142
:10085000A901480F511D87FD5A9586E0849FF0013C
:10086000859FF00D1124E857FA4F908196FD19C02D
:1008700088818F5F88838CE08C9D90018D9D300DE9
:1008800011248881A901480F511D87FD5A95809137
:10089000A80690E048175907B4F488818C3034F1E9
:1008A00012C09881290F311D97FD3A95829FF00162
:1008B000839FF00D1124E857FA4F808160E08F7319
:1008C0000E94B215D5CFF8018081918184349C4972
:1008D00018F480E49CE904C0F801808191810496B9
:1008E000F701918380838FEF88833AC18881A901C2
:1008F000480F511D87FD5A9586E0849FF001859F22
:10090000F00D1124E857FA4F9581992309F4E7C0B7
:1009100048819881B901640F711D47FD7A95869FC2
:10092000D001879FB00D1124A857BA4FA901490FD4
:10093000511D97FD5A95849FF001859FF00D11245C
:10094000E857FA4F13966D917C911497418152812B
:1009500098814617570708F04FC04881F901E40F06
:10096000F11D47FDFA95AF01849FF001859FF00DC1
:100970001124E857FA4FA901490F511D97FD5A95C7
:10098000849FD001859FB00D1124A857BA4F1596AA
:100990009C9141815281490F511D5283418348816D
:1009A0009881B901640F711D47FD7A95869FD0012A
:1009B000879FB00D1124A857BA4FA901490F511DA7
:1009C00097FD5A95849FF001859FF00D1124E857FB
:1009D000FA4F13966D917C9114974181528146177D
:1009E000570708F47CC048819881F901E40FF11D94
:1009F00047FDFA95AF014CC04881B901640F711DE4
:100A000047FD7A95869FF001879FF00D1124E857E6
:100A1000FA4FA901490F511D97FD5A95849FD001A6
:100A2000859FB00D1124A857BA4F15969C9141810E
:100A30005281491B51095283418348819881F901B0
:100A4000E40FF11D47FDFA958E9FD0018F9FB00DE9
:100A50001124A857BA4FA901490F511D97FD5A9566
:100A6000849FF001859FF00D1124E857FA4F1396EB
:100A70006D917C911497418152816417750778F1CB
:100A800048819881B901640F711D47FD7A95AB01CA
:100A9000849FF001859FF00D1124E857FA4FA901BA
:100AA000490F511D97FD5A95849FD001859FB00D28
:100AB0001124A857BA4F13964D915C911497528305
:100AC00041839881A901490F511D97FD5A95849F33
:100AD000F001859FF00D1124E857FA4F1582F801B7
:100AE000608171818881A901480F511D87FD5A9548
:100AF00086E0849FF001859FF00D1124E857FA4F9E
:100B000041815281460F571FF701518340839881DD
:100B1000A901490F511D97FD5A95849FF001859FAA
:100B2000F00D1124E857FA4F908196FF19C0988173
:100B3000290F311D97FD3A95829FF001839FF00D9B
:100B40001124E857FA4F808161E08F73DF91CF91D4
:100B50001F910F91FF90EF90DF90CF900C94B21502
:100B6000DF91CF911F910F91FF90EF90DF90CF9089
:100B70000895FC01848DDF01A80FB11DA35ABF4F5A
:100B80002C91848D90E001968F739927848FA6898C
:100B9000B7892C93A089B1898C9180648C93938DB3
:100BA000848D981306C00288F389E02D80818F7DA3
:100BB00080830895E091A806E03388F421E02E0FA9
:100BC0002093A806DC01EC93B6E0EB9FF001112422
:100BD000E857FA4F88EB9BE09283818308952FEFCB
:100BE000FC01208308951F920F920FB60F921124DB
:100BF0000BB60F922F933F934F935F936F937F9317
:100C00008F939F93AF93BF93EF93FF9348E251E08D
:100C100064E271E080E090E00E940004FF91EF91B7
:100C2000BF91AF919F918F917F916F915F914F9104
:100C30003F912F910F900BBE0F900FBE0F901F9002
:100C400018951F920F920FB60F9211240BB60F92A8
:100C50002F933F934F935F936F937F938F939F93C4
:100C6000AF93BF93EF93FF9348EA50E064EA70E0DC
:100C700083E090E00E940004FF91EF91BF91AF915B
:100C80009F918F917F916F915F914F913F912F91A4
:100C90000F900BBE0F900FBE0F901F9018951F92D4
:100CA0000F920FB60F9211240BB60F922F933F9312
:100CB0004F935F936F937F938F939F93AF93BF9364
:100CC000EF93FF9348E950E064E970E082E090E040
:100CD0000E940004FF91EF91BF91AF919F918F917E
:100CE0007F916F915F914F913F912F910F900BBE2C
:100CF0000F900FBE0F901F9018951F920F920FB676
:100D00000F9211240BB60F922F933F934F935F9343
:100D10006F937F938F939F93AF93BF93EF93FF93C3
:100D200048E850E064E870E081E090E00E94000450
:100D3000FF91EF91BF91AF919F918F917F916F91B3
:100D40005F914F913F912F910F900BBE0F900FBE6F
:100D50000F901F9018950F931F93CF93DF93EC0183
:100D600088819981DC01ED91FC910084F185E02D71
:100D70001995892B09F48CC060E070E0CB010E94CA
:100D800059171E8D88819981DC01ED91FC910284B7
:100D9000F385E02D111107C019958A878E3701F769
:100DA0001CA28E8D72C01995FE01E10FF11D828784
:100DB0008E8D823079F0893091F0813009F065C0F4
:100DC0009B859F3F09F461C01E8E81E088A31BA212
:100DD0001AA27DC09C85963009F457C0F5CF8B8947
:100DE0008F3E91F7FE013B96CE01419620E030E028
:100DF0004191240F311DE817F907D1F7898990E057
:100E0000982F88273195219531094A89840F911DA2
:100E100028173907C9F61E8EED85E9A32F8530E026
:100E2000322F22278889280F311D3BA32AA38E2F1A
:100E300090E0FC01FA97E631F105C8F48827EE58F6
:100E4000FF4F8F4F0C94152485E00DC021FF15C076
:100E500084E009C021FF11C082E005C021FF0DC060
:100E600083E001C086E088A381E08CA306C081E016
:100E700088A31BA21AA28CA31DA28CA1882351F1C6
:100E8000988D911127C01DA225C08F5F8E8F68CFCE
:100E90008DA18823A9F00E9493170A811B812C81C0
:100EA0003D81DC01CB01801B910BA20BB30B0E81AA
:100EB0001F812885398580179107A207B30710F491
:100EC0008CA108C01E8E18A21BA21AA281E08CA3BE
:100ED0001DA280E0DF91CF911F910F9108950F9394
:100EE0001F93CF93DF93EC016F8B598F4A8F8C0147
:100EF0000C5E1F4FFC0175969C01255E3F4F80E004
:100F000090E04191840F911DE217F307D1F791957D
:100F1000819591099B8F8C8F888D882361F08DA19D
:100F2000882379F060E070E0CB010E945917CE0170
:100F30000E94AB06F4CF6AE070E080E090E00E948F
:100F4000591788819981DC01ED91FC910280F38130
:100F5000E02D4AE050E0B80119950E9493176A838A
:100F60007B838C839D8381E0988D911101C080E00B
:100F70008DA3DF91CF911F910F91089540E050E034
:100F800066E10C946F071F920F920FB60F92112417
:100F90000BB60F922F933F934F935F936F937F9373
:100FA0008F939F93AF93BF93EF93FF93E091AB0623
:100FB000F091AC06309709F451C0968DA685B7859F
:100FC000858591FF04C09C91892329F447C09C9199
:100FD000892309F043C0A389B4899C9185898095B0
:100FE00089238C93868997890197F1F7608D718D9C
:100FF000A685B785558538E020E0CB010197F1F74C
:10100000822F90E095958795282F4C91452309F0E4
:101010002068315091F7868D81FD20958091AA0638
:1010200090E001968F7399273091A906381749F0FF
:10103000A091AA06B0E0AC5BBA4F2C938093AA06AD
:1010400003C0868D8160868F828D938D0197F1F725
:10105000A389B4899C918589892B8C93FF91EF9109
:10106000BF91AF919F918F917F916F915F914F91C0
:101070003F912F910F900BBE0F900FBE0F901F90BE
:101080001895CF93DF93EC018C810E946B1661E081
:1010900088810E94B21560E08A81DF91CF910C9423
:1010A000B21560E070E0FC0184810C946B16CF9364
:1010B000DF93EC018C810E946B1660E088810E94B6
:1010C000B21561E08A81DF91CF910C94B215CF9374
:1010D000DF93EC018DA98823C1F00E9493176E8FD6
:1010E0007F8F88A399A3EAA9FBA96FEF70E086819F
:1010F00097810E945708EAA9FBA96FEF70E08085ED
:1011000091850E9441081DAA18C00E9493176E8FF6
:101110007F8F88A399A3EAA9FBA96FEF70E086816E
:1011200097810E944108EAA9FBA96FEF70E08085D2
:1011300091850E94570881E08DABDF91CF91089592
:10114000EF92FF920F931F93CF93DF937C018A015D
:10115000E9016639710534F4161617062CF060E0C3
:1011600070E002C066E970E00639110534F410162B
:1011700011062CF000E010E002C006E910E0C639CC
:10118000D10534F41C161D062CF0C0E0D0E002C0DE
:10119000C6E9D0E0F70180810E946B16B801F70123
:1011A00082810E946B16BE01F7018481DF91CF918D
:1011B0001F910F91FF90EF900C946B16CF93DF93DC
:1011C000EC01EAA9FBA9868197810E945108EAA94E
:1011D000FBA9808591850E945108EAA9FBA920E01E
:1011E00030E040E050E060E070E0828593850E944E
:1011F000A008EAA9FBA9848595850E94BE072097CF
:1012000069F08CE192E09983888382ED92E00E94FC
:101210000D0ECE01DF91CF910C94C624DF91CF91BA
:101220000895CF93DF93EC010E9493176AA77BA7E1
:101230008CA79DA78EA9EAA9FBA920E030E088230E
:1012400051F046E950E066E970E0828593850E949E
:10125000A0081EAA0AC040E050E060E070E082856D
:1012600093850E94A00881E08EABDF91CF91089515
:101270000F931F93CF93DF93EC01EA85FB85908159
:101280008C81892B8083EE81FF8190818C81809578
:10129000892380838BE090E00197F1F7EE81FF8155
:1012A00090818C81892B808383E290E00197F1F714
:1012B000EE81FF8190818C81809589238083EA85EE
:1012C000FB8590818C81809589238083E885F985D1
:1012D00090818D81892309F054C00E9434172C8598
:1012E0003D85890120E030E00855194E2F4F3F4FD2
:1012F000DC01CB01800F911FA21FB31F8E879F8738
:10130000A88BB98BE885F98590818D81892361F45B
:101310000E9434170E851F852889398906171707FB
:101320002807390778F72DC00E9434172C853D8592
:10133000DC01CB01820F931FA11DB11D8E879F87FA
:10134000A88BB98BE885F98590818D81892361F01F
:101350000E9434170E851F852889398906171707BB
:101360002807390778F70DC00E9434172C853D8572
:10137000255031094E855F85241B350B620F731F85
:1013800002C060E070E080E090E029E330E040E0FF
:1013900050E00E94D4213F8B2E8B84EE92E00E947D
:1013A000FB0D6E897F89072E000C880B990B97FF28
:1013B00003C00E94131003C04AE00E947F0F8BEE0F
:1013C00092E00E940D0E8E899F89DF91CF911F912F
:1013D0000F9108950F931F93CF93DF938C01EB012F
:1013E0008EEE92E00E940D0ECE010E943A10AE01E8
:1013F00063E0C801DF91CF911F910F910C946F07AB
:10140000CF93DF93EC010E9493176EA37FA388A76D
:1014100099A78A819B81AC81BD818A8B9B8BAC8B88
:10142000BD8BEAA9FBA94EE150E066E08485958575
:101430000E946F07EAA9FBA967E070E084859585A3
:10144000DF91CF910C94EA090F931F93CF93DF9311
:10145000EC01162F072F8881803308F04BC061E024
:10146000812F0E942F16888196E0899FF001112418
:10147000E857FA4F9081907C212F2F73922B908305
:1014800019821A826CE00E94F523982F8CE0989FB5
:10149000A001112420E030E086E0B901640F751F3F
:1014A000869FF001879FF00D1124E857FA4F608165
:1014B00066FD16C02F5F3F4F2C30310571F791301C
:1014C00001F51092800082E08093810010928500E7
:1014D00010928400B19A80916F00826080936F00B7
:1014E000E88196E0E99FF0011124E857FA4F8081E6
:1014F000806480831B830C83DF91CF911F910F91B8
:101500000895923061F4109290009093910010929F
:1015100095001092940098BB90937100E1CF9330A6
:1015200069F41092A00082E08093A1001092A500BF
:101530001092A40089BB80937200D2CF9111D0CFBA
:101540001092200182E080932101109225011092D7
:1015500024018ABB80937300C3CF8F929F92AF9276
:10156000BF92CF92DF92EF92FF921F93CF93DF93C0
:10157000EC01F42E8B819C818830910539F4AFE524
:10158000B0E0CD01861B970BBC0107C0069719F48C
:10159000615F7F4F02C06B5F7F4F1881FF2009F4AE
:1015A00074C0603292E079070CF03EC077FD06C04F
:1015B000653B71052CF064EB70E002C060E070E008
:1015C0008981A8E8B0E04D01881A910887FD9394BD
:1015D000D401AA0FBB1FAA0FBB1F4D01BB0FAA0846
:1015E000BB088A8128E532E0281B310987FD339545
:1015F000220F331F220F331FC901330FAA0BBB0B5E
:101600009C01AD01281939094A095B09DB010E94D7
:10161000CC2124EB30E040E050E00E94A221820E79
:10162000931EA41EB51EB401103308F0A1C0298179
:1016300088E890E0821B910927FD9395880F991FF8
:10164000880F991F6817790784F08A8128E532E0AE
:10165000281B310987FD3395220F331F220F331FBB
:10166000CB01261737070CF4C9012FB7F89436E0E1
:10167000139FE0011124C857DA4F0297880F991F72
:101680009C838B83FD822FBF73C0603282E078071A
:101690000CF03EC077FD06C0653B71052CF064EB95
:1016A00070E002C060E070E08981A8E8B0E06D0100
:1016B000C81AD10887FDD394D601AA0FBB1FAA0F61
:1016C000BB1F6D01BB0FEE08FF088A8128E532E0E1
:1016D000281B310987FD3395220F331F220F331F3B
:1016E000C901330FAA0BBB0B9C01AD012C193D099D
:1016F0004E095F09DB010E94CC2124EB30E040E081
:1017000050E00E94A221C20ED31EE41EF51EB601B7
:10171000103370F5898128E830E0281B310987FDF6
:101720003395220F331F220F331F6217730784F084
:101730002A8188E592E0821B910927FD9395880F05
:10174000991F880F991F9B01861797070CF49C011E
:101750008FB7F89496E0199FE0011124C857DA4F2B
:1017600022503109220F331F3A8329838FBF1D82F4
:10177000DF91CF911F91FF90EF90DF90CF90BF90BE
:10178000AF909F908F900895CF93DF93EC018CA939
:10179000882331F10E9493176AA37BA38CA39DA396
:1017A000EAA9FBA948E250E064E170E08081918100
:1017B0000E94AD0AEAA9FBA948E250E064E170E0AA
:1017C000828193810E94AD0AEAA9FBA948E250E018
:1017D00064E170E0848195810E94AD0A1CAA26C054
:1017E0000E9493176AA37BA38CA39DA3EAA9FBA9DC
:1017F00048E250E06CE370E0808191810E94AD0A84
:10180000EAA9FBA948E250E06CE370E08281938191
:101810000E94AD0AEAA9FBA948E250E06CE370E03F
:10182000848195810E94AD0A81E08CABDF91CF91DC
:101830000895AB0165E570E00C94AD0A8DEA96E081
:101840000E94E30221E0892B09F420E0822F089511
:10185000EF92FF920F931F93CF93DF93EC0181E000
:10186000888F9B8D8C8D981305C0E889F9898081BC
:1018700085FD24C0F62E0B8D10E00F5F1F4F0F73F8
:101880001127E02E8C8DE8120CC00FB607FCFACFA2
:10189000E889F989808185FFF5CFCE010E94B905DD
:1018A000F1CF8B8DFE01E80FF11DE35AFF4FF0825F
:1018B0000B8FEA89FB898081806207C0EE89FF89EE
:1018C0006083E889F98980818064808381E090E089
:1018D000DF91CF911F910F91FF90EF900895CF93DB
:1018E000DF93EC01888D8823C9F0EA89FB89808128
:1018F00085FD05C0A889B9898C9186FD0FC00FB6FA
:1019000007FCF5CF808185FFF2CFA889B9898C913A
:1019100085FFEDCFCE010E94B905E7CFDF91CF91D2
:1019200008951F920F920FB60F9211240BB60F92CB
:101930002F933F934F935F936F937F938F939F93D7
:10194000AF93BF93EF93FF938DEA96E00E94B905A2
:10195000FF91EF91BF91AF919F918F917F916F9187
:101960005F914F913F912F910F900BBE0F900FBE43
:101970000F901F9018951F920F920FB60F9211247F
:101980000BB60F922F938F939F93EF93FF93E0915A
:10199000BD06F091BE068081E091C306F091C406B9
:1019A00082FD12C090818091C6068F5F8F73209157
:1019B000C706821751F0E091C606F0E0E355F94FF3
:1019C000958F8093C60601C08081FF91EF919F9112
:1019D0008F912F910F900BBE0F900FBE0F901F9005
:1019E0001895089508950895CF93DF93EC010E9410
:1019F00093176EA37FA388A799A78A819B81AC8147
:101A0000BD818A8B9B8BAC8BBD8BDF91CF91089571
:101A1000DC01D296ED91FC91D39720E030E040E0DC
:101A200050E060E070E0828593850C94A008CF932D
:101A3000DF93EC010E9493176AA77BA78CA79DA751
:101A40008A819B81AC81BD818E8B9F8BA88FB98F42
:101A5000EAA9FBA926E930E046E950E066E970E032
:101A600082859385DF91CF910C94A0080F931F93EB
:101A7000CF93DF93EC010E9493176EA77FA788ABEB
:101A800099ABEAA9FBA9868597850E94380998AF8A
:101A90008FAB2BAD3CAD8217930704F518161906D2
:101AA000ECF48DAD9EAD9AAF89AF892BC9F0EAA950
:101AB000FBA981E090E0918B808B0E9493170A81B3
:101AC0001B812C813D81DC01CB01800F911FA21F66
:101AD000B31F8E839F83A887B98702C01AAE19AE41
:101AE000DF91CF911F910F9108950F931F93CF9383
:101AF000DF93EC010E9493170E811F8128853985A1
:101B0000DC01CB01801B910BA20BB30BEAA9FBA953
:101B1000883E9340A105B105D8F460E570E080816E
:101B200091810E94190CEAA9FBA960E570E082810D
:101B300093810E94190CEAA9FBA960E570E08481F9
:101B400095810E94190C88EE93E0A0E0B0E020C0DF
:101B500040E550E064E170E0808191810E94AD0A2F
:101B6000EAA9FBA940E550E06EE170E08281938133
:101B70000E94AD0AEAA9FBA940E550E06EE170E0E1
:101B8000848195810E94AD0A8A819B81AC81BD814F
:101B90008E879F87A88BB98B0E9493176AA37BA31C
:101BA0008CA39DA3DF91CF911F910F910895CF93A7
:101BB000DF93EC010E9493176EA37FA388A799A7D8
:101BC0008A819B81AC81BD818A8B9B8BAC8BBD8BC9
:101BD000EAA9FBA94EE150E066E0848595850E9464
:101BE0006F07EAA9FBA965E070E084859585DF9120
:101BF000CF910C94EA09009769F0FC010190002054
:101C0000E9F73197AF01481B590BBC018DEA96E00B
:101C10000C94280380E090E00895CF93DF930E9416
:101C2000FB0DEC0183E093E00E94FB0D8C0F9D1FE8
:101C3000DF91CF910895CF93DF93009771F0EC017E
:101C400086E492E0998388838CEA93E00E940D0EEB
:101C5000CE01DF91CF910C94C624DF91CF910895EE
:101C6000CF93DF93EC01EAA9FBA9868197810E94BB
:101C70005108EAA9FBA9808591850E945108EAA92B
:101C8000FBA920E030E040E050E060E070E08285B9
:101C900093850E94A008209769F086E892E09983D6
:101CA000888382EC93E00E940D0ECE01DF91CF91EC
:101CB0000C94C624DF91CF9108950F931F93CF9377
:101CC000DF93EC0187ED93E00E940D0E0E949317C5
:101CD0000E811F8128853985DC01CB01801B910B8A
:101CE000A20BB30B883E9340A105B105C8F48BEE5F
:101CF00093E00E940D0EEAA9FBA968EC70E08681D2
:101D000097810E944108EAA9FBA968EC70E08085F0
:101D100091850E94410888EE93E0A0E0B0E03AC0CF
:101D20000E9493170E811F8128853985DC01CB0124
:101D3000801B910BA20BB30B883E9340A105B1050C
:101D4000C0F10E9493170E811F8128853985DC011F
:101D5000CB01801B910BA20BB30B8C3D9540A105D1
:101D6000B10538F584E594E00E940D0EEAA9FBA9BF
:101D700068EC70E0868197810E945708EAA9FBA968
:101D800068EC70E0808591850E9441088CED95E0BB
:101D9000A0E0B0E08A879B87AC87BD870E9493173D
:101DA0006E8F7F8F88A399A3DF91CF911F910F91A1
:101DB00008950E9493170E811F8128853985DC01C3
:101DC000CB01801B910BA20BB30B8C3D9540A10561
:101DD000B10520F38AEF93E00E940D0EEAA9FBA95A
:101DE00068EC70E0868197810E945708EAA9FBA9F8
:101DF00068EC70E0808591850E9457088A819B81FC
:101E0000AC81BD81C7CFCF93DF93EC01EAA9FBA9D9
:101E1000868197810E945108EAA9FBA98085918556
:101E20000E945108EAA9FBA920E030E040E050E020
:101E300060E070E0828593850E94A008EAA9FBA972
:101E4000848595850E94BE07209769F086E392E01D
:101E50009983888382E694E00E940D0ECE01DF9183
:101E6000CF910C94C624DF91CF910895CF93DF9347
:101E7000EC010E9493176AA77BA78CA79DA78A8174
:101E80009B81AC81BD818E8B9F8BA88FB98F88E79A
:101E900094E00E940D0EEAA9FBA920E030E046E99B
:101EA00050E060E070E082859385DF91CF910C94E3
:101EB000A0080F931F93CF93DF938C01C0E0D0E075
:101EC000F801EC0FFD1F6491662371F0E091AD06FF
:101ED000F091AE060190F081E02D8DEA96E0199523
:101EE000892B11F02196ECCF83E093E00E94FB0D4B
:101EF0008C0F9D1FDF91CF911F910F9108958F92AD
:101F00009F92AF92BF920F931F93CF93DF93CDB762
:101F1000DEB7A1970FB6F894DEBF0FBECDBF19A2F2
:101F2000423008F44AE08E010F5D1F4F842E912C41
:101F3000A12CB12CA50194010E94D421E62FB90156
:101F4000CA0101501109EA3014F4E05D01C0E95CF6
:101F5000D801EC93232B242B252B61F7C8010E9479
:101F6000FB0DA1960FB6F894DEBF0FBECDBFDF917B
:101F7000CF911F910F91BF90AF909F908F90089538
:101F8000CF93DF934AE00E947F0FEC0183E093E060
:101F90000E94FB0D8C0F9D1FDF91CF910895CF9371
:101FA000DF93EC018CE794E00E940D0E0E949317E2
:101FB0000E94C00FEAA9FBA94EE150E067E370E080
:101FC000808191810E94AD0AEAA9FBA94EE150E00F
:101FD00067E370E0828193810E94AD0AEAA9FBA9C0
:101FE0004EE150E067E370E084819581DF91CF910D
:101FF0000C94AD0ACF93DF93EC0181E994E00E9449
:102000000D0E0E9493170E94C00FEAA9FBA98681BA
:1020100097810E945108EAA9FBA980859185DF91EB
:10202000CF910C945108CF92DF92EF92FF92CF9311
:10203000DF936B017C01E091AD06F091AE0601905B
:10204000F081E02D6DE28DEA96E01995EC016627AE
:102050007727CB016C197D098E099F094AE00E9400
:102060007F0F8C0F9D1FDF91CF91FF90EF90DF903E
:10207000CF900895CF93DF93BC01990F880B990BF4
:1020800097FF03C00E94131003C04AE00E947F0F15
:10209000EC0183E093E00E94FB0D8C0F9D1FDF910C
:1020A000CF910895089508950F931F93CF93DF93D1
:1020B000EC0186EA94E00E940D0E0E9493170E94A4
:1020C000C00F0E9493170E811F8128853985DC017E
:1020D000CB01801B910BA20BB30B843F9140A10558
:1020E000B105B8F0EAA9FBA942E350E060E070E076
:1020F000808191810E94AD0A8A819B81AC81BD81E2
:102100008AA39BA3ACA3BDA3DF91CF911F910F9195
:1021100008950E9493176AA37BA38CA39DA3EAA9A9
:10212000FBA96EE170E0808191810E94190CEAA9FF
:10213000FBA96EE170E0828193810E94190CEAA9EB
:10214000FBA96EE170E084819581DF91CF911F91B1
:102150000F910C94190C0F931F93CF93DF93EC0105
:102160000E9493170E811F8128853985DC01CB01E0
:10217000801B910BA20BB30B813D9740A105B105CC
:1021800040F50E9493176AA37BA38CA39DA3EAA9A1
:10219000FBA94EE150E06EE170E0808191810E94E8
:1021A000AD0AEAA9FBA94EE150E06EE170E0828140
:1021B00093810E94AD0AEAA9FBA94EE150E06EE1CD
:1021C00070E084819581DF91CF911F910F910C94E4
:1021D000AD0A8CA98823E1F00E9493176AA37BA320
:1021E0008CA39DA3EAA9FBA94AE550E062E370E055
:1021F000828193810E94AD0AEAA9FBA94AE550E0D9
:1022000062E370E0848195810E94AD0A1CAA18C027
:102210000E9493176AA37BA38CA39DA3EAA9FBA9A1
:102220006AEF70E0828193810E94190CEAA9FBA9F0
:102230006AEF70E0848195810E94190C81E08CAB7B
:10224000DF91CF911F910F9108958F929F92AF923E
:10225000BF92CF92DF92EF92FF92CF93DF93EC0188
:102260000E949317CE80DF80E884F9849B01AC0143
:102270002C193D094E095F0969017A016A817B8148
:102280008C819D8125E0822E912CA12CB12CA50161
:1022900094010E94D421C216D306E406F50658F52F
:1022A000EAA9FBA969E170E0808191810E94190C83
:1022B000EAA9FBA969E170E0828193810E94190C6F
:1022C000EAA9FBA969E170E0848195810E94190C5B
:1022D0000E9493176AA37BA38CA39DA36A817B8131
:1022E0008C819D81A50194010E94D4212E873F8776
:1022F000488B598B38C00E949317CE80DF80E884CA
:10230000F9846C197D098E099F090E94C00FEAA902
:10231000FBA949E150E060E070E0808191810E947A
:10232000AD0AEAA9FBA949E150E060E070E08281D2
:1023300093810E94AD0AEAA9FBA949E150E060E05F
:1023400070E0848195810E94AD0A8A819B81AC8175
:10235000BD818E879F87A88BB98B0E9493176AA334
:102360007BA38CA39DA3DF91CF91FF90EF90DF9093
:10237000CF90BF90AF909F908F9008950F931F9331
:10238000CF93DF93EC0184EB94E00E940D0E0E944A
:1023900093170E94C00F0E9493170E811F812885FA
:1023A0003985DC01CB01801B910BA20BB30B853F60
:1023B0009140A105B105A0F58DA98823C1F00E9427
:1023C00093176E8F7F8F88A399A3EAA9FBA96FEF5C
:1023D00070E0868197810E945708EAA9FBA96FEFF8
:1023E00070E0808591850E9441081DAA2DC00E9441
:1023F00093176E8F7F8F88A399A3EAA9FBA96FEF2C
:1024000070E0868197810E944108EAA9FBA96FEFDD
:1024100070E0808591850E94570881E08DAB14C0E3
:10242000EAA9FBA96FEF70E0868197810E944108BD
:10243000EAA9FBA96FEF70E080859185DF91CF91CC
:102440001F910F910C944108DF91CF911F910F9133
:1024500008950F931F93CF93DF93EC019C01285BAA
:102460003F4FF901608171813697808191818E01A2
:10247000065B1F4FDE01A45BBF4F6817790744F16D
:10248000F80140815181CE018C5B9F4FFC0180811E
:10249000918148175907E4F04D915C911197CE0155
:1024A0008A5B9F4FFC01808191814817590784F016
:1024B0008CAD9DADF901918380838EAD9FADF80108
:1024C000918380833A97808191818D939C931FC0E3
:1024D0002D913C91F80140815181EAA9FBA98285A7
:1024E00093850E94A008FE01F6969E01245C3F4F52
:1024F000DF01329652964D915C9153978D919C914C
:10250000840F951F918B808BE217F30789F70E9448
:1025100093176AA77BA78CA79DA7DF91CF911F91E7
:102520000F910895CF93DF93EC010E9493176AA750
:102530007BA78CA79DA7FE01E45BFF4F2081318123
:10254000329740815181329760817181EAA9FBA95C
:10255000828593850E94A008FE01F696EC96DF0125
:10256000329652968D919C9153972D913C91821B5E
:10257000930B918B808BEC17FD0789F7DF91CF913F
:102580000895CF93DF93EC010E9493176AA77BA76E
:102590008CA79DA78EA9EAA9FBA9882361F026E94B
:1025A00030E040E050E066E970E0828593850E946B
:1025B000A0081EAA0CC020E030E040E050E060E03F
:1025C00070E0828593850E94A00881E08EABDF9148
:1025D000CF9108950F931F93CF93DF93EC010E9447
:1025E00093170E811F8128853985DC01CB01801B63
:1025F000910BA20BB30B813D9740A105B105D0F41F
:102600000E9493176E8F7F8F88A399A3EAA9FBA9D5
:102610006FEF70E0868197810E945708EAA9FBA9B5
:102620006FEF70E080859185DF91CF911F910F91C1
:102630000C94410880E991E0A0E0B0E08A879B8794
:10264000AC87BD878DA98823C1F00E9493176E8F38
:102650007F8F88A399A3EAA9FBA96FEF70E0868119
:1026600097810E945708EAA9FBA96FEF70E0808567
:1026700091850E9457081DAA14C00E9493176E8F5F
:102680007F8F88A399A3EAA9FBA9868197810E94DD
:102690005108EAA9FBA9808591850E94510881E033
:1026A0008DABDF91CF911F910F9108958F929F92E3
:1026B000AF92BF92CF92DF92EF92FF92CF93DF93D0
:1026C000EC0184EB94E00E940D0E0E9493170E948F
:1026D000C00F0E949317CE80DF80E884F9844B01FD
:1026E0005C018C189D08AE08BF086A817B818C81D3
:1026F0009D8145E0C42ED12CE12CF12CA70196013F
:102700000E94D42182169306A406B50620F5EAA9F4
:10271000FBA9868197810E945108EAA9FBA98085BF
:1027200091850E9451080E9493176E8F7F8F88A316
:1027300099A38A819B81AC81BD81BC01CD01660FCB
:10274000771F881F991FA70196010E94D4212A870D
:102750003B874C875D870E949317CE80DF80E8849B
:10276000F9849B01AC012C193D094E095F096901EF
:102770007A018A819B81AC81BD81BC01CD01660F4C
:10278000771F881F991F25E030E040E050E00E944D
:10279000D421C216D306E406F506C8F188EE93E00C
:1027A000A0E0B0E08A879B87AC87BD878DA9EAA9A6
:1027B000FBA98823B1F064EB70E0868197810E94C9
:1027C0005708EAA9FBA966EE70E0808591850E9412
:1027D00041080E9493176E8F7F8F88A399A31DAA2B
:1027E00016C066EE70E0868197810E944108EAA9D2
:1027F000FBA964EB70E0808591850E9457080E94D8
:1028000093176E8F7F8F88A399A381E08DABDF91A3
:10281000CF91FF90EF90DF90CF90BF90AF909F90BF
:102820008F900895CF93DF93EC01EAA9FBA98681ED
:1028300097810E945108EAA9FBA9808591850E9491
:102840005108EAA9FBA920E030E040E050E060E058
:1028500070E0828593850E94A008EAA9FBA984857F
:1028600095850E94BE07209769F086EB92E09983D8
:10287000888382EC94E00E940D0ECE01DF91CF910F
:102880000C94C624DF91CF910895CF93DF93EC0190
:10289000EAA9FBA9868197810E945108EAA9FBA9B0
:1028A000808591850E945108EAA9FBA920E030E0CB
:1028B00040E050E060E070E0828593850E94A008CF
:1028C000EAA9FBA9848595850E94BE07209769F037
:1028D00086EA92E09983888386ED94E00E940D0E4B
:1028E000CE01DF91CF910C94C624DF91CF91089552
:1028F000CF93DF93EC01EAA9FBA9868197810E941F
:102900005108EAA9FBA9808591850E945108EAA98E
:10291000FBA920E030E040E050E060E070E082851C
:1029200093850E94A008EAA9FBA9848595850E9449
:10293000BE07209769F086E992E0998388838CEE40
:1029400094E00E940D0ECE01DF91CF910C94C6242D
:10295000DF91CF910895CF93DF93EC0189E190E06F
:10296000A0E0B0E08A8F9B8FAC8FBD8F0E94931741
:102970006EA77FA788AB99ABEAA9FBA98685978547
:102980000E943809FE01E25BFF4F918380833496F9
:1029900020813181329782179307DCF418161906CB
:1029A000C4F4DE01AC5ABF4F8D919C91918380831A
:1029B000892B89F0EAA9FBA984E090E0918B808BB8
:1029C0008A819B81AC81BD818E839F83A887B987D3
:1029D00002C011821082DF91CF910895CF93DF93CF
:1029E000EC010E9493176EA37FA388A799A78A8101
:1029F0009B81AC81BD818A8B9B8BAC8BBD8BEAA903
:102A0000FBA94EE150E066E0848595850E946F0742
:102A1000EAA9FBA966E070E084859585DF91CF91F6
:102A20000C94EA09CF93DF93EC010E9493176EA3F5
:102A30007FA388A799A78A819B81AC81BD818A8B5E
:102A40009B8BAC8BBD8BEAA9FBA94EE150E066E005
:102A5000848595850E946F07EAA9FBA961E070E073
:102A600084859585DF91CF910C94EA09CF93DF930C
:102A7000EC010E9493176EA37FA388A799A78A8170
:102A80009B81AC81BD818A8B9B8BAC8BBD8BEAA972
:102A9000FBA94EE150E066E0848595850E946F07B2
:102AA000EAA9FBA968E070E084859585DF91CF9164
:102AB0000C94EA09CF93DF93EC01EAA9FBA9868184
:102AC00097810E945108EAA9FBA9808591850E94FF
:102AD0005108EAA9FBA920E030E040E050E060E0C6
:102AE00070E0828593850E94A008209769F086ECAB
:102AF00092E0998388838FEF94E00E940D0ECE01BF
:102B0000DF91CF910C94C624DF91CF9108951F924D
:102B10000F920FB60F9211240BB60F922F933F9383
:102B20004F935F936F937F938F939F93AF93BF93D5
:102B3000EF93FF93E0918107F09182071995FF9140
:102B4000EF91BF91AF919F918F917F916F915F9125
:102B50004F913F912F910F900BBE0F900FBE0F9092
:102B60001F901895362F90E0FC01EB54FB4F4491D9
:102B7000FC01E159FB4F2491FC01E75DFB4F94916F
:102B8000992309F46BC0442309F455C050E0FA01BD
:102B90003197E231F10508F04EC08827E157FF4F29
:102BA0008F4F0C941524809180008F7707C08091FF
:102BB00080008F7D03C080918000877F809380009C
:102BC0003AC084B58F7702C084B58F7D84BD33C091
:102BD0008091B0008F7703C08091B0008F7D80938B
:102BE000B00029C0809190008F7707C0809190003D
:102BF0008F7D03C080919000877F809390001BC0E1
:102C00008091A0008F7707C08091A0008F7D03C0C6
:102C10008091A000877F8093A0000DC0809120014B
:102C20008F7707C0809120018F7D03C080912001A4
:102C3000877F80932001E92FF0E0EE0FFF1FE15F17
:102C4000FB4FA591B4918FB7F894EC91311103C06B
:102C500020952E2301C02E2B2C938FBF0895CF9348
:102C6000DF9390E0FC01E159FB4F2491FC01E75D0B
:102C7000FB4F8491882361F190E0880F991FFC013C
:102C8000EB50FC4FC591D491FC01E15FFB4FA59146
:102C9000B491611109C09FB7F8948881209582236F
:102CA0008883EC912E230BC0623061F49FB7F894B7
:102CB0003881822F809583238883EC912E2B2C934F
:102CC0009FBF06C08FB7F894E8812E2B28838FBF53
:102CD000DF91CF9108951F93CF93DF93182FEB01CE
:102CE00061E00E942F16209711F460E004C0CF3FEE
:102CF000D10539F461E0812FDF91CF911F910C94C0
:102D0000B215E12FF0E0EB54FB4FE4914E2F50E071
:102D1000FA013197E231F10508F09DC08827EF559F
:102D2000FF4F8F4F0C94152484B5806884BDC7BDB8
:102D300097C084B5806284BDC8BD92C08091800078
:102D4000806880938000D0938900C093880088C0F9
:102D500080918000806280938000D0938B00C0932C
:102D60008A007EC080918000886080938000D0932C
:102D70008D00C0938C0074C08091B00080688093F7
:102D8000B000C093B3006CC08091B00080628093AB
:102D9000B000C093B40064C08091900080688093BC
:102DA0009000D0939900C09398005AC080919000F1
:102DB000806280939000D0939B00C0939A0050C093
:102DC00080919000886080939000D0939D00C09384
:102DD0009C0046C08091A00080688093A0008091F4
:102DE000A0008F7B8093A000D093A900C093A8007F
:102DF00037C08091A00080628093A000D093AB0088
:102E0000C093AA002DC08091A00088608093A0008C
:102E1000D093AD00C093AC0023C0809120018068A6
:102E200080932001D0932901C093280119C080917B
:102E30002001806280932001D0932B01C0932A014E
:102E40000FC080912001886080932001D0932D01D4
:102E5000C0932C0105C0C038D1050CF04BCF45CF35
:102E6000DF91CF911F9108953FB7F89480917D072E
:102E700090917E07A0917F07B091800726B5A89B0F
:102E800005C02F3F19F00196A11DB11D3FBFBA2FFC
:102E9000A92F982F8827820F911DA11DB11DBC015C
:102EA000CD0142E0660F771F881F991F4A95D1F721
:102EB00008958F929F92AF92BF92CF92DF92EF923E
:102EC000FF926B017C010E9434174B015C01C1141D
:102ED000D104E104F104F1F00E943417DC01CB01CC
:102EE00088199909AA09BB09883E9340A105B10533
:102EF00070F321E0C21AD108E108F10888EE880ECB
:102F000083E0981EA11CB11CC114D104E104F1049A
:102F100019F7DDCFFF90EF90DF90CF90BF90AF908B
:102F20009F908F9008952FB7F894609179077091D2
:102F30007A0780917B0790917C072FBF0895CF93EC
:102F4000DF93EC0186EA94E00E940D0E0E94931735
:102F50000E94C00F0E9493176AA37BA38CA39DA31A
:102F60008A819B81AC81BD818E879F87A88BB98B1D
:102F7000EAA9FBA96FEF70E0808191810E94190C92
:102F8000EAA9FBA96FEF70E0828193810E94190C7E
:102F9000EAA9FBA96FEF70E084819581DF91CF9161
:102FA0000C94190CCF93DF93EC0184EB94E00E9416
:102FB0000D0E0E9493170E94C00F8DA98823C1F0A7
:102FC0000E9493176E8F7F8F88A399A3EAA9FBA90C
:102FD0006FEF70E0868197810E945708EAA9FBA9EC
:102FE0006FEF70E0808591850E9441081DAA18C08E
:102FF0000E9493176E8F7F8F88A399A3EAA9FBA9DC
:103000006FEF70E0868197810E944108EAA9FBA9D1
:103010006FEF70E0808591850E94570881E08DAB4D
:10302000DF91CF9108950F931F93CF93DF93EC011E
:103030000E9493176EA77FA788AB99ABEAA9FBA95B
:10304000868597850E94380998AF8FAB9C012452E2
:1030500031092930310528F0245131092930310551
:10306000A8F489AD9AAD01969AAF89AF2DAD3EAD6A
:1030700082179307ACF185E195E00E940D0EEAA955
:10308000FBA981E090E0918B808B2AC00197099782
:1030900028F589AD9AAD01969AAF89AF2DAD3EADB9
:1030A00082179307ECF089E295E00E940D0EEAA9E1
:1030B000FBA982E090E0918B808B0E9493170A819C
:1030C0001B812C813D81DC01CB01800F911FA21F50
:1030D000B31F8E839F83A887B98702C01AAE19AE2B
:1030E000DF91CF911F910F910895CF93DF93EC0162
:1030F0000E9493176AA77BA78CA79DA78A819B81B3
:10310000AC81BD818E8B9F8BA88FB98FEAA9FBA95B
:1031100026E930E046E950E066E970E08285938573
:10312000DF91CF910C94A008CF93DF93EC010E9424
:1031300093176EA37FA388A799A78A819B81AC81EF
:10314000BD818A8B9B8BAC8BBD8BDF91CF9108951A
:10315000CF93DF93EC010E9493176AA37BA38CA308
:103160009DA38A819B81AC81BD818E879F87A88B1F
:10317000B98BEAA9FBA940E550E060E070E08081EE
:1031800091810E94AD0AEAA9FBA940E550E062E303
:1031900070E0828193810E94AD0AEAA9FBA940E513
:1031A00050E062E370E084819581DF91CF910C94CF
:1031B000AD0ACF93DF93EC018CA9EAA9FBA9882380
:1031C00059F18DA96FEF70E0882371F086819781A6
:1031D0000E945708EAA9FBA96FEF70E080859185EE
:1031E0000E9441081DAA0EC0868197810E94410855
:1031F000EAA9FBA96FEF70E0808591850E945708CE
:1032000081E08DAB88EC90E0A0E0B0E08A879B87FE
:10321000AC87BD871CAA14C088EE93E0A0E0B0E0A4
:103220008A879B87AC87BD87868197810E945108DA
:10323000EAA9FBA9808591850E94510881E08CABA9
:103240000E9493176E8F7F8F88A399A3DF91CF91F0
:1032500008951F920F920FB60F9211242F933F9350
:103260008F939F93AF93BF938091790790917A0743
:10327000A0917B07B0917C073091780723E0230F62
:103280002D3720F40196A11DB11D05C026E8230F9E
:103290000296A11DB11D2093780780937907909322
:1032A0007A07A0937B07B0937C0780917D0790916C
:1032B0007E07A0917F07B09180070196A11DB11DE7
:1032C00080937D0790937E07A0937F07B09380073C
:1032D000BF91AF919F918F913F912F910F900FBE12
:1032E0000F901F901895CF93DF93CDB7DEB7A597BA
:1032F0000FB6F894DEBF0FBECDBF789484B5826060
:1033000084BD84B5816084BD85B5826085BD85B589
:10331000816085BD80916E00816080936E00109207
:103320008100809181008260809381008091810082
:103330008160809381008091800081608093800013
:103340008091B10084608093B1008091B000816071
:103350008093B00080919100826080939100809171
:1033600091008160809391008091900081608093B2
:1033700090008091A10082608093A1008091A100C3
:1033800081608093A1008091A00081608093A00063
:1033900080912101826080932101809121018160CF
:1033A0008093210180912001816080932001809190
:1033B0007A00846080937A0080917A0082608093A2
:1033C0007A0080917A00816080937A0080917A00FF
:1033D000806880937A001092C100E091BD06F09160
:1033E000BE0682E08083E091B906F091BA061082B1
:1033F000E091BB06F091BC0680E180831092C50687
:10340000E091C106F091C20686E08083E091BF069C
:10341000F091C006808180618083E091BF06F091C9
:10342000C006808188608083E091BF06F091C0066D
:10343000808180688083E091BF06F091C006808122
:103440008F7D808366E070E080916C0790916D07BE
:103450000E94240A67E070E080916A0790916B07F0
:103460000E94240A68E070E08091680790916907E3
:103470000E94240A009166071091670761E086E1C7
:103480000E942F1661E088E10E942F1661E08BE018
:103490000E942F1686E190E0D80111969C938E939E
:1034A00088E190E013969C938E9312978BE090E0C6
:1034B00015969C938E93149700916407109165075D
:1034C00061E087E10E942F1661E089E10E942F16DA
:1034D00061E08CE00E942F1687E190E0F801918373
:1034E000808389E190E0938382838CE090E09583F0
:1034F0008483009162071091630761E082E00E947B
:103500002F1661E083E00E942F1661E085E00E94A3
:103510002F1682E090E0D80111969C938E9383E061
:1035200090E013969C938E93129785E090E0159609
:103530009C938E93149700916007109161071C82F1
:103540001B8288EE93E0A0E0B0E08D839E83AF8382
:10355000B8878AE092E09A838983188E1F8A1A8E30
:10356000198E1C8E1B8E1E8E1D8E6F8D6E7F6D7F35
:103570006F8F6695617081E0682789E00E94B215BF
:1035800061E089E00E942F16E8E7F4E0E491E98B1E
:10359000E2E3F4E0E491F0E0EE0FFF1FE15FFB4FA8
:1035A000859194919B8B8A8B60E08AE00E942F1614
:1035B0008F8D81FD04C061E08AE00E94B2158AE02F
:1035C0008D87E9E7F4E0E491EE87E3E3F4E0E4914A
:1035D000F0E0EE0FFF1FE552FC4F85919491988B20
:1035E0008F878DE991E09E8F8D8F2DEB30E0388FA6
:1035F0002F8B2BE931E03A8F298F2CE231E03C8F81
:103600002B8F209168002160209368002BE630E02A
:103610003D8B2C8B20E12E8B0197F1F78B8D9C8DB0
:10362000FE0131967F01892B09F1E091AB06F09103
:10363000AC06EE15FF05D1F0309739F0A389B489B7
:103640009C918589809589238C938F8D8E7F8F8F18
:103650001092AA061092A906F092AC06E092AB0670
:10366000EC89FD8990818E89892B808383E093E0AA
:103670000E94FB0D80EC93E00E94590F8FE893E0CD
:103680000E94590FDD24D394D8015896DC925897A4
:103690001196FC92EE9216968D919D910D90BC9193
:1036A000A02D8854944FAF4FBF4FF8018683978366
:1036B000A087B18740E050E06CE0C8010E946F072E
:1036C000D8019596DC92C8010E94AB06811106C014
:1036D00060E070E0CB010E945917F5CFF8018681B8
:1036E0009781A085B185885B9B40A109B10986833C
:1036F0009783A087B18768EC70E080E090E00E943B
:103700005917D80194961C92949790968C91843076
:1037100069F08EE793E00E94590F8DE593E00E94D7
:10372000590F80E493E00E94590FFFCF8AE293E0A3
:103730000E94590F8AE092E09A8389838091AB06B8
:103740009091AC068E159F0559F4EC89FD89908106
:103750008E898095892380831092AC061092AB06E7
:10376000A0915E07B0915F07E0E9F4E0E491149660
:10377000EC931497EEE8F4E0E4911596EC9315972A
:103780008AE494E0FC012491E22FF0E0EE0FFF1FA9
:10379000E15FFB4F2591349117963C932E9316973A
:1037A000E8E4F4E0E491F0E0EE0FFF1FE552FC4F97
:1037B0002591349119963C932E931897FC0184918E
:1037C000E82FF0E0EE0FFF1FEB50FC4F8591949136
:1037D0001B969C938E931A9781EC9CE21D969C936A
:1037E0008E931C9781E290E053969C938E93529710
:1037F0008FE190E055969C938E93549760E1862ECE
:1038000067E2962EA12CB12C72E3472E512C612C2D
:10381000712C22242394312C0E9493176B017C017C
:10382000A0915C07B0915D0716964D915D916D91E9
:103830007C91199797018601041B150B260B370BFA
:1038400012964D915D916D917C9115970417150716
:103850002607370708F0ABC05E964D915D916D91DC
:103860007C91919797018601041B150B260B370B52
:103870001A964D915D916D917C911D9704171507D6
:103880002607370740F0ED91FC9111970190F081E8
:10389000E02DCD011995A0915C07B0915D0792963E
:1038A0004D915D916D917C91959797018601041BD7
:1038B000150B260B370B1E964D915D916D917C91EA
:1038C0005197041715072607370740F0ED91FC9133
:1038D00011970280F381E02DCD011995A0915C072D
:1038E000B0915D079A964D915D916D917C919D97F8
:1038F00097018601041B150B260B370B56964D912D
:103900005D916D917C91599704171507260737072C
:1039100040F0ED91FC9111970680F781E02DCD01EB
:103920001995A0915C07B0915D0796964D915D91B8
:103930006D917C91999797018601041B150B260BBD
:10394000370B52964D915D916D917C91559704176F
:1039500015072607370740F0ED91FC911197048079
:10396000F581E02DCD011995A0915C07B0915D071F
:103970009E964D915D916D917C91D197C41AD50A17
:10398000E60AF70A5A964D915D916D917C915D978B
:10399000C416D506E606F70608F4A0C3ED91FC911F
:1039A00011970084F185E02DCD01199597C3ED9114
:1039B000FC9111970284F385E02DCD011995E091DA
:1039C0005A07F0915B073197E730F10508F056C3CD
:1039D0008827E857FF4F8F4F0C9415240E949317A8
:1039E0006B017C0187E390E00E9431248C018CE123
:1039F00092E0D8018D939C9386E093E00E940D0E97
:103A00008AE497E0F80193AB82AB82829382A4822E
:103A1000B582C682D782E086F1868EE591E0A0E08D
:103A2000B0E086879787A08BB18B86E990E0A0E015
:103A3000B0E082879387A487B58788EC90E0A0E008
:103A4000B0E0868B978BA08FB18F84EF91E0A0E0E0
:103A5000B0E0828F938FA48FB58F128A138A148A55
:103A6000158A168E178E10A211A212A213A214A2EA
:103A700015A216A217A210A611A612A613A614A686
:103A800015A616A617A610AA11AA15AA14AA16AA50
:103A900087E090E0E3C00E9493176B017C0186E50C
:103AA00090E00E9431248C0186EB92E0D8018D9346
:103AB0009C9386E193E00E940D0E8AE497E0F80162
:103AC00093AB82AB82829382A482B582C682D78274
:103AD000E086F18688EC90E0A0E0B0E086879787EA
:103AE000A08BB18B4286538664867586468A578A38
:103AF000608E718E84EF91E0A0E0B0E0828F938FB2
:103B0000A48FB58F128A138A148A158A168E178E7F
:103B100010A211A212A213A214A215A216A217A2F9
:103B200010A611A612A613A614A615A616A617A6C9
:103B300010AA11AA81E085AB84AB82E390E095AF37
:103B400084AF17AE16AEE05CFF4F11821082329642
:103B500086E990E0918380833296118210823296BA
:103B6000118210827801F6E3EF0EF11C68012CE35C
:103B7000C20ED11CF9A2E8A2D70116966D917C91D4
:103B800017971C968D919C911D97681B790B77FF59
:103B900003C0719561957109072E000C880B990B74
:103BA0000E94AF226AA37BA38CA39DA3F801668920
:103BB0007789072E000C880B990B0E94AF229B017E
:103BC000AC016AA17BA18CA19DA10E943B236AA3A9
:103BD0007BA38CA39DA3F80186859785A089B189D5
:103BE000BC01CD01660F771F881F991F0E94AD226F
:103BF0009B01AC016AA17BA18CA19DA10E94052221
:103C00000E94A8230E9477221616170624F4D701D3
:103C10006D937C9303C0F70131822082F2E0EF0EB6
:103C2000F11CA8A1B9A18D919C910E943A10F701B5
:103C300084819581918B808BEC14FD0409F09ACFDF
:103C4000F801EE5AFF4F88E290E09183808332962C
:103C500082E090E09183808386E090E090935B0720
:103C600080935A0710935D0700935C0733C20E944C
:103C700093176B017C0186E390E00E9431248C0154
:103C800086E392E0D8018D939C9388E293E00E94B2
:103C90000D0E8AE497E0F80193AB82AB84EC99E0D7
:103CA000A0E0B0E082839383A483B583C682D782E9
:103CB000E086F18680E991E0A0E0B0E0868F978F02
:103CC000A0A3B1A312A613A614A615A612A213A20E
:103CD00014A215A216A217A210A611A616A617A620
:103CE00010AA11AA84EF91E0A0E0B0E08687978740
:103CF000A08BB18B86E490E0A0E0B0E08287938750
:103D0000A487B587168A178A108E118E128E138E8D
:103D1000148E158E128A138A148A158A14AA15AA6B
:103D20009BCF0E9493176B017C0187E390E00E9478
:103D300031248C0186E992E0F801918380838CE341
:103D400093E00E940D0E8AE497E0D801D3969C93ED
:103D50008E93D29788E893E1A0E0B0E0F8018283E7
:103D60009383A483B583C682D782E086F186428698
:103D7000538664867586468A578A608E718E16864B
:103D80001786108A118A128E138E148E158E128A3F
:103D9000138A148A158A168E178E10A211A212A2E7
:103DA00013A214A215A216A217A210A611A612A65B
:103DB00013A614A615A616A617A610AA11AA81E086
:103DC00086AB15AA14AA48CF0E9493176B017C01F9
:103DD0008EE490E00E9431248C0186EA92E0F801A2
:103DE000918380838DE493E00E940D0E8AE497E036
:103DF000D801D3969C938E93D29788E59BE1A0E05F
:103E0000B0E0F80182839383A483B583C682D7820E
:103E1000E086F18684E690E0A0E0B0E0868B978BA8
:103E2000A08FB18F16861786108A118A1286138684
:103E300014861586128E138E148E158E128A138A8E
:103E4000148A158A168E178E10A211A212A213A21E
:103E500014A215A216A217A210A611A612A613A6A6
:103E600014A615A616A617A610AA11AA15AE14AE6A
:103E700086E990E097AF86AFE05CFF4F9183808347
:103E800032961182108232968AE090E0918380838C
:103E90003296918380837801B6E3EB0EF11C3A975A
:103EA000F9A3E8A3D7011696CD90DC9017971C963E
:103EB0008D919C911D97B601681B790B77FF03C00C
:103EC000719561957109072E000C880B990B0E9462
:103ED000AF2220E030E048EC52E40E943B2320E097
:103EE00030EC4AED55E40E9405220E94A8230E946E
:103EF00077221616170624F4F7017183608303C036
:103F0000D7012D923C92F701D38AC28AF2E0EF0EDC
:103F1000F11C28A139A1E216F30621F69DCE0E94DC
:103F200093176B017C0183E490E00E9431248C01A3
:103F300086E892E0D8018D939C9381E693E00E94FD
:103F40000D0E8AE497E0F80193AB82AB82829382F4
:103F5000A482B582C682D782E086F18642865386E5
:103F60006486758689E190E0A0E0B0E0828F938F4F
:103F7000A48FB58F16861786108A118A168A178A1B
:103F8000108E118E128A138A148A158A168E178E35
:103F900010A211A212A213A214A215A216A217A275
:103FA00010A611A612A613A614A615A616A617A645
:103FB00010AA11AA81E085AB82E390E094AF83AFB1
:103FC00036AE25AE85E090E049CE0E9493176B0196
:103FD0007C0183E490E00E9431248C0186EC92E025
:103FE000D8018D939C9384E793E00E940D0E8AE4A0
:103FF00097E0F80193AB82AB82829382A482B58270
:10400000C682D782E086F18688EE93E0A0E0B0E039
:1040100082879387A487B58789E190E0A0E0B0E02C
:10402000828F938FA48FB58F168A178A108E118E68
:10403000128A138A148A158A16861786108A118A9C
:10404000168E178E10A211A212A213A214A215A2EC
:1040500016A217A210A611A612A613A614A615A69C
:1040600016A617A610AA11AA81E085AB84AB82E040
:1040700090E096AF85AF83E090E0F0CD84E390E0F0
:104080000E9431248C0186E492E0D8018D939C93A8
:1040900088E893E00E940D0E8AE497E0F80193AB64
:1040A00082AB1282138214821582168217821086C6
:1040B0001186C8010E94FA0FC8010E94CF0FC801E3
:1040C0000E94080D10935D0700935C0710925B0738
:1040D00010925A078CE993E00E940D0E0E94EF02A5
:1040E0009BCB4F925F926F927F928F929F92AF92F3
:1040F000BF92CF92DF92EF92FF920F931F93CF93D5
:10410000DF93EDEAF6E01382128288EE93E0A0E0FE
:10411000B0E084839583A683B78386E592E091839C
:10412000808385EC90E09587848784EC90E0978786
:10413000868780EC90E0918B808B81EC90E0938B74
:10414000828B82EC90E0958B848B86EC90E0978B51
:10415000868B118E128E138E148E85E090E00E9455
:1041600031245C010E94DA05B0926D07A0926C07C1
:1041700085E090E00E9431246C010E94DA05D09223
:104180006B07C0926A0785E090E00E9431247C01B1
:104190000E94DA05F0926907E092680786E090E0F5
:1041A0000E9431243C01909367078093660786E064
:1041B00090E00E9431244C0190936507809364073E
:1041C00086E090E00E9431242C0190936307809355
:1041D000620786E290E00E943124EC0184EF91E0D6
:1041E000A0E0B0E08E839F83A887B9878AE0E8E2E9
:1041F000F2E0DE01549601900D928A95E1F71E8E51
:1042000082E08F8F1CA21DA2D0936107C09360072C
:1042100088E190E00E94312490935F0780935E07CD
:10422000E2E7F7E0B182A082D382C282F582E48223
:10423000EEE6F7E071826082938282820AE417E000
:10424000F801B182A082D382C282F582E4827782B1
:1042500066829186808653864286D587C4879787F3
:1042600086870E9493176B017C0183E490E00E9493
:104270003124EC0186E892E09983888381E693E01B
:104280000E940D0E1BAB0AAB80E197E2A0E0B0E00C
:104290008A839B83AC83BD83CE82DF82E886F986E6
:1042A00082E390E0A0E0B0E08A879B87AC87BD877F
:1042B00089E190E0A0E0B0E08A8F9B8FAC8FBD8F4A
:1042C0001E861F86188A198A1E8A1F8A188E198EC2
:1042D0001A8A1B8A1C8A1D8A1E8E1F8E18A219A27A
:1042E0001AA21BA21CA21DA21EA21FA218A619A6DA
:1042F0001AA61BA61CA61DA61EA61FA618AA19AAAA
:1043000081E08DAB82E390E09CAF8BAF81E090E0E9
:104310009EAF8DAF85E090E0F801918B808BD38BC1
:10432000C28BDF91CF911F910F91FF90EF90DF90A3
:10433000CF90BF90AF909F908F907F906F905F9045
:104340004F900895052E97FB1EF400940E94B9210A
:1043500057FD07D00E94D42107FC03D04EF40C94E3
:10436000B92150954095309521953F4F4F4F5F4F64
:10437000089590958095709561957F4F8F4F9F4FD1
:1043800008950E94F621A59F900DB49F900DA49FC3
:10439000800D911D11240895B7FF0C94C1210E9436
:1043A000C121821B930B0895A1E21A2EAA1BBB1BED
:1043B000FD010DC0AA1FBB1FEE1FFF1FA217B307F1
:1043C000E407F50720F0A21BB30BE40BF50B661F07
:1043D000771F881F991F1A9469F7609570958095CB
:1043E00090959B01AC01BD01CF010895A29FB00142
:1043F000B39FC001A39F700D811D1124911DB29F19
:10440000700D811D1124911D08950E9419220C9494
:1044100001230E94FA2258F00E94F32240F029F46E
:104420005F3F29F00C94EA2251110C9435230C942F
:10443000F0220E94122368F39923B1F3552391F3DC
:10444000951B550BBB27AA2762177307840738F003
:104450009F5F5F4F220F331F441FAA1FA9F335D060
:104460000E2E3AF0E0E832D091505040E695001C14
:10447000CAF72BD0FE2F29D0660F771F881FBB1FCE
:10448000261737074807AB07B0E809F0BB0B802DAC
:10449000BF01FF2793585F4F3AF09E3F510578F0D8
:1044A0000C94EA220C9435235F3FE4F3983ED4F356
:1044B000869577956795B795F7959F5FC9F7880FAC
:1044C000911D9695879597F90895E1E0660F771FFE
:1044D000881FBB1F621773078407BA0720F0621B8F
:1044E000730B840BBA0BEE1F88F7E09508950E94BA
:1044F0007E226894B1110C94352308950E941A23EA
:1045000088F09F5798F0B92F9927B751B0F0E1F094
:10451000660F771F881F991F1AF0BA95C9F714C044
:10452000B13091F00E943423B1E008950C9434230B
:10453000672F782F8827B85F39F0B93FCCF386957D
:1045400077956795B395D9F73EF4909580957095DA
:1045500061957F4F8F4F9F4F0895E89409C097FB57
:104560003EF490958095709561957F4F8F4F9F4F4A
:104570009923A9F0F92F96E9BB279395F69587958E
:1045800077956795B795F111F8CFFAF4BB0F11F451
:1045900060FF1BC06F5F7F4F8F4F9F4F16C08823F8
:1045A00011F096E911C0772321F09EE8872F762F2E
:1045B00005C0662371F096E8862F70E060E02AF06F
:1045C0009A95660F771F881FDAF7880F969587955B
:1045D00097F9089597F99F6780E870E060E0089583
:1045E0009FEF80EC089500240A941616170618060B
:1045F0000906089500240A941216130614060506E7
:104600000895092E0394000C11F4882352F0BB0F77
:1046100040F4BF2B11F460FF04C06F5F7F4F8F4FDA
:104620009F4F089557FD9058440F551F59F05F3F15
:1046300071F04795880F97FB991F61F09F3F79F0C4
:1046400087950895121613061406551FF2CF469546
:10465000F1DF08C0161617061806991FF1CF8695C8
:104660007105610508940895E894BB2766277727AC
:10467000CB0197F908950E944E230C9401230E94C8
:10468000F32238F00E94FA2220F0952311F00C94C6
:10469000EA220C94F02211240C9435230E94122358
:1046A00070F3959FC1F3950F50E0551F629FF00185
:1046B000729FBB27F00DB11D639FAA27F00DB11D9E
:1046C000AA1F649F6627B00DA11D661F829F222727
:1046D000B00DA11D621F739FB00DA11D621F839FAE
:1046E000A00D611D221F749F3327A00D611D231F84
:1046F000849F600D211D822F762F6A2F11249F57D2
:1047000050409AF0F1F088234AF0EE0FFF1FBB1FD4
:10471000661F771F881F91505040A9F79E3F510593
:1047200080F00C94EA220C9435235F3FE4F3983E2A
:10473000D4F3869577956795B795F795E7959F5F3D
:10474000C1F7FE2B880F911D9695879597F90895CF
:104750000E941A23E8F09E37E8F09639B8F49E38A4
:1047600048F4672F782F8827985FF9CF869577953B
:10477000679593959539D0F3B62FB1706B0F711D76
:10478000811D20F487957795679593950C94CC239C
:104790000C94E7230C943523882371F4772321F0BC
:1047A0009850872B762F07C0662311F499270DC0E8
:1047B0009051862B70E060E02AF09A95660F771F83
:1047C000881FDAF7880F9695879597F908959F3F88
:1047D00031F0915020F4879577956795B795880FBC
:1047E000911D9695879597F90895991B79E004C0D6
:1047F000991F961708F0961B881F7A95C9F7809520
:10480000089597FB072E16F4009407D077FD09D082
:104810000E941D2407FC05D03EF4909581959F4F82
:104820000895709561957F4F0895EE0FFF1F881FC3
:104830008BBF0790F691E02D1994AA1BBB1B51E189
:1048400007C0AA1FBB1FA617B70710F0A61BB70B00
:10485000881F991F5A95A9F780959095BC01CD01A5
:104860000895CF93DF938230910510F482E090E0B9
:10487000E0918507F091860720E030E0C0E0D0E0CD
:10488000309711F14081518148175907C0F04817FE
:10489000590761F482819381209719F09B838A8361
:1048A0002BC0909386078093850726C0211531057C
:1048B00019F04217530718F49A01BE01DF01EF0106
:1048C0000280F381E02DDCCF2115310509F1281B91
:1048D000390B2430310590F412968D919C911397E9
:1048E0006115710521F0FB019383828304C09093CD
:1048F000860780938507FD01329644C0FD01E20FD3
:10490000F31F81939193225031092D933C933AC028
:104910002091830730918407232B41F420910202D8
:104920003091030230938407209383072091000283
:10493000309101022115310541F42DB73EB7409168
:10494000040250910502241B350BE0918307F0917E
:104950008407E217F307A0F42E1B3F0B2817390733
:1049600078F0AC014E5F5F4F2417350748F04E0FCB
:104970005F1F50938407409383078193919302C0F4
:10498000E0E0F0E0CF01DF91CF9108950F931F9306
:10499000CF93DF93009709F48CC0FC013297138208
:1049A000128200918507109186070115110581F487
:1049B00020813181820F931F2091830730918407DA
:1049C0002817390779F5F0938407E093830771C0BE
:1049D000D80140E050E0AE17BF0750F412962D9179
:1049E0003C911397AD012115310509F1D901F3CFA0
:1049F0009D01DA013383228360817181860F971FC5
:104A00008217930769F4EC0128813981260F371F3B
:104A10002E5F3F4F318320838A819B8193838283E2
:104A2000452B29F4F0938607E093850742C013963F
:104A3000FC93EE931297ED01499159919E01240F39
:104A4000351FE217F30771F480819181840F951F60
:104A5000029611969C938E938281938113969C93D8
:104A60008E931297E0E0F0E0D80112968D919C9120
:104A70001397009719F0F8018C01F6CF8D919C9156
:104A800098012E5F3F4F820F931F20918307309133
:104A900084072817390769F4309729F4109286079C
:104AA0001092850702C0138212821093840700932C
:104AB0008307DF91CF911F910F91089581E090E0DE
:0A4AC000F8940C946325F894FFCFDE
:104ACA00000087078000000000006C032803FA0337
:104ADA006B03C003D8035303000000006708C40B2C
:104AEA00000A1109FD03DE087EFF0600010000002E
:104AFA0000EF00000000BE115410D70D360FF30C62
:104B0A00030F00000000FA0FCF0FF20C080DF10C92
:104B1A001B0E00000000280C2803B2026F0CE302EF
:104B2A00C102D50200000000FE032803FA03F903BC
:104B3A00FE03FE03FE0300000000FE032803FA033F
:104B4A00F903000000005D0E750DF40C170D360D0B
:104B5A00300E00000000D2179F17EE14C112531036
:104B6A0078140000000056132511361592125210BF
:104B7A00451400000000EA12AB1012152912AB14FA
:104B8A00121400000000D918A818941875181318E0
:104B9A005A1565786974696E67204A6F792073744B
:104BAA006174650050696E673A2000636D00492799
:104BBA006D20706C6179696E672074686520736F07
:104BCA006E67000D0A00656E746572204A6F79205F
:104BDA00737461746500656E74657220416E6765F1
:104BEA007220737461746500656E7465722044691D
:104BFA00736775737420737461746500656E746588
:104C0A0072204665617220737461746500656E7402
:104C1A006572205361646E65737320737461746581
:104C2A0000656E74657220536561726368207374DF
:104C3A0061746500656E746572204578706C6F7278
:104C4A006520737461746500656E746572204E65C3
:104C5A00757472616C20737461746500656D6F742C
:104C6A00696F6E206368616E676564006578697450
:104C7A00696E67206E65757472616C2073746174F5
:104C8A00650065786974696E672053656172636847
:104C9A00207374617465006D6F746F722061637440
:104CAA00696F6E2073656172636800676F696E670A
:104CBA00206261636B7761726400676F207374723C
:104CCA00616967687420696E207468617420646918
:104CDA0072656374696F6E20756E74696C20616E9B
:104CEA00206F62737461636C6520697320666F75E7
:104CFA006E64206F722074686520736561726368E0
:104D0A0020706572696F642069732066696E6973C1
:104D1A00686564007475726E696E67207269676887
:104D2A00740065786974696E67204469736775737E
:104D3A0074207374617465006C65640073657276BF
:104D4A006F20616374696F6E206E65757472616C31
:104D5A00006D6F746F7220616374696F6E206E6587
:104D6A00757472616C00736572766F206163746921
:104D7A006F6E20006D6F746F7220616374696F6E5D
:104D8A00200065786974696E6720416E67657220D4
:104D9A0073746174650065786974696E672053611C
:104DAA00646E6573732073746174650065786974E1
:104DBA00696E672046656172207374617465006567
:104DCA00786974696E67204578706C6F72652073B4
:104DDA00746174650069276D206368616E67696E26
:104DEA006720696E206A6F790069276D20636861A0
:104DFA006E67696E6720696E20616E676572000072
:00000001FF
