:100000000C947F020C94B0020C94B0020C94B002D9
:100010000C94B0020C94B0020C94B0020C94B00298
:100020000C94B0020C9492070C9492070C949207D3
:100030000C94B0020C94B0020C94B0020C94B00278
:100040000C94B0020C944C060C94B0020C94B002C8
:100050000C94B0020C94B0020C94B0020C940018F2
:100060000C94B0020C94DA0B0C94B00B0C94B0020C
:100070000C94B0020C94B0020C94B0020C94B00238
:100080000C941E060C94B0020C94B0020C94B002B6
:100090000C94B0020C94B0020C94B0020C94B00218
:1000A0000C94B0020C94B0020C94F0050C94B002C5
:1000B0000C94B0020C94B0020C94B0020C94C205E3
:1000C0000C94B0020C94B0020C94B0020C94B002E8
:1000D0000C94B0020C94B0020C94B0020C94B002D8
:1000E0000C94B002F906FD060307F3060307F506B4
:1000F00001070B07030703070307030703070307AA
:10010000030703070607030703070307030703079C
:10011000DA1B141CDD1C1D1D4B1DD41D081E921561
:100120009515841588158C15CC1599159D15A31555
:10013000A715AB15B115B515B915CC15BF15C31558
:10014000C71545164A164F1659166316DC166D1656
:1001500075167D16871691169B16AA16B416DC1610
:10016000BE16C816D2160C941B0B0C94110C0C94D2
:100170008C150C9406070C94270C0C94CD030C944E
:100180004A0C0C94B1150C94A7150C9499150C9469
:10019000EB120C94F3060C94B5150C94A3150C9467
:1001A000AC170C944E0E0C947B170C941E130C94ED
:1001B0000C0B0C94290F0C94DB110C944F160C941F
:1001C000F5060C9417110C9422030C94100C0C944B
:1001D000E0080C94540F0C944A160C9453170C948A
:1001E00087160C94D41D0C94120C0C948C130C9444
:1001F000AB150C94D2160C94AD080C946A100C94A8
:10020000081E0C94F9060C940B070C942B140C94F8
:1002100001070C94D4130C9403070C94B20A0C94A9
:10022000BE160C942F0B0C943B030C9436080C94C4
:1002300088150C941D1D0C9459160C94AB100C943D
:100240009D150C94F8130C946D160C94C3150C9416
:10025000CC150C9484150C9492150C94BF150C9429
:1002600085090C946F110C943A030C94FE0F0C94B6
:1002700091160C943B0C0C94C8030C94B2020C9491
:10028000FD0F0C94600D0C9475160C94B4160C9420
:10029000CC030C94FD060C94DA1B0C94DD1C0C941E
:1002A0002B170C94F7020C9467170C94A7030C946B
:1002B000470B0C94B9150C948F030C9497120C9463
:1002C000C8160C94DC160C94C7150C94141C0C94D2
:1002D0006D0F0C947D0C0C9445160C94C9030C9472
:1002E00051130C94DF0C0C94FA0D0C948E0B0C949F
:1002F00063160C94A5140C94E50D0C947D160C94C7
:10030000AA160C9446110C94B8120C9495150C94E2
:100310004B1D0C94FF0F0C94B0130C949B160C9473
:10032000741E0C941B0E0C94130C00002000230070
:10033000260029002C002F003200000100000301DC
:10034000060109014446506C61796572204D696E61
:1003500069206F6E6C696E652E00322E506C65617F
:10036000736520696E7365727420746865205344E8
:1003700020636172642100312E506C6561736520C9
:100380007265636865636B2074686520636F6E6E69
:10039000656374696F6E2100556E61626C652074CF
:1003A0006F20626567696E3A00496E697469616CB5
:1003B000697A696E67204446506C61796572202EB7
:1003C0002E2E20284D61792074616B6520337E3597
:1003D000207365636F6E647329004446526F626FC9
:1003E00074204446506C61796572204D696E6920B5
:1003F00044656D6F0000002100240027002A002DB5
:10040000003000330001010000040107010A01006F
:10041000002200250028002B002E003100340002AD
:10042000010000050108010B010505050507050888
:10043000080808020202020A0A0808040404040167
:100440000101010101010103030303030303030489
:100450000707070C0C0C0C0C0C0C0C020202020619
:10046000060606060606060B0B0B0B0B0B0B0B0109
:1004700002102020080810204010204080020102B5
:10048000010804020101020408102040808040207D
:1004900010080402018004020180402010080402B8
:1004A0000108040201010204081020408001020436
:1004B000081020408000000A0B02090C0D0E0807EE
:1004C0000304010000000000000000000000000024
:1004D000000000000000000000000000000000001C
:1004E00000121110000000000000000000000000D9
:1004F000000000000000000000000000741E112435
:100500001FBECFEFD1E2DEBFCDBF00E00CBF14E0D5
:10051000A0E0B2E0E4E8F6E400E00BBF02C0079020
:100520000D92AC38B107D9F726E0ACE8B4E001C0D1
:100530001D92AD3CB207E1F712E0CFE7D2E000E058
:1005400006C021970109802FFE010E94F221CE37BB
:10055000D10780E00807A9F70E948F180C94402368
:100560000C940000FC01918D228D892F90E0805C1D
:100570009F4F821B91098F739927089580E090E027
:10058000892B21F00E943D0B811125C080E090E075
:10059000892B41F080E090E0892B21F00E9400003F
:1005A00081111CC080E090E0892B41F080E090E058
:1005B000892B21F00E940000811113C080E090E09F
:1005C000892BA1F080E090E0892B81F00E9400004F
:1005D00081110AC008950E940000D8CF0E94000037
:1005E000E1CF0E940000EACF0C9400000895CF9262
:1005F000DF92EF92FF920F931F93CF93DF936C01E3
:100600007A018B01C0E0D0E0CE15DF0589F0D8017A
:100610006D918D01D601ED91FC910190F081E02D5D
:10062000C6011995892B11F47E0102C02196ECCFE9
:10063000C701DF91CF911F910F91FF90EF90DF9055
:10064000CF9008952091D3043091D404281739070E
:1006500071F49091D1048091D204981741F0E09107
:10066000D104F0E0E457FB4F808190E008958FEFD4
:100670009FEF089508951F93CF93DF93DC015C965D
:100680002D913C915D972115310539F481E090E081
:1006900013969C938E9312973DC05196ED91FC91C9
:1006A000529750969C915097892F80951FB75E96D0
:1006B0004C915E9741FB772770F941FD6095F89466
:1006C0004081772311F0492B01C048234083E90181
:1006D0002197F1F748E0508160FF02C0592B01C01B
:1006E00058235083E9012197F1F76695415099F716
:1006F000772321F090818923808303C08081982B08
:1007000090831FBF5C968D919C915D970197F1F747
:1007100021E030E0C901DF91CF911F910895209130
:10072000D3043091D4042817390771F48091D2048E
:100730002091D10490E0805C9F4F821B910960E47E
:1007400070E00E94DE21089580E090E008952091FD
:10075000D3043091D40428173907B9F49091D10407
:100760008091D204981789F0E091D104F0E0E45729
:10077000FB4F80812091D10430E02F5F3F4F2F73DA
:1007800033272093D10490E008958FEF9FEF0895D1
:10079000089580E090E0089508950E943B23CF9251
:1007A000DF92EF92FF920F931F93CF93DF936C0131
:1007B0008B017A01EC01C453DB4F888187FF04C0B1
:1007C000FB011182108223C08CE08C9D90018D9DD5
:1007D000300D11248881A901480F511D87FD5A95BC
:1007E0008091D00490E0481759078CF48881A901C2
:1007F000480F511D87FD5A9586E0849FF001859F23
:10080000F00D1124EB52FB4F908196FD19C08881A9
:100810008F5F88838CE08C9D90018D9D300D11241D
:100820008881A901480F511D87FD5A958091D004F8
:1008300090E048175907B4F488818C3034F112C025
:100840009881290F311D97FD3A95829FF001839F72
:10085000F00D1124EB52FB4F808160E08F730E94FA
:100860006315D5CFF8018081918184349C4918F4B7
:1008700080E49CE904C0F801808191810496F7012D
:10088000918380838FEF88833AC18881A901480FC3
:10089000511D87FD5A9586E0849FF001859FF00DDC
:1008A0001124EB52FB4F9581992309F4E7C048814D
:1008B0009881B901640F711D47FD7A95869FD0011B
:1008C000879FB00D1124AB52BB4FA901490F511D99
:1008D00097FD5A95849FF001859FF00D1124EB52EE
:1008E000FB4F13966D917C911497418152819881B1
:1008F0004617570708F04FC04881F901E40FF11D72
:1009000047FDFA95AF01849FF001859FF00D1124FA
:10091000EB52FB4FA901490F511D97FD5A95849F3A
:10092000D001859FB00D1124AB52BB4F15969C9101
:1009300041815281490F511D5283418348819881E1
:10094000B901640F711D47FD7A95869FD001879F7D
:10095000B00D1124AB52BB4FA901490F511D97FD9A
:100960005A95849FF001859FF00D1124EB52FB4FA7
:1009700013966D917C9114974181528146175707C8
:1009800008F47CC048819881F901E40FF11D47FD0E
:10099000FA95AF014CC04881B901640F711D47FD44
:1009A0007A95869FF001879FF00D1124EB52FB4F43
:1009B000A901490F511D97FD5A95849FD001859F2C
:1009C000B00D1124AB52BB4F15969C9141815281C1
:1009D000491B51095283418348819881F901E40FF1
:1009E000F11D47FDFA958E9FD0018F9FB00D112408
:1009F000AB52BB4FA901490F511D97FD5A95849FDA
:100A0000F001859FF00D1124EB52FB4F13966D9171
:100A10007C911497418152816417750778F1488160
:100A20009881B901640F711D47FD7A95AB01849FD0
:100A3000F001859FF00D1124EB52FB4FA901490FE6
:100A4000511D97FD5A95849FD001859FB00D1124AB
:100A5000AB52BB4F13964D915C91149752834183D7
:100A60009881A901490F511D97FD5A95849FF00166
:100A7000859FF00D1124EB52FB4F1582F801608128
:100A800071818881A901480F511D87FD5A9586E023
:100A9000849FF001859FF00D1124EB52FB4F4181A3
:100AA0005281460F571FF701518340839881A90156
:100AB000490F511D97FD5A95849FF001859FF00DB8
:100AC0001124EB52FB4F908196FF19C09881290F9A
:100AD000311D97FD3A95829FF001839FF00D1124FF
:100AE000EB52FB4F808161E08F73DF91CF911F91BB
:100AF0000F91FF90EF90DF90CF900C946315DF91F2
:100B0000CF911F910F91FF90EF90DF90CF900895BC
:100B1000FC01848DDF01A80FB11DA35ABF4F2C919A
:100B2000848D90E001968F739927848FA689B78969
:100B30002C93A089B1898C9180648C93938D848D42
:100B4000981306C00288F389E02D80818F7D808311
:100B50000895E091D004E03388F421E02E0F209333
:100B6000D004DC01EC93B6E0EB9FF0011124EB52D2
:100B7000FB4F88EB9BE09283818308952FEFFC016C
:100B8000208308951F920F920FB60F9211240BB677
:100B90000F922F933F934F935F936F937F938F9316
:100BA0009F93AF93BF93EF93FF9348E251E064E2CA
:100BB00071E080E090E00E94CF03FF91EF91BF9140
:100BC000AF919F918F917F916F915F914F913F91E5
:100BD0002F910F900BBE0F900FBE0F901F90189586
:100BE0001F920F920FB60F9211240BB60F922F93F4
:100BF0003F934F935F936F937F938F939F93AF93A5
:100C0000BF93EF93FF9348EA50E064EA70E083E01B
:100C100090E00E94CF03FF91EF91BF91AF919F9120
:100C20008F917F916F915F914F913F912F910F9095
:100C30000BBE0F900FBE0F901F9018951F920F9232
:100C40000FB60F9211240BB60F922F933F934F9331
:100C50005F936F937F938F939F93AF93BF93EF9324
:100C6000FF9348E950E064E970E082E090E00E9480
:100C7000CF03FF91EF91BF91AF919F918F917F91A2
:100C80006F915F914F913F912F910F900BBE0F90FD
:100C90000FBE0F901F9018951F920F920FB60F92D4
:100CA00011240BB60F922F933F934F935F936F9343
:100CB0007F938F939F93AF93BF93EF93FF9348E8F6
:100CC00050E064E870E081E090E00E94CF03FF9183
:100CD000EF91BF91AF919F918F917F916F915F91B4
:100CE0004F913F912F910F900BBE0F900FBE0F9021
:100CF0001F9018950F931F93CF93DF93EC0188817A
:100D00009981DC01ED91FC910084F185E02D19952C
:100D1000892B09F48CC060E070E0CB010E94E516DD
:100D20001E8D88819981DC01ED91FC910284F3850F
:100D3000E02D111107C019958A878E3701F71CA283
:100D40008E8D72C01995FE01E10FF11D82878E8D87
:100D5000823079F0893091F0813009F065C09B854F
:100D60009F3F09F461C01E8E81E088A31BA21AA2D6
:100D70007DC09C85963009F457C0F5CF8B898F3E96
:100D800091F7FE013B96CE01419620E030E0419183
:100D9000240F311DE817F907D1F7898990E0982FC2
:100DA00088273195219531094A89840F911D28178B
:100DB0003907C9F61E8EED85E9A32F8530E0322F65
:100DC00022278889280F311D3BA32AA38E2F90E06C
:100DD000FC01FA97E631F105C8F48827EE58FF4F79
:100DE0008F4F0C94F22185E00DC021FF15C084E0E7
:100DF00009C021FF11C082E005C021FF0DC083E0C2
:100E000001C086E088A381E08CA306C081E088A3AE
:100E10001BA21AA28CA31DA28CA1882351F1988D2C
:100E2000911127C01DA225C08F5F8E8F68CF8DA125
:100E30008823A9F00E941F170A811B812C813D8104
:100E4000DC01CB01801B910BA20BB30B0E811F8128
:100E50002885398580179107A207B30710F48CA164
:100E600008C01E8E18A21BA21AA281E08CA31DA28C
:100E700080E0DF91CF911F910F9108950F931F9301
:100E8000CF93DF93EC016F8B598F4A8F8C010C5EEF
:100E90001F4FFC0175969C01255E3F4F80E090E05E
:100EA0004191840F911DE217F307D1F79195819538
:100EB00091099B8F8C8F888D882361F08DA1882369
:100EC00079F060E070E0CB010E94E516CE010E944F
:100ED0007A06F4CF6AE070E080E090E00E94E516C8
:100EE00088819981DC01ED91FC910280F381E02DF4
:100EF0004AE050E0B80119950E941F176A837B836E
:100F00008C839D8381E0988D911101C080E08DA339
:100F1000DF91CF911F910F91089540E050E066E17D
:100F20000C943E071F920F920FB60F9211240BB62E
:100F30000F922F933F934F935F936F937F938F9372
:100F40009F93AF93BF93EF93FF93E091D304F091FE
:100F5000D404309709F451C0968DA685B785858550
:100F600091FF04C09C91892329F447C09C91892357
:100F700009F043C0A389B4899C9185898095892310
:100F80008C93868997890197F1F7608D718DA6857D
:100F9000B785558538E020E0CB010197F1F7822F26
:100FA00090E095958795282F4C91452309F020686E
:100FB000315091F7868D81FD20958091D20490E08B
:100FC00001968F7399273091D104381749F0A09179
:100FD000D204B0E0A457BB4F2C938093D20403C03B
:100FE000868D8160868F828D938D0197F1F7A3891D
:100FF000B4899C918589892B8C93FF91EF91BF9146
:10100000AF919F918F917F916F915F914F913F91A0
:101010002F910F900BBE0F900FBE0F901F90189541
:10102000CF93DF93EC018C810E941C1661E08881D4
:101030000E94631560E08A81DF91CF910C94631563
:1010400060E070E0FC0184810C941C16CF93DF9368
:10105000EC018C810E941C1660E088810E9463155F
:1010600061E08A81DF91CF910C946315CF93DF9378
:10107000EC018DA98823C1F00E941F176E8F7F8F0E
:1010800088A399A3EAA9FBA96FEF70E086819781F5
:101090000E942608EAA9FBA96FEF70E08085918580
:1010A0000E9410081DAA18C00E941F176E8F7F8F04
:1010B00088A399A3EAA9FBA96FEF70E086819781C5
:1010C0000E941008EAA9FBA96FEF70E08085918566
:1010D0000E94260881E08DABDF91CF910895EF92B9
:1010E000FF920F931F93CF93DF937C018A01E90155
:1010F0006639710534F4161617062CF060E070E0BE
:1011000002C066E970E00639110534F410161106C4
:101110002CF000E010E002C006E910E0C639D1056D
:1011200034F41C161D062CF0C0E0D0E002C0C6E965
:10113000D0E0F70180810E941C16B801F70182817E
:101140000E941C16BE01F7018481DF91CF911F918F
:101150000F91FF90EF900C941C16CF93DF93EC014E
:10116000EAA9FBA9868197810E942008EAA9FBA928
:10117000808591850E942008EAA9FBA920E030E043
:1011800040E050E060E070E0828593850E946F0847
:10119000EAA9FBA9848595850E948D07209769F0AF
:1011A0008CE192E09983888382ED92E00E94D70DD2
:1011B000CE01DF91CF910C94A322DF91CF910895BE
:1011C000CF93DF93EC010E941F176AA77BA78CA720
:1011D0009DA78EA9EAA9FBA920E030E0882351F061
:1011E00046E950E066E970E0828593850E946F08C9
:1011F0001EAA0AC040E050E060E070E0828593855E
:101200000E946F0881E08EABDF91CF9108950F931C
:101210001F93CF93DF93EC0160E088810E946315F8
:1012200083E090E00197F1F761E088810E94631507
:1012300083E290E00197F1F760E088810E946315F6
:101240002A813B813327F901E159FB4F6491F90170
:10125000E75DFB4FE491F0E0EE0FFF1FE65DFC4F12
:101260008591949100E412E42FE030E0462F0E9433
:101270004A18611571058105910539F0DC01CB0132
:101280000196A11DB11DBF7003C080E090E0DC019C
:101290009D838C83BC01990F880B990B0E948C2035
:1012A00026E933E44BE05DE30E94182120E030E0C2
:1012B00040E05FE30E9418210E9454207F836E83E8
:1012C00084EE92E00E94840D8E819F810E94C40F63
:1012D0008E819F81DF91CF911F910F9108950F9380
:1012E0001F93CF93DF938C01EB018FEE92E00E946E
:1012F000D70DCE010E94C40FAE0163E0C801DF919B
:10130000CF911F910F910C943E07CF93DF93EC0187
:101310000E941F176EA37FA388A799A78A819B812C
:10132000AC81BD818A8B9B8BAC8BBD8BEAA9FBA961
:101330004EE150E066E0848595850E943E07EAA96B
:10134000FBA967E070E084859585DF91CF910C94CF
:101350006F098F929F92AF92BF92CF92DF92EF92DE
:10136000FF921F93CF93DF93EC01DB01F42E8B816F
:10137000882339F0A456B109B7FF03C0B195A195F0
:10138000B1091881FF2009F471C0A03232E0B3071F
:10139000E4F5B7FD06C0A53BB1052CF0A4EBB0E029
:1013A00002C0A0E0B0E0898128E830E04901881A55
:1013B000910887FD9394880C991C880C991C092C22
:1013C000000CAA08BB088A8128E532E0281B3109F5
:1013D00087FD3395220F331F220F331FA901330FCF
:1013E000660B770B9A01AB01281939094A095B0989
:1013F0000E94A91F24EB30E040E050E00E947F1FD4
:10140000820E931EA41EB51ED401103308F09EC098
:10141000298188E890E0821B910927FD9395880F28
:10142000991F880F991FA817B90784F08A8128E5AA
:1014300032E0281B310987FD3395220F331F220F1D
:10144000331FCD012A173B070CF4C9012FB7F894BD
:1014500036E0139FE0011124CB52DB4F0297880F37
:10146000991F9C838B83FD822FBF70C0A03282E0C6
:10147000B807E4F5B7FD06C0A53BB1052CF0A4EB19
:10148000B0E002C0A0E0B0E0898128E830E0690166
:10149000C81AD10887FDD394CC0CDD1CCC0CDD1C04
:1014A0000D2C000CEE08FF088A8128E532E0281B8D
:1014B000310987FD3395220F331F220F331FA901F6
:1014C000330F660B770B9A01AB012C193D094E09BE
:1014D0005F090E94A91F24EB30E040E050E00E9429
:1014E0007F1FC20ED31EE41EF51ED601103370F509
:1014F000898128E830E0281B310987FD3395220FC8
:10150000331F220F331FA217B30784F02A8188E507
:1015100092E0821B910927FD9395880F991F880FF0
:10152000991F9D018A179B070CF49C018FB7F894B3
:1015300096E0199FE0011124CB52DB4F2250310974
:10154000220F331F3A8329838FBF1D82DF91CF91F2
:101550001F91FF90EF90DF90CF90BF90AF909F9042
:101560008F900895CF93DF93EC018CA9882331F1FC
:101570000E941F176AA37BA38CA39DA3EAA9FBA9C2
:1015800048E250E06DE270E0808191810E94A909FB
:10159000EAA9FBA948E250E06DE270E08281938104
:1015A0000E94A909EAA9FBA948E250E06DE270E0B7
:1015B000848195810E94A9091CAA26C00E941F1738
:1015C0006AA37BA38CA39DA3EAA9FBA948E250E0F0
:1015D00060E570E0808191810E94A909EAA9FBA9D8
:1015E00048E250E060E570E0828193810E94A909A1
:1015F000EAA9FBA948E250E060E570E084819581AA
:101600000E94A90981E08CABDF91CF910895AB01D5
:1016100064E670E00C94A909FC01538D448D252FDC
:1016200030E0842F90E0821B930B541710F0CF967C
:10163000089501970895FC01918D828D981761F0AE
:10164000828DDF01A80FB11D5D968C91928D9F5FF9
:101650009F73928F90E008958FEF9FEF0895FC01A4
:10166000918D828D981731F0828DE80FF11D858D57
:1016700090E008958FEF9FEF089585EF95E00E9429
:10168000B20221E0892B09F420E0822F0895EF9225
:10169000FF920F931F93CF93DF93EC0181E0888F2C
:1016A0009B8D8C8D981305C0E889F989808185FD13
:1016B00024C0F62E0B8D10E00F5F1F4F0F73112704
:1016C000E02E8C8DE8120CC00FB607FCFACFE8892B
:1016D000F989808185FFF5CFCE010E948805F1CF81
:1016E0008B8DFE01E80FF11DE35AFF4FF0820B8F47
:1016F000EA89FB898081806207C0EE89FF89608367
:10170000E889F98980818064808381E090E0DF91BD
:10171000CF911F910F91FF90EF900895CF93DF939A
:10172000EC01888D8823C9F0EA89FB89808185FDD9
:1017300005C0A889B9898C9186FD0FC00FB607FC3A
:10174000F5CF808185FFF2CFA889B9898C9185FF7B
:10175000EDCFCE010E948805E7CFDF91CF910895AC
:101760001F920F920FB60F9211240BB60F922F9368
:101770003F934F935F936F937F938F939F93AF9319
:10178000BF93EF93FF9385EF95E00E948805FF914B
:10179000EF91BF91AF919F918F917F916F915F91E9
:1017A0004F913F912F910F900BBE0F900FBE0F9056
:1017B0001F9018951F920F920FB60F9211240BB61F
:1017C0000F922F938F939F93EF93FF93E0910506D2
:1017D000F09106068081E0910B06F0910C0682FDE7
:1017E00012C0908180910E068F5F8F7320910F063B
:1017F000821751F0E0910E06F0E0EB50FA4F958F12
:1018000080930E0601C08081FF91EF919F918F918F
:101810002F910F900BBE0F900FBE0F901F90189539
:10182000089508950895CF93DF93EC010E941F1748
:101830006AA77BA78CA79DA78A819B81AC81BD816C
:101840008E8B9F8BA88FB98FDF91CF910895CF9307
:10185000DF93EC010E941F176EA37FA388A799A7AF
:101860008A819B81AC81BD818A8B9B8BAC8BBD8B2C
:10187000DF91CF910895DC01D296ED91FC91D39741
:1018800020E030E040E050E060E070E08285938549
:101890000C946F08CF93DF93EC010E941F176EA783
:1018A0007FA788AB99ABEAA9FBA9868597850E949B
:1018B000070998AF8FAB2BAD3CAD82179307C4F4EB
:1018C00018161906ACF48DAD9EAD9AAF89AF892B71
:1018D00089F0EAA9FBA981E090E0918B808B8A8155
:1018E0009B81AC81BD818E839F83A887B98702C00D
:1018F0001AAE19AEDF91CF9108950F931F93CF9336
:10190000DF93EC010E941F170E811F812885398506
:10191000DC01CB01801B910BA20BB30BEAA9FBA945
:10192000883E9340A105B105D8F460E570E0808160
:1019300091810E94070BEAA9FBA960E570E0828112
:1019400093810E94070BEAA9FBA960E570E08481FE
:1019500095810E94070B88EE93E0A0E0B0E020C0E4
:1019600040E550E064E170E0808191810E94A90926
:10197000EAA9FBA940E550E06EE170E08281938125
:101980000E94A909EAA9FBA940E550E06EE170E0D8
:10199000848195810E94A9098A819B81AC81BD8146
:1019A0008E879F87A88BB98B0E941F176AA37BA382
:1019B0008CA39DA3DF91CF911F910F9108950F9359
:1019C0001F93CF93DF93EC010E941F170E811F819D
:1019D00028853985DC01CB01801B910BA20BB30B51
:1019E000843F9140A105B105A8F4EAA9FBA96FEFD6
:1019F00070E0868197810E941008EAA9FBA96FEF29
:101A000070E0808591850E94100884EF91E0A0E04D
:101A1000B0E047C00E941F170E811F8128853985BD
:101A2000DC01CB01801B910BA20BB30B843F9140D7
:101A3000A105B10588F0EAA9FBA96FEF70E08681E6
:101A400097810E942608EAA9FBA96FEF70E08085C4
:101A500091850E94100829C00E941F170E811F81C6
:101A600028853985DC01CB01801B910BA20BB30BC0
:101A7000883E9340A105B105C0F0EAA9FBA96FEF2C
:101A800070E0868197810E942608EAA9FBA96FEF82
:101A900070E0808591850E9426088A819B81AC81B7
:101AA000BD818A879B87AC87BD870E941F176E8F79
:101AB0007F8F88A399A3DF91CF911F910F910895F4
:101AC000CF93DF93EC010E941F176EA37FA388A71B
:101AD00099A78A819B81AC81BD818A8B9B8BAC8BC2
:101AE000BD8BEAA9FBA94EE150E066E084859585AF
:101AF0000E943E07EAA9FBA965E070E08485958510
:101B0000DF91CF910C946F09009769F0FC0101906F
:101B10000020E9F73197AF01481B590BBC0185EF55
:101B200095E00C94F70280E090E008958F929F92E8
:101B3000AF92BF920F931F93CF93DF93CDB7DEB7D2
:101B4000A1970FB6F894DEBF0FBECDBF19A24230E9
:101B500008F44AE08E010F5D1F4F842E912CA12CBA
:101B6000B12CA50194010E94B11FE62FB901CA0151
:101B700001501109EA3014F4E05D01C0E95CD801BC
:101B8000EC93232B242B252B61F7C8010E94840D95
:101B9000A1960FB6F894DEBF0FBECDBFDF91CF91F7
:101BA0001F910F91BF90AF909F908F900895CF930A
:101BB000DF930E94840DEC0184E093E00E94840D89
:101BC0008C0F9D1FDF91CF910895CF93DF930097E6
:101BD00071F0EC0186E492E0998388838DEA93E0CA
:101BE0000E94D70DCE01DF91CF910C94A322DF91FB
:101BF000CF910895CF93DF93EC01EAA9FBA98681E9
:101C000097810E942008EAA9FBA9808591850E94FE
:101C10002008209769F086E892E09983888383EC16
:101C200093E00E94D70DCE01DF91CF910C94A322B7
:101C3000DF91CF910895CF93DF93EC01EAA9FBA93F
:101C4000868197810E942008EAA9FBA98085918559
:101C50000E942008EAA9FBA920E030E040E050E023
:101C600060E070E0828593850E946F08EAA9FBA975
:101C7000848595850E948D07209769F086E392E020
:101C80009983888388ED93E00E94D70DCE01DF9180
:101C9000CF910C94A322DF91CF910895CF93DF933E
:101CA000EC010E941F176AA77BA78CA79DA78A81BA
:101CB0009B81AC81BD818E8B9F8BA88FB98F8EEE5F
:101CC00093E00E94D70DEAA9FBA920E030E046E9A5
:101CD00050E060E070E082859385DF91CF910C94B5
:101CE0006F080F931F93CF93DF938C01C0E0D0E078
:101CF000F801EC0FFD1F6491662371F0E091F5058A
:101D0000F091F6050190F081E02D85EF95E01995B1
:101D1000892B11F02196ECCF84E093E00E94840D92
:101D20008C0F9D1FDF91CF911F910F9108951F93ED
:101D3000CF93DF93EC01162F8881803308F049C0E0
:101D400061E0812F0E94E015888196E0899FF00173
:101D50001124EB52FB4F1F739081907C192B108341
:101D600019821A826CE00E94D2219CE0899FA00116
:101D7000112420E030E096E0B901640F751F969FB2
:101D8000F001979FF00D1124EB52FB4F608166FD2F
:101D900016C02F5F3F4F2C30310571F78130F1F4C1
:101DA0001092800082E08093810010928500109252
:101DB0008400B19A80916F00826080936F00E88107
:101DC00086E0E89FF0011124EB52FB4F8081806494
:101DD00080838881DF91CF911F910895823061F4D3
:101DE00010929000809391001092950010929400B0
:101DF00088BB80937100E3CF833069F41092A00018
:101E000082E08093A1001092A5001092A40089BBEB
:101E100080937200D4CF8111D2CF1092200182E042
:101E20008093210110922501109224018ABB809396
:101E30007300C5CFCF93DF934AE00E94960DEC016B
:101E400084E093E00E94840D8C0F9D1FDF91CF9161
:101E50000895CF93DF93EC0182EF93E00E94D70DBA
:101E60000E941F170E941A0FEAA9FBA94EE150E039
:101E700067E370E0808191810E94A909EAA9FBA92A
:101E80004EE150E067E370E0828193810E94A909EE
:101E9000EAA9FBA94EE150E067E370E084819581F7
:101EA000DF91CF910C94A909CF93DF93EC0187E0E8
:101EB00094E00E94D70D0E941F170E941A0FEAA9F2
:101EC000FBA9868197810E942008EAA9FBA9808549
:101ED0009185DF91CF910C9420080F931F93CF939E
:101EE000DF93EC018CE194E00E94D70D0E941F1754
:101EF0000E941A0F0E941F170E811F8128853985A5
:101F0000DC01CB01801B910BA20BB30B843F9140F2
:101F1000A105B105B8F0EAA9FBA942E350E060E0F1
:101F200070E0808191810E94A9098A819B81AC81A6
:101F3000BD818AA39BA3ACA3BDA3DF91CF911F91C9
:101F40000F9108950E941F176AA37BA38CA39DA3E2
:101F5000EAA9FBA96EE170E0808191810E94070BE4
:101F6000EAA9FBA96EE170E0828193810E94070BD0
:101F7000EAA9FBA96EE170E084819581DF91CF91A0
:101F80001F910F910C94070BCF92DF92EF92FF926B
:101F9000CF93DF936C01990FEE08FF08F7FE1AC08C
:101FA000E091F505F091F6050190F081E02D6DE2EC
:101FB00085EF95E01995EC0166277727CB016C1921
:101FC0007D098E099F094AE00E94960D7C01EC0E66
:101FD000FD1E06C04AE0C701B6010E94960D7C01B5
:101FE00084E093E00E94840D8E0D9F1DDF91CF91C0
:101FF000FF90EF90DF90CF900895089508950F938C
:102000001F93CF93DF93EC018AE294E00E94D70DF7
:102010000E941F170E941A0F0E941F170E811F8116
:1020200028853985DC01CB01801B910BA20BB30BFA
:10203000853F9140A105B105A0F58DA98823C1F088
:102040000E941F176E8F7F8F88A399A3EAA9FBA90F
:102050006FEF70E0868197810E942608EAA9FBA9AC
:102060006FEF70E0808591850E9410081DAA2DC039
:102070000E941F176E8F7F8F88A399A3EAA9FBA9DF
:102080006FEF70E0868197810E941008EAA9FBA992
:102090006FEF70E0808591850E94260881E08DAB0E
:1020A00014C0EAA9FBA96FEF70E0868197810E94B6
:1020B0001008EAA9FBA96FEF70E080859185DF9198
:1020C000CF911F910F910C941008DF91CF911F9128
:1020D0000F910895CF93DF93EC018AE294E00E9480
:1020E000D70D0E941F170E941A0F8DA98823C1F0D7
:1020F0000E941F176E8F7F8F88A399A3EAA9FBA95F
:102100006FEF70E0868197810E942608EAA9FBA9FB
:102110006FEF70E0808591850E9410081DAA18C09D
:102120000E941F176E8F7F8F88A399A3EAA9FBA92E
:102130006FEF70E0868197810E941008EAA9FBA9E1
:102140006FEF70E0808591850E94260881E08DAB5D
:10215000DF91CF9108950F931F93CF93DF93EC01FD
:102160009C01275B3F4FF901608171813697808127
:1021700091818E01055B1F4FDE01A35BBF4F681786
:1021800079075CF1F80140815181CE018B5B9F4F53
:10219000FC018081918148175907FCF04D915C91B9
:1021A0001197CE01895B9F4FFC0180819181481777
:1021B00059079CF08DAD9EADF90191838083CE01CE
:1021C000CF96FC0180819181F801918380833A97B9
:1021D000808191818D939C931FC02D913C91F8013A
:1021E00040815181EAA9FBA9828593850E946F08ED
:1021F000FE01F7969E01235C3F4FDF013296529617
:102200004D915C9153978D919C91840F951F918B6B
:10221000808BE217F30789F70E941F176AA77BA735
:102220008CA79DA7DF91CF911F910F910895CF9318
:10223000DF93EC010E941F176AA77BA78CA79DA7BD
:10224000FE01E45BFF4F2081318132974081518153
:10225000329760817181EAA9FBA9828593850E94EA
:102260006F08FE01F696EC96DF01329652968D913C
:102270009C9153972D913C91821B930B918B808B5A
:10228000EC17FD0789F7DF91CF910895CF93DF9386
:10229000EC010E941F176AA77BA78CA79DA78EA998
:1022A000EAA9FBA9882361F026E930E040E050E08C
:1022B00066E970E0828593850E946F081EAA0CC0B3
:1022C00020E030E040E050E060E070E082859385FF
:1022D0000E946F0881E08EABDF91CF9108950F933C
:1022E0001F93CF93DF93EC010E941F170E811F8174
:1022F00028853985DC01CB01801B910BA20BB30B28
:10230000813D9740A105B105D0F40E941F176E8F43
:102310007F8F88A399A3EAA9FBA96FEF70E086815C
:1023200097810E942608EAA9FBA96FEF70E08085DB
:102330009185DF91CF911F910F910C94100880E946
:1023400091E0A0E0B0E08A879B87AC87BD878DA92C
:102350008823C1F00E941F176E8F7F8F88A399A3D7
:10236000EAA9FBA96FEF70E0868197810E94260899
:10237000EAA9FBA96FEF70E0808591850E9426088D
:102380001DAA14C00E941F176E8F7F8F88A399A368
:10239000EAA9FBA9868197810E942008EAA9FBA9E6
:1023A000808591850E94200881E08DABDF91CF91DF
:1023B0001F910F9108958F929F92AF92BF92CF92EB
:1023C000DF92EF92FF92CF93DF93EC018AE294E0E9
:1023D0000E94D70D0E941F170E941A0F0E941F17FC
:1023E000CE80DF80E884F9844B015C018C189D0865
:1023F000AE08BF086A817B818C819D8145E0C42E37
:10240000D12CE12CF12CA70196010E94B11F82165C
:102410009306A406B50620F5EAA9FBA98681978153
:102420000E942008EAA9FBA9808591850E942008C6
:102430000E941F176E8F7F8F88A399A38A819B812B
:10244000AC81BD81BC01CD01660F771F881F991F2C
:10245000A70196010E94B11F2A873B874C875D87A1
:102460000E941F17CE80DF80E884F9849B01AC01B5
:102470002C193D094E095F0969017A018A819B8106
:10248000AC81BD81BC01CD01660F771F881F991FEC
:1024900025E030E040E050E00E94B11FC216D306B4
:1024A000E406F506C8F188EE93E0A0E0B0E08A8784
:1024B0009B87AC87BD878DA9EAA9FBA98823B1F0CA
:1024C00062E870E0868197810E942608EAA9FBA94C
:1024D00064EB70E0808591850E9410080E941F17B0
:1024E0006E8F7F8F88A399A31DAA16C064EB70E03E
:1024F000868197810E941008EAA9FBA962E870E032
:10250000808591850E9426080E941F176E8F7F8FFD
:1025100088A399A381E08DABDF91CF91FF90EF90DD
:10252000DF90CF90BF90AF909F908F900895CF9302
:10253000DF93EC01EAA9FBA9868197810E9420081C
:10254000EAA9FBA9808591850E942008209769F05F
:1025500086E992E09983888388E394E00E94D70D0E
:10256000CE01DF91CF910C94A322DF91CF910895FA
:10257000CF93DF93EC01EAA9FBA9868197810E94A2
:102580002008EAA9FBA9808591850E942008EAA974
:10259000FBA920E030E040E050E060E070E08285A0
:1025A00093850E946F08EAA9FBA9848595850E94FE
:1025B0008D07209769F086EC92E0998388838EE4FA
:1025C00094E00E94D70DCE01DF91CF910C94A3220D
:1025D000DF91CF910895CF93DF93EC01EAA9FBA996
:1025E000868197810E942008EAA9FBA980859185B0
:1025F0000E942008EAA9FBA920E030E040E050E07A
:1026000060E070E0828593850E946F08EAA9FBA9CB
:10261000848595850E948D07209769F086EB92E06E
:102620009983888382E694E00E94D70DCE01DF91E2
:10263000CF910C94A322DF91CF910895CF93DF9394
:10264000EC01EAA9FBA9868197810E942008EAA9EA
:10265000FBA9808591850E942008EAA9FBA920E0BA
:1026600030E040E050E060E070E0828593850E94B9
:102670006F08EAA9FBA9848595850E948D0720979C
:1026800069F086EA92E09983888388E794E00E9463
:10269000D70DCE01DF91CF910C94A322DF91CF9182
:1026A0000895CF93DF93EC010E941F176EA77FA7B9
:1026B00088AB99ABEAA9FBA9868597850E94070993
:1026C000FE01E15BFF4F918380833496208131814D
:1026D000329782179307DCF418161906C4F4DE014A
:1026E000AB5ABF4F8D919C9191838083892B89F048
:1026F000EAA9FBA984E090E0918B808B8A819B8181
:10270000AC81BD818E839F83A887B98702C0118267
:102710001082DF91CF910895CF93DF93EC010E9457
:102720001F176EA37FA388A799A78A819B81AC817D
:10273000BD818A8B9B8BAC8BBD8BEAA9FBA94EE13B
:1027400050E066E0848595850E943E07EAA9FBA9D2
:1027500061E070E084859585DF91CF910C946F09DD
:10276000CF93DF93EC010E941F176EA37FA388A76E
:1027700099A78A819B81AC81BD818A8B9B8BAC8B15
:10278000BD8BEAA9FBA94EE150E066E08485958502
:102790000E943E07EAA9FBA968E070E08485958560
:1027A000DF91CF910C946F09CF93DF93EC010E94DE
:1027B0001F176EA37FA388A799A78A819B81AC81ED
:1027C000BD818A8B9B8BAC8BBD8BEAA9FBA94EE1AB
:1027D00050E066E0848595850E943E07EAA9FBA942
:1027E00066E070E084859585DF91CF910C946F0948
:1027F000CF93DF93EC018CE194E00E94D70D0E940F
:102800001F170E941A0F0E941F176AA37BA38CA395
:102810009DA38A819B81AC81BD818E879F87A88B78
:10282000B98BEAA9FBA96FEF70E0808191810E94CA
:10283000070BEAA9FBA96FEF70E0828193810E94E8
:10284000070BEAA9FBA96FEF70E084819581DF9106
:10285000CF910C94070B0F931F93CF93DF93EC0151
:102860000E941F170E811F8128853985DC01CB014D
:10287000801B910BA20BB30B813D9740A105B105C5
:1028800040F50E941F176AA37BA38CA39DA3EAA90E
:10289000FBA94EE150E06EE170E0808191810E94E1
:1028A000A909EAA9FBA94EE150E06EE170E082813E
:1028B00093810E94A909EAA9FBA94EE150E06EE1CB
:1028C00070E084819581DF91CF911F910F910C94DD
:1028D000A9098CA98823E1F00E941F176AA37BA392
:1028E0008CA39DA3EAA9FBA942E350E060E570E058
:1028F000828193810E94A909EAA9FBA942E350E0E1
:1029000060E570E0848195810E94A9091CAA18C025
:10291000EAA9FBA968EC70E0828193810E94070B11
:10292000EAA9FBA968EC70E0848195810E94070BFD
:1029300081E08CAB0E941F176AA37BA38CA39DA38D
:10294000DF91CF911F910F9108958F929F92AF9237
:10295000BF92CF92DF92EF92FF92CF93DF93EC0181
:102960000E941F17CE80DF80E884F9849B01AC01B0
:102970002C193D094E095F0969017A016A817B8141
:102980008C819D8125E0822E912CA12CB12CA5015A
:1029900094010E94B11FC216D306E406F50658F54D
:1029A000EAA9FBA969E170E0808191810E94070B8F
:1029B000EAA9FBA969E170E0828193810E94070B7B
:1029C000EAA9FBA969E170E0848195810E94070B67
:1029D0000E941F176AA37BA38CA39DA36A817B819E
:1029E0008C819D81A50194010E94B11F2E873F8794
:1029F000488B598B38C00E941F17CE80DF80E88437
:102A0000F9846C197D098E099F090E941A0FEAA9A1
:102A1000FBA949E150E060E070E0808191810E9473
:102A2000A909EAA9FBA949E150E060E070E08281D0
:102A300093810E94A909EAA9FBA949E150E060E05D
:102A400070E0848195810E94A9098A819B81AC8173
:102A5000BD818E879F87A88BB98B0E941F176AA3A1
:102A60007BA38CA39DA3DF91CF91FF90EF90DF908C
:102A7000CF90BF90AF909F908F9008953FB7F894FC
:102A80008091C5069091C606A091C706B091C80670
:102A900026B5A89B05C02F3F19F00196A11DB11DB9
:102AA0003FBFBA2FA92F982F8827820F911DA11DF4
:102AB000B11DBC01CD0142E0660F771F881F991F31
:102AC0004A95D1F70895362F90E0FC01EB54FB4F67
:102AD0004491FC01E159FB4F2491FC01E75DFB4F60
:102AE0009491992309F46BC0442309F455C050E034
:102AF000FA013197E231F10508F04EC08827E1571D
:102B0000FF4F8F4F0C94F221809180008F7707C088
:102B1000809180008F7D03C080918000877F8093AB
:102B200080003AC084B58F7702C084B58F7D84BDA4
:102B300033C08091B0008F7703C08091B0008F7D4B
:102B40008093B00029C0809190008F7707C080915A
:102B500090008F7D03C080919000877F80939000CC
:102B60001BC08091A0008F7707C08091A0008F7D4F
:102B700003C08091A000877F8093A0000DC080914A
:102B800020018F7707C0809120018F7D03C0809145
:102B90002001877F80932001E92FF0E0EE0FFF1FD7
:102BA000E15FFB4FA591B4918FB7F894EC9131118F
:102BB00003C020952E2301C02E2B2C938FBF089588
:102BC000CF93DF9390E0FC01E159FB4F2491FC018E
:102BD000E75DFB4F8491882361F190E0880F991F96
:102BE000FC01EB50FC4FC591D491FC01E15FFB4F20
:102BF000A591B491611109C09FB7F894888120957F
:102C000082238883EC912E230BC0623061F49FB73E
:102C1000F8943881822F809583238883EC912E2B22
:102C20002C939FBF06C08FB7F894E8812E2B288382
:102C30008FBFDF91CF9108951F93CF93DF93182F0C
:102C4000EB0161E00E94E015209711F460E004C000
:102C5000CF3FD10539F461E0812FDF91CF911F91F2
:102C60000C946315E12FF0E0EB54FB4FE4914E2FF1
:102C700050E0FA013197E231F10508F09DC0882754
:102C8000EF55FF4F8F4F0C94F22184B5806884BDBF
:102C9000C7BD97C084B5806284BDC8BD92C0809115
:102CA0008000806880938000D0938900C093880062
:102CB00088C080918000806280938000D0938B00D8
:102CC000C0938A007EC080918000886080938000DD
:102CD000D0938D00C0938C0074C08091B000806848
:102CE0008093B000C093B3006CC08091B00080624C
:102CF0008093B000C093B40064C08091900080685D
:102D000080939000D0939900C09398005AC080910E
:102D10009000806280939000D0939B00C0939A00B3
:102D200050C080919000886080939000D0939D0067
:102D3000C0939C0046C08091A00080688093A00052
:102D40008091A0008F7B8093A000D093A900C093B6
:102D5000A80037C08091A00080628093A000D0932B
:102D6000AB00C093AA002DC08091A0008860809322
:102D7000A000D093AD00C093AC0023C0809120018F
:102D8000806880932001D0932901C093280119C045
:102D900080912001806280932001D0932B01C09309
:102DA0002A010FC080912001886080932001D09378
:102DB0002D01C0932C0105C0C038D1050CF04BCFBC
:102DC00045CFDF91CF911F9108958F929F92AF923F
:102DD000BF92CF92DF92EF92FF926B017C010E9433
:102DE0003E154B015C01C114D104E104F104F1F082
:102DF0000E943E15DC01CB0188199909AA09BB097B
:102E0000883E9340A105B10570F321E0C21AD108B4
:102E1000E108F10888EE880E83E0981EA11CB11C21
:102E2000C114D104E104F10419F7DDCFFF90EF9054
:102E3000DF90CF90BF90AF909F908F9008952FB765
:102E4000F8946091C1067091C2068091C30690917A
:102E5000C4062FBF0895CF93DF93EC010E941F1784
:102E60006EA77FA788AB99ABEAA9FBA98685978552
:102E70000E94070998AF8FAB9C01265031092D3174
:102E8000310510F08E9764F08DAD9EAD9AAF89AF8D
:102E9000892B31F0EAA9FBA981E090E0918B808B2E
:102EA000DF91CF910895CF93DF93EC010E941F171C
:102EB0006AA77BA78CA79DA78A819B81AC81BD81D6
:102EC0008E8B9F8BA88FB98FDF91CF910895CF9371
:102ED000DF93EC010E941F176EA37FA388A799A719
:102EE0008A819B81AC81BD818A8B9B8BAC8BBD8B96
:102EF000DF91CF910895CF93DF93EC010E941F17CC
:102F00006AA37BA38CA39DA38A819B81AC81BD8195
:102F10008E879F87A88BB98BEAA9FBA940E550E073
:102F200060E070E0808191810E94A909EAA9FBA973
:102F300040E550E062E370E0828193810E94A9093C
:102F4000EAA9FBA940E550E062E370E08481958145
:102F5000DF91CF910C94A9090F931F93CF93DF9327
:102F6000EC018CA9EAA9FBA9882399F18DA96FEF3F
:102F700070E0882371F0868197810E942608EAA973
:102F8000FBA96FEF70E0808591850E9410081DAA53
:102F90000EC0868197810E941008EAA9FBA96FEFF5
:102FA00070E0808591850E94260881E08DAB0E94AB
:102FB0001F170A851B852C853D85DC01CB01800F01
:102FC000911FA21FB31F8E8F9F8FA8A3B9A31CAA06
:102FD00012C0868197810E942008EAA9FBA98085FA
:102FE00091850E9420080E941F176E8F7F8F88A3F3
:102FF00099A381E08CABDF91CF911F910F91089540
:103000001F920F920FB60F9211242F933F938F931D
:103010009F93AF93BF938091C1069091C206A091F8
:10302000C306B091C4063091C00623E0230F2D37AC
:1030300020F40196A11DB11D05C026E8230F0296BC
:10304000A11DB11D2093C0068093C1069093C206B6
:10305000A093C306B093C4068091C5069091C6069E
:10306000A091C706B091C8060196A11DB11D80931D
:10307000C5069093C606A093C706B093C806BF9135
:10308000AF919F918F913F912F910F900FBE0F9015
:103090001F901895CF92DF92EF92FF920F931F939C
:1030A000E82FF92F05C0015011092109310961F1FB
:1030B000908196239417B9F305C001501109210995
:1030C000310911F1908196239413F7CFC12CD12CA3
:1030D000E12CF12C0AC08FEFC81AD80AE80AF80AC6
:1030E0000C151D052E053F0579F080818623841778
:1030F00091F36C2D7D2D8E2D9F2D1F910F91FF90A3
:10310000EF90DF90CF90089560E070E080E090E075
:103110001F910F91FF90EF90DF90CF900895CF9384
:10312000DF93CDB7DEB7A5970FB6F894DEBF0FBE1D
:10313000CDBF789484B5826084BD84B5816084BD40
:1031400085B5826085BD85B5816085BD80916E0045
:10315000816080936E001092810080918100826076
:1031600080938100809181008160809381008091B3
:1031700080008160809380008091B10084608093A2
:10318000B1008091B00081608093B0008091910087
:103190008260809391008091910081608093910082
:1031A000809190008160809390008091A100826066
:1031B0008093A1008091A10081608093A100809103
:1031C000A00081608093A0008091210182608093A3
:1031D0002101809121018160809321018091200152
:1031E00081608093200180917A00846080937A00CE
:1031F00080917A00826080937A0080917A00816069
:1032000080937A0080917A00806880937A0010928F
:10321000C100E0910506F091060682E08083E0910E
:103220000106F09102061082E0910306F091040677
:1032300080E1808310920D06E0910906F0910A0664
:1032400086E08083E0910706F09108068081806126
:103250008083E0910706F091080680818860808372
:10326000E0910706F0910806808180688083E091F4
:103270000706F091080680818F7D80830091B40657
:103280001091B50666E070E0C8010E94970ED80163
:1032900013961C920091B2061091B30667E070E09D
:1032A000C8010E94970EF80113820091B006109198
:1032B000B10668E070E0C8010E94970EFF24F39405
:1032C000D8011396FC920091AE061091AF0661E012
:1032D00088E10E94E01561E086E10E94E01561E06E
:1032E0008BE00E94E01588E190E0F80191838083F3
:1032F00086E190E0938382838BE090E095838483E2
:103300000091AC061091AD0661E087E10E94E015E6
:1033100061E089E10E94E01561E08CE00E94E01527
:1033200087E190E0D80111969C938E9389E190E01B
:1033300013969C938E9312978CE090E015969C9335
:103340008E9314970091AA061091AB0661E082E07B
:103350000E94E01561E083E00E94E01561E085E0F5
:103360000E94E01582E090E0F8019183808383E081
:1033700090E09383828385E090E09583848300913D
:10338000A8061091A9061C821B8288EE93E0A0E09B
:10339000B0E08D839E83AF83B8878AE092E09A8302
:1033A0008983188E1F8A1A8E198E1C8E1B8E1E8E74
:1033B0001D8E8F8D8E7F8D7F8F8F86958170682F6C
:1033C0006F2589E00E94631561E089E00E94E015A5
:1033D000E8E7F4E0E491E98BE2E3F4E0E491F0E083
:1033E000EE0FFF1FE15FFB4F859194919B8B8A8BC2
:1033F00060E08AE00E94E0158F8D81FD04C061E0ED
:103400008AE00E9463158AE08D87E9E7F4E0E491A1
:10341000EE87E3E3F4E0E491F0E0EE0FFF1FE65DFA
:10342000FC4F85919491988B8F878DE991E09E8FC9
:103430008D8F2DEB30E0388F2F8B2BE931E03A8FD9
:10344000298F2CE231E03C8F2B8F20916800216086
:10345000209368002BE630E03D8B2C8B20E12E8BF7
:103460000197F1F78B8D9C8D9E012F5F3F4F790166
:10347000892B09F1E091D304F091D404E217F3070A
:10348000D1F0309739F0A389B4899C9185898095D2
:1034900089238C938F8D8E7F8F8F1092D204109200
:1034A000D104F092D404E092D304EC89FD89908198
:1034B0008E89892B808384E093E00E94840D8AEDBD
:1034C00093E00E94710E89EA93E00E94710EDD2460
:1034D000D394D8015896DC9258971196FC92EE92AC
:1034E00016968D919D910D90BC91A02D8854944F6E
:1034F000AF4FBF4FF80186839783A087B18740E025
:1035000050E06CE0C8010E943E07D8019596DC921D
:10351000C8010E947A06811106C060E070E0CB010C
:103520000E94E516F5CFF80186819781A085B185C7
:10353000885B9B40A109B10986839783A087B187E7
:1035400068EC70E080E090E00E94E516D801949667
:103550001C92949790968C91843069F088E993E05E
:103560000E94710E87E793E00E94710E8AE593E056
:103570000E94710EFFCF84E493E00E94710E8AE0F6
:1035800092E09A8389838091D3049091D4048E151C
:103590009F0559F4EC89FD8990818E898095892356
:1035A00080831092D4041092D3040091A606109147
:1035B000A70661E081E20E94E01560E08FE10E94D1
:1035C000E01581E290E0F801918380838FE190E043
:1035D0009383828330E1832E37E2932EA12CB12C8A
:1035E00022242394312C52E3452E512C612C712C32
:1035F0000E941F176B017C01A091A406B091A50643
:1036000016964D915D916D917C9119979701860168
:10361000041B150B260B370B12964D915D916D9186
:103620007C911597041715072607370708F0ABC0DC
:1036300096964D915D916D917C9199979701860138
:10364000041B150B260B370B52964D915D916D9116
:103650007C915597041715072607370740F0ED9121
:10366000FC9111970480F581E02DCD011995A09171
:10367000A406B091A5065E964D915D916D917C91E9
:10368000919797018601041B150B260B370B1A9691
:103690004D915D916D917C911D970417150726073B
:1036A000370740F0ED91FC9111970190F081E02DEA
:1036B000CD011995A091A406B091A50692964D91C1
:1036C0005D916D917C91959797018601041B150B77
:1036D000260B370B1E964D915D916D917C91519704
:1036E000041715072607370740F0ED91FC91119755
:1036F0000280F381E02DCD011995A091A406B0912F
:10370000A5069A964D915D916D917C919D9797013B
:103710008601041B150B260B370B56964D915D91B8
:103720006D917C915997041715072607370740F0CC
:10373000ED91FC9111970680F781E02DCD0119954F
:10374000A091A406B091A5069E964D915D916D91B4
:103750007C91D197C41AD50AE60AF70A5A964D9178
:103760005D916D917C915D97C416D506E606F706CE
:1037700008F4B7C2ED91FC9111970084F185E02D1A
:10378000CD011995AEC2ED91FC9111970284F3859C
:10379000E02DCD011995E091A206F091A306319795
:1037A000E730F10508F06DC28827E857FF4F8F4FCB
:1037B0000C94F2210E941F176B017C0187E390E0BB
:1037C0000E940E228C018CE192E0D8018D939C9393
:1037D00087E093E00E94D70D82E996E0F80193AB71
:1037E00082AB82829382A482B582C682D782E0862F
:1037F000F1868EE591E0A0E0B0E086879787A08B08
:10380000B18B86E990E0A0E0B0E082879387A4873F
:10381000B58788EC90E0A0E0B0E0868B978BA08F16
:10382000B18F87E090E0C0C00E941F176B017C0140
:1038300087E590E00E940E228C0186EC92E0D80190
:103840008D939C9387E193E00E94D70D82E996E0E7
:10385000F80193AB82AB82829382A482B582C68246
:10386000D782E086F18688EC90E0A0E0B0E0868721
:103870009787A08BB18B4286538664867586468A6D
:10388000578A608E718E82E390E096AF85AFFF9687
:1038900011821082329611821082329686E990E06F
:1038A0009183808332961182108232961182108227
:1038B0007801F7E3EF0EF11C68012DE3C20ED11C75
:1038C000F9A2E8A2D70116966D917C9117971C96E4
:1038D0008D919C911D97681B790B77FF03C07195A3
:1038E00061957109072E000C880B990B0E948C20A2
:1038F0006AA37BA38CA39DA3F80166897789072E11
:10390000000C880B990B0E948C209B01AC016AA1D2
:103910007BA18CA19DA10E9418216AA37BA38CA3EB
:103920009DA3F80186859785A089B189BC01CD0149
:10393000660F771F881F991F0E948A209B01AC0188
:103940006AA17BA18CA19DA10E94E21F0E948521FA
:103950000E9454201616170624F4D7016D937C9309
:1039600003C0F70131822082F2E0EF0EF11CA8A122
:10397000B9A18D919C910E94C40FF701848195811A
:10398000918B808BEC14FD0409F09ACFF801ED5A6D
:10399000FF4F88E290E091838083329682E090E04E
:1039A0009183808386E090E09093A3068093A206A3
:1039B0001093A5060093A40690C10E941F176B01E7
:1039C0007C0186E390E00E940E228C0186E392E067
:1039D000D8018D939C9389E293E00E94D70D82E9F0
:1039E00096E0F80193AB82AB84EC99E0A0E0B0E004
:1039F00082839383A483B583C682D782E086F186CF
:103A000080E991E0A0E0B0E0868F978FA0A3B1A3FA
:103A100012A613A614A615A684EF91E0A0E0B0E0CC
:103A200086879787A08BB18B86E490E0A0E0B0E01A
:103A300082879387A487B587B5CF0E941F176B0134
:103A40007C0187E390E00E940E228C0186EA92E0DE
:103A5000D8018D939C938DE393E00E94D70D82E96A
:103A600096E0F80193AB82AB88E893E1A0E0B0E088
:103A700082839383A483B583C682D782E086F1864E
:103A80004286538664867586468A578A608E718E12
:103A900081E086AB87CF0E941F176B017C018EE40B
:103AA00090E00E940E228C0186EB92E0F801918357
:103AB00080838EE493E00E94D70D82E996E0D801DE
:103AC000D3969C938E93D29788E59BE1A0E0B0E0DB
:103AD000F80182839383A483B583C682D782E0866C
:103AE000F18684E690E0A0E0B0E0868B978BA08F13
:103AF000B18F15AE14AE86E990E097AF86AFE05C6B
:103B0000FF4F9183808332961182108232968AE031
:103B100090E0918380833296918380837801F6E3ED
:103B2000EF0EF11C9801245C3F4F39A328A3D70165
:103B30001696CD90DC9017971C968D919C911D97B1
:103B4000B601681B790B77FF03C071956195710908
:103B5000072E000C880B990B0E948C2020E030E08F
:103B600048EC52E40E94182120E030EC4AED55E484
:103B70000E94E21F0E9485210E94542016161706FB
:103B800024F4F7017183608303C0D7012D923C9226
:103B9000F701D38AC28AF2E0EF0EF11C28A139A105
:103BA000E216F30621F6FECE0E941F176B017C0180
:103BB00083E490E00E940E228C0186E892E0D80116
:103BC0008D939C9382E693E00E94D70D82E996E064
:103BD000F80193AB82AB82829382A482B582C682C3
:103BE000D782E086F18689E190E0A0E0B0E0828FA4
:103BF000938FA48FB58F81E085AB88E290E094AF7E
:103C000083AF82E090E096AF85AF85E090E0CCCEC8
:103C10000E941F176B017C0183E490E00E940E223A
:103C20008C0186E992E0D8018D939C9385E793E01F
:103C30000E94D70D82E996E0F80193AB82AB8282B5
:103C40009382A482B582C682D782E086F18688EE0E
:103C500093E0A0E0B0E082879387A487B58789E1ED
:103C600090E0A0E0B0E0828F938FA48FB58F81E0C9
:103C700085AB84AB82E090E096AF85AF83E090E0C7
:103C800093CE84E390E00E940E228C0186E492E0C1
:103C9000D8018D939C9389E893E00E94D70D82E927
:103CA00096E0F80193AB82AB1282138214821582E4
:103CB0001682178210861186C8010E94540FC8010F
:103CC0000E94290FC8010E943B0C1093A506009387
:103CD000A4061092A3061092A2068DE993E00E941A
:103CE000D70D0E94BE0284CC4F925F926F927F925A
:103CF0008F929F92AF92BF92CF92DF92EF92FF92FC
:103D00000F931F93CF93DF93E5EFF5E013821282B9
:103D100088EE93E0A0E0B0E084839583A683B78328
:103D200086E592E09183808385EC90E09587848797
:103D300084EC90E09787868780EC90E0918B808B75
:103D400081EC90E0938B828B82EC90E0958B848B5E
:103D500086EC90E0978B868B118E128E138E148ECC
:103D600084E090E00E940E225C010E94A905B092BE
:103D7000B506A092B40684E090E00E940E226C0189
:103D80000E94A905D092B306C092B20684E090E0EA
:103D90000E940E227C010E94A905F092B106E092D9
:103DA000B00686E090E00E940E223C019093AF06A0
:103DB0008093AE0686E090E00E940E224C01909324
:103DC000AD068093AC0686E090E00E940E222C01A6
:103DD0009093AB068093AA0686E290E00E940E22A2
:103DE0008C0184EF91E0A0E0B0E0F8018683978336
:103DF000A087B1878AE0E8E2F2E0D801549601900A
:103E00000D928A95E1F7F801168E82E0878F14A251
:103E100015A21093A9060093A80688E090E00E94DE
:103E20000E229093A7068093A606EAEBF6E0B182F5
:103E3000A082D382C282F582E482E6EBF6E0718250
:103E4000608293828282C2E9D6E0B982A882DB8254
:103E5000CA82FD82EC827F826E82998688865B862A
:103E60004A861D870C879F878E870E941F176B01CC
:103E70007C0183E490E00E940E228C0186E892E0AF
:103E8000F8019183808382E693E00E94D70DF801C8
:103E9000D3ABC2AB80E197E2A0E0B0E08283938332
:103EA000A483B583C682D782E086F18689E190E05B
:103EB000A0E0B0E0828F938FA48FB58F81E085ABB7
:103EC00088E290E094AF83AF82E090E096AF85AF58
:103ED00085E090E0998B888B1B8B0A8BDF91CF91CB
:103EE0001F910F91FF90EF90DF90CF90BF90AF9018
:103EF0009F908F907F906F905F904F900895052EC8
:103F000097FB1EF400940E94961F57FD07D00E9455
:103F1000B11F07FC03D04EF40C94961F50954095AA
:103F2000309521953F4F4F4F5F4F08959095809565
:103F3000709561957F4F8F4F9F4F08950E94D31FBB
:103F4000A59F900DB49F900DA49F800D911D1124ED
:103F50000895B7FF0C949E1F0E949E1F821B930B17
:103F60000895A1E21A2EAA1BBB1BFD010DC0AA1FBA
:103F7000BB1FEE1FFF1FA217B307E407F50720F0D2
:103F8000A21BB30BE40BF50B661F771F881F991F4D
:103F90001A9469F760957095809590959B01AC0196
:103FA000BD01CF010895A29FB001B39FC001A39F9F
:103FB000700D811D1124911DB29F700D811D112462
:103FC000911D08950E94F61F0C94DE200E94D720B8
:103FD00058F00E94D02040F029F45F3F29F00C9463
:103FE000C72051110C9412210C94CD200E94EF2077
:103FF00068F39923B1F3552391F3951B550BBB2718
:10400000AA2762177307840738F09F5F5F4F220F5C
:10401000331F441FAA1FA9F335D00E2E3AF0E0E853
:1040200032D091505040E695001CCAF72BD0FE2F9D
:1040300029D0660F771F881FBB1F26173707480731
:10404000AB07B0E809F0BB0B802DBF01FF279358E9
:104050005F4F3AF09E3F510578F00C94C7200C94C6
:1040600012215F3FE4F3983ED4F3869577956795E8
:10407000B795F7959F5FC9F7880F911D969587951E
:1040800097F90895E1E0660F771F881FBB1F62173D
:1040900073078407BA0720F0621B730B840BBA0BFB
:1040A000EE1F88F7E09508950E945B206894B11197
:1040B0000C94122108950E94F72088F09F5798F0E1
:1040C000B92F9927B751B0F0E1F0660F771F881F1D
:1040D000991F1AF0BA95C9F714C0B13091F00E9437
:1040E0001121B1E008950C941121672F782F8827B2
:1040F000B85F39F0B93FCCF3869577956795B3955E
:10410000D9F73EF490958095709561957F4F8F4FCC
:104110009F4F0895E89409C097FB3EF490958095D1
:10412000709561957F4F8F4F9F4F9923A9F0F92F7D
:1041300096E9BB279395F695879577956795B795FB
:10414000F111F8CFFAF4BB0F11F460FF1BC06F5FE1
:104150007F4F8F4F9F4F16C0882311F096E911C0F3
:10416000772321F09EE8872F762F05C0662371F014
:1041700096E8862F70E060E02AF09A95660F771F28
:10418000881FDAF7880F9695879597F9089597F91C
:104190009F6780E870E060E008959FEF80EC0895ED
:1041A00000240A9416161706180609060895002416
:1041B0000A9412161306140605060895092E039490
:1041C000000C11F4882352F0BB0F40F4BF2B11F404
:1041D00060FF04C06F5F7F4F8F4F9F4F089557FD63
:1041E0009058440F551F59F05F3F71F04795880F65
:1041F00097FB991F61F09F3F79F0879508951216FC
:1042000013061406551FF2CF4695F1DF08C01616A7
:1042100017061806991FF1CF869571056105089458
:104220000895E894BB2766277727CB0197F908956F
:104230000E942B210C94DE200E94D02038F00E9496
:10424000D72020F0952311F00C94C7200C94CD209A
:1042500011240C9412210E94EF2070F3959FC1F35A
:10426000950F50E0551F629FF001729FBB27F00D24
:10427000B11D639FAA27F00DB11DAA1F649F662779
:10428000B00DA11D661F829F2227B00DA11D621FC8
:10429000739FB00DA11D621F839FA00D611D221F82
:1042A000749F3327A00D611D231F849F600D211D66
:1042B000822F762F6A2F11249F5750409AF0F1F0E9
:1042C00088234AF0EE0FFF1FBB1F661F771F881F52
:1042D00091505040A9F79E3F510580F00C94C720A3
:1042E0000C9412215F3FE4F3983ED4F386957795C2
:1042F0006795B795F795E7959F5FC1F7FE2B880FF8
:10430000911D9695879597F908950E94F720E8F0FA
:104310009E37E8F09639B8F49E3848F4672F782F26
:104320008827985FF9CF8695779567959395953906
:10433000D0F3B62FB1706B0F711D811D20F48795DE
:104340007795679593950C94A9210C94C4210C94AE
:104350001221882371F4772321F09850872B762F30
:1043600007C0662311F499270DC09051862B70E089
:1043700060E02AF09A95660F771F881FDAF7880F9A
:104380009695879597F908959F3F31F0915020F4C5
:10439000879577956795B795880F911D9695879521
:1043A00097F90895991B79E004C0991F961708F0B2
:1043B000961B881F7A95C9F78095089597FB072E5D
:1043C00016F4009407D077FD09D00E94FA2107FC6B
:1043D00005D03EF4909581959F4F08957095619515
:1043E0007F4F0895EE0FFF1F881F8BBF0790F69138
:1043F000E02D1994AA1BBB1B51E107C0AA1FBB1FCC
:10440000A617B70710F0A61BB70B881F991F5A9560
:10441000A9F780959095BC01CD010895CF93DF93C6
:104420008230910510F482E090E0E091CB06F091AB
:10443000CC0620E030E0C0E0D0E0309711F14081C0
:10444000518148175907C0F04817590761F4828114
:104450009381209719F09B838A832BC09093CC067D
:104460008093CB0626C02115310519F0421753075A
:1044700018F49A01BE01DF01EF010280F381E02D03
:10448000DCCF2115310509F1281B390B243031050A
:1044900090F412968D919C9113976115710521F0FE
:1044A000FB019383828304C09093CC068093CB0658
:1044B000FD01329644C0FD01E20FF31F81939193F9
:1044C000225031092D933C933AC02091C906309176
:1044D000CA06232B41F4209102023091030230934B
:1044E000CA062093C90620910002309101022115CD
:1044F000310541F42DB73EB74091040250910502B9
:10450000241B350BE091C906F091CA06E217F307A8
:10451000A0F42E1B3F0B2817390778F0AC014E5F33
:104520005F4F2417350748F04E0F5F1F5093CA06A0
:104530004093C9068193919302C0E0E0F0E0CF017F
:10454000DF91CF9108950F931F93CF93DF9300973F
:1045500009F48CC0FC013297138212820091CB06C1
:104560001091CC060115110581F420813181820F53
:10457000931F2091C9063091CA062817390779F58B
:10458000F093CA06E093C90671C0D80140E050E03C
:10459000AE17BF0750F412962D913C911397AD01C1
:1045A0002115310509F1D901F3CF9D01DA013383DA
:1045B000228360817181860F971F8217930769F4A8
:1045C000EC0128813981260F371F2E5F3F4F318341
:1045D00020838A819B8193838283452B29F4F093E6
:1045E000CC06E093CB0642C01396FC93EE93129751
:1045F000ED01499159919E01240F351FE217F307F0
:1046000071F480819181840F951F029611969C937D
:104610008E938281938113969C938E931297E0E000
:10462000F0E0D80112968D919C911397009719F0A4
:10463000F8018C01F6CF8D919C9198012E5F3F4F30
:10464000820F931F2091C9063091CA062817390797
:1046500069F4309729F41092CC061092CB0602C070
:10466000138212821093CA060093C906DF91CF917C
:104670001F910F91089581E090E0F8940C944023ED
:04468000F894FFCFDC
:104684000000CD068000000000003B03F702C903D0
:104694003A038F03A7032203000000003608B20A7E
:1046A4008509E008CC03AD087EFF06000100000088
:1046B40000EF00000000FF0F6D0F600D4E0E120C96
:1046C4001B0E00000000540F290F110C3B0C100CA2
:1046D400E50D00000000470BF7020C0B8E0BB20235
:1046E4001B0B2F0B00000000CD03F702C903C80306
:1046F400CD03CD03CD0300000000CD03F702C903B1
:10470400C80300000000DF0C7D0C270C130C4A0CBE
:10471400FA0D00000000AC177B17671753172B170F
:104724009712000000006A10F813D4134611FE0F0C
:104734001E1300000000DB11A514B0131711FD0FA8
:10474400EB12000000006F112B148C13AB105113EB
:10475400B81265786974696E67204A6F792073743A
:104764006174650044697374616E63653A2000493D
:10477400276D20706C6179696E6720746865207399
:104784006F6E67000D0A00656E746572204A6F795A
:1047940020737461746500656E74657220416E6780
:1047A400657220737461746500656E74657220446B
:1047B40069736775737420737461746500656E74CE
:1047C4006572204665617220737461746500656E5C
:1047D400746572205361646E6573732073746174BD
:1047E4006500656E74657220536561726368207339
:1047F4007461746500656E746572204578706C6FC1
:10480400726520737461746500656E746572204E00
:1048140065757472616C20737461746500656D6F85
:1048240074696F6E206368616E676564006578699A
:1048340074696E67206E65757472616C207374613F
:1048440074650065786974696E6720536561726385
:10485400682073746174650065786974696E672093
:1048640044697367757374207374617465006C654F
:104874006400736572766F20616374696F6E206E75
:1048840065757472616C006D6F746F72206163740E
:10489400696F6E206E65757472616C0073657276F3
:1048A4006F20616374696F6E20006D6F746F722086
:1048B400616374696F6E200065786974696E67203E
:1048C4004578706C6F7265207374617465006578E7
:1048D4006974696E6720416E6765722073746174D0
:1048E400650065786974696E67205361646E6573E9
:1048F400732073746174650065786974696E6720E8
:0C490400466561722073746174650000E8
:00000001FF
