:100000000C9463000C948B000C948B000C948B006C
:100010000C948B000C948B000C948B000C94F201CC
:100020000C948B000C948B000C948B000C948D0220
:100030000C948B000C948B000C948B000C948B0014
:100040000C944D0C0C948B000C94C0010C949A01F0
:100050000C948B000C948B000C948B000C948B00F4
:100060000C948B000C948B000200000000230026EF
:1000700000290000000000240027002A00000000E2
:1000800000250028002B00040404040404040402D6
:100090000202020202030303030303010204081025
:1000A00020408001020408102001020408102000F2
:1000B0000000080002010000030407000000000027
:1000C00000000000DE1111241FBECFEFD8E0DEBF1C
:1000D000CDBF13E0A0E0B1E0E0E2FDE202C0059098
:1000E0000D92A031B107D9F724E0A0E1B3E001C03F
:1000F0001D92AC34B207E1F710E0C3E6D0E004C0D3
:100100002197FE010E945615C236D107C9F70E94F9
:10011000DC0C0C948E160C940000FC01538D448D65
:10012000252F30E0842F90E0821B930B541710F0A2
:10013000CF96089501970895FC01918D828D9817AF
:1001400061F0828DDF01A80FB11D5D968C91928DBB
:100150009F5F9F73928F90E008958FEF9FEF0895B8
:10016000FC01918D828D981731F0828DE80FF11D81
:10017000858D90E008958FEF9FEF0895FC01918D9C
:10018000228D892F90E0805C9F4F821B91098F7395
:10019000992708958BE693E00E94BE0021E0892B09
:1001A00009F420E0822F0895FC01848DDF01A80F5F
:1001B000B11DA35ABF4F2C91848D90E001968F738F
:1001C0009927848FA689B7892C93A089B1898C91AE
:1001D00080648C93938D848D981306C00288F38974
:1001E000E02D80818F7D80830895EF92FF920F93A1
:1001F0001F93CF93DF93EC0181E0888F9B8D8C8DD3
:10020000981305C0E889F989808185FD24C0F62E00
:100210000B8D10E00F5F1F4F0F731127E02E8C8D99
:10022000E8120CC00FB607FCFACFE889F989808183
:1002300085FFF5CFCE010E94D400F1CF8B8DFE015A
:10024000E80FF11DE35AFF4FF0820B8FEA89FB891B
:100250008081806207C0EE89FF896083E889F9891F
:1002600080818064808381E090E0DF91CF911F9155
:100270000F91FF90EF900895CF93DF93EC01888D5D
:100280008823C9F0EA89FB89808185FD05C0A8899A
:10029000B9898C9186FD0FC00FB607FCF5CF808120
:1002A00085FFF2CFA889B9898C9185FFEDCFCE016A
:1002B0000E94D400E7CFDF91CF91089580E090E0D5
:1002C000892B29F00E94CA0081110C940000089526
:1002D000CF92DF92EF92FF920F931F93CF93DF9312
:1002E0006C017A018B01C0E0D0E0CE15DF0589F00A
:1002F000D8016D918D01D601ED91FC910190F081B5
:10030000E02DC6010995892B11F47E0102C02196CA
:10031000ECCFC701DF91CF911F910F91FF90EF902C
:10032000DF90CF900895089580E090E008950895BB
:100330000E9489161F920F920FB60F9211242F93CD
:100340003F934F935F936F937F938F939F93AF935D
:10035000BF93EF93FF938BE693E00E94D400FF914D
:10036000EF91BF91AF919F918F917F916F915F912D
:100370004F913F912F910F900FBE0F901F901895A6
:100380001F920F920FB60F9211242F938F939F936A
:10039000EF93FF93E0917B03F0917C038081E091E8
:1003A0008103F091820382FD12C0908180918403C9
:1003B0008F5F8F7320918503821751F0E091840342
:1003C000F0E0E559FC4F958F8093840301C0808154
:1003D000FF91EF919F918F912F910F900FBE0F90F2
:1003E0001F9018951F920F920FB60F9211242F9302
:1003F0003F934F935F936F937F938F939F93AF93AD
:10040000BF93EF93FF9380911F0390912003A091DE
:100410002103B0912203892B8A2B8B2B59F18091D8
:100420001E03E0911C03F0911D03908189278083B6
:1004300080911F0390912003A0912103B09122038A
:10044000181619061A061B060CF03DC080911F03F2
:1004500090912003A0912103B09122030197A1095B
:10046000B10980931F0390932003A0932103B093BD
:10047000220329C080910001E8E6F0E0E4919FEFBB
:1004800090930001E130B9F098F0E230C9F4909116
:1004900070009D7F9093700091E09093B0009091D8
:1004A000B100987F94609093B1001092B30008C09F
:1004B00010926E0005C090916F009D7F90936F0029
:1004C00060E00E94B409FF91EF91BF91AF919F91BD
:1004D0008F917F916F915F914F913F912F910F90ED
:1004E0000FBE0F901F901895E0911B03EC3088F41D
:1004F00021E02E0F20931B03DC01EC93B6E0EB9F71
:10050000F0011124ED5DFC4F88EB9BE09283818329
:1005100008952FEFFC01208308951F920F920FB6CC
:100520000F9211242F933F934F935F936F937F9379
:100530008F939F93AF93BF93EF93FF9380911A0391
:1005400087FF05C0109285001092840016C020918C
:100550001A03022E000C330B80911B0390E0281726
:1005600039075CF430911A0326E03203F0011124BC
:10057000ED5DFC4F808186FD15C080911A038F5F71
:1005800080931A0320911A03022E000C330B8091E2
:100590001B0390E02817390794F480911A038C30DC
:1005A0002CF10DC030911A033203F0011124ED5DDE
:1005B000FC4F808160E08F730E94B409DECF809190
:1005C00084009091850084349C4918F480E49CE96F
:1005D00005C08091840090918500049690938900D5
:1005E000809388008FEF80931A03C5C030911A035F
:1005F00026E03203F0011124ED5DFC4F8581882354
:1006000009F48FC040911A0330911A034203D001BC
:100610001124AD5DBC4F3203F0011124ED5DFC4FA0
:1006200013964D915C91149781819281841795075F
:1006300078F540911A0330911A033203F001112426
:10064000ED5DFC4F4203D0011124AD5DBC4F15960A
:100650003C9181819281830F911D9283818340918E
:100660001A0330911A034203D0011124AD5DBC4F2F
:100670003203F0011124ED5DFC4F13964D915C9116
:100680001497818192818417950708F44AC02DC080
:1006900040911A0330911A033203F0011124ED5DE9
:1006A000FC4F4203D0011124AD5DBC4F15963C9127
:1006B00081819281831B91099283818340911A03E6
:1006C00030911A034203D0011124AD5DBC4F3203B7
:1006D000F0011124ED5DFC4F13964D915C91149740
:1006E0008181928148175907E0F030911A034091B7
:1006F0001A033203F0011124ED5DFC4F4203D001D7
:100700001124AD5DBC4F13968D919C9114979283EB
:10071000818330911A033203F0011124ED5DFC4F07
:100720001582409184005091850030911A0326E093
:100730003203F0011124ED5DFC4F81819281840F21
:10074000951F909389008093880030911A0332039B
:10075000F0011124ED5DFC4F808186FF0CC03091CB
:100760001A033203F0011124ED5DFC4F808161E03A
:100770008F730E94B409FF91EF91BF91AF919F9148
:100780008F917F916F915F914F913F912F910F903A
:100790000FBE0F901F901895CF93DF93EC018C81C3
:1007A0000E943C0A61E088810E94B40960E08A816D
:1007B000DF91CF910C94B40960E070E0FC0184817A
:1007C0000C943C0ACF93DF93EC018C810E943C0A8D
:1007D00060E088810E94B40961E08A81DF91CF9155
:1007E0000C94B409CF93DF93EC0183EE91E00E9467
:1007F000F9060E949B0A0E94EA068FA98823A1F0AD
:100800000E949B0A6A8F7B8F8C8F9D8F6FEF70E0A9
:1008100088A999A90E94E2036FEF70E08AA99BA9B9
:100820000E94CC031FAA14C00E949B0A6A8F7B8F70
:100830008C8F9D8F6FEF70E088A999A90E94CC03DF
:100840006FEF70E08AA99BA90E94E20381E08FAB61
:10085000DF91CF910895EF92FF920F931F93CF9363
:10086000DF937C018A01E9016639710534F41616BB
:1008700017062CF060E070E002C066E970E006390F
:10088000110534F4101611062CF000E010E002C03F
:1008900006E910E0C639D10534F41C161D062CF00B
:1008A000C0E0D0E002C0C6E9D0E0F70180810E943C
:1008B0003C0AB801F70182810E943C0ABE01F7019F
:1008C0008481DF91CF911F910F91FF90EF900C9455
:1008D0003C0ACF93DF93EC0188A999A90E94DC031D
:1008E0008AA99BA90E94DC0320E030E040E050E0B0
:1008F00060E070E08CA99DA90E942B04209769F00C
:100900008BE091E09983888381EF91E00E94F90662
:10091000CE01DF91CF910C94F115DF91CF91089525
:10092000CF93DF93EC010E949B0A6EA37FA388A75D
:1009300099A78A819B81AC81BD818E8B9F8BA88F6B
:10094000B98F83E092E00E94F90620E030E046E9AA
:1009500050E066E970E08CA99DA9DF91CF910C94DD
:100960002B048F929F92AF92BF92CF92DF92EF9221
:10097000FF921F93CF93DF93EC01DB01F42E8B8169
:10098000882369F0CB018D57910997FF07C081E952
:1009900090E09C01261B370BD90101C0DC011881B6
:1009A000FF2009F471C0A03232E0B307E4F5B7FDCF
:1009B00006C0A53BB1052CF0A4EBB0E002C0A0E05E
:1009C000B0E0898128E830E04901881A910887FD64
:1009D0009394880C991C880C991C092C000CAA086B
:1009E000BB088A8128E532E0281B310987FD339551
:1009F000220F331F220F331FA901330F660B770B12
:100A00009A01AB01281939094A095B090E94D812D9
:100A100024EB30E040E050E00E94AE12820E931EC4
:100A2000A41EB51ED4011C3008F09EC0298188E8A0
:100A300090E0821B910927FD9395880F991F880FDD
:100A4000991FA817B90784F08A8128E532E0281B8E
:100A5000310987FD3395220F331F220F331FCD013C
:100A60002A173B070CF4C9012FB7F89436E0139FFF
:100A7000E0011124CD5DDC4F0297880F991F9C8304
:100A80008B83FD822FBF70C0A03282E0B807E4F5EF
:100A9000B7FD06C0A53BB1052CF0A4EBB0E002C049
:100AA000A0E0B0E0898128E830E06901C81AD108E7
:100AB00087FDD394CC0CDD1CCC0CDD1C0D2C000C64
:100AC000EE08FF088A8128E532E0281B310987FDFE
:100AD0003395220F331F220F331FA901330F660BEB
:100AE000770B9A01AB012C193D094E095F090E9451
:100AF000D81224EB30E040E050E00E94AE12C20E6B
:100B0000D31EE41EF51ED6011C3070F5898128E83D
:100B100030E0281B310987FD3395220F331F220F48
:100B2000331FA217B30784F02A8188E592E0821B65
:100B3000910927FD9395880F991F880F991F9D0193
:100B40008A179B070CF49C018FB7F89496E0199FC5
:100B5000E0011124CD5DDC4F22503109220F331FFB
:100B60003A8329838FBF1D82DF91CF911F91FF9020
:100B7000EF90DF90CF90BF90AF909F908F900895AF
:100B8000CF93DF93EC0187E092E00E94F9060E9488
:100B90009B0A0E94EA068EA9882301F10E949B0A03
:100BA0006E8F7F8F88A399A34EE150E06DE270E0D5
:100BB0008AA59BA50E94B1044EE150E06DE270E071
:100BC0008CA59DA50E94B1044EE150E06DE270E05D
:100BD0008EA59FA50E94B1041EAA20C00E949B0A58
:100BE0006E8F7F8F88A399A34EE150E060E570E09F
:100BF0008AA59BA50E94B1044EE150E060E570E03B
:100C00008CA59DA50E94B1044EE150E060E570E026
:100C10008EA59FA50E94B10481E08EABDF91CF919C
:100C2000089508950895089520E030E040E050E0F0
:100C300060E070E0FC0184A995A90C942B04CF938B
:100C4000DF93EC0188AD882379F00E949B0A6E8FB8
:100C50007F8F88A399A34EE150E06FE070E08AA5F2
:100C60009BA50E94B10418AE8EA98823C1F00E94F2
:100C70009B0A6E8F7F8F88A399A34EE150E06AE5AF
:100C800070E08CA59DA50E94B1044EE150E06AE59C
:100C900070E08EA59FA50E94B1041EAA18C046E967
:100CA00050E068E770E08CA59DA50E94B10446E97C
:100CB00050E068E770E08EA59FA50E94B10481E036
:100CC0008EAB0E949B0A6E8F7F8F88A399A3DF91C2
:100CD000CF910895CF93DF93EC018FA98823A1F0E2
:100CE0000E949B0A6A8F7B8F8C8F9D8F6FEF70E0C5
:100CF00088A999A90E94E2036FEF70E08AA99BA9D5
:100D00000E94E2031FAA10C00E949B0A6A8F7B8F79
:100D10008C8F9D8F88A999A90E94DC038AA99BA921
:100D20000E94DC0381E08FABDF91CF9108950097A3
:100D300069F0FC0101900020E9F73197AF01481BF1
:100D4000590BBC018BE693E00C94680180E090E0C5
:100D500008958F929F92AF92BF920F931F93CF935C
:100D6000DF93CDB7DEB7A1970FB6F894DEBF0FBE05
:100D7000CDBF19A2423008F44AE08E010F5D1F4F2B
:100D8000842E912CA12CB12CA50194010E94E0127B
:100D9000E62FB901CA0101501109EA3014F4E05DEF
:100DA00001C0E95CD801EC93232B242B252B61F7A0
:100DB000C8010E949706A1960FB6F894DEBF0FBE39
:100DC000CDBFDF91CF911F910F91BF90AF909F90BA
:100DD0008F900895CF93DF934AE00E94A906EC011B
:100DE00085E192E00E9497068C0F9D1FDF91CF91C5
:100DF0000895CF93DF930E949706EC0185E192E07E
:100E00000E9497068C0F9D1FDF91CF910895CF937D
:100E1000DF93009771F0EC0185E391E0998388837B
:100E200088E192E00E94F906CE01DF91CF910C9407
:100E3000F115DF91CF910895CF93DF93EC018EE20E
:100E400092E00E94F9060E949B0A0E94EA064EE187
:100E500050E067E370E08AA59BA50E94B1044EE1D3
:100E600050E067E370E08CA59DA50E94B1044EE1BF
:100E700050E067E370E08EA59FA5DF91CF910C94C1
:100E8000B104CF93DF93EC0183E492E00E94F90672
:100E90000E949B0A0E94EA0688A999A90E94DC0385
:100EA0008AA99BA9DF91CF910C94DC03CF93DF93A8
:100EB000EC0188A999A90E94DC038AA99BA90E9438
:100EC000DC0320E030E040E050E060E070E08CA91E
:100ED0009DA90E942B04209769F087E291E09983F5
:100EE000888388E592E00E94F906CE01DF91CF91D8
:100EF0000C94F115DF91CF910895CF93DF93EC011E
:100F00000E949B0A6EA37FA388A799A78A819B81D1
:100F1000AC81BD818E8B9F8BA88FB98F83E092E0CF
:100F20000E94F90620E030E046E950E066E670E015
:100F30008CA99DA9DF91CF910C942B040F931F9343
:100F4000CF93DF93EC0187E092E00E94F9060E94C4
:100F50009B0A0E94EA060E949B0A0E811F81288537
:100F60003985DC01CB01801B910BA20BB30B8D3DAE
:100F70009540A105B10538F042E350E06FE070E024
:100F80008AA59BA51CC00E949B0A6E8F7F8F88A399
:100F900099A34EE150E068E770E08AA59BA50E9406
:100FA000B1044EE150E068E770E08CA59DA50E9479
:100FB000B1044EE150E068E770E08EA59FA5DF9197
:100FC000CF911F910F910C94B1040F931F93CF9366
:100FD000DF93EC0183EE91E00E94F9060E949B0AE8
:100FE0000E94EA060E949B0A0E811F81288539858E
:100FF000DC01CB01801B910BA20BB30B8C3D954008
:10100000A105B10560F58FA98823A1F00E949B0A74
:101010006A8F7B8F8C8F9D8F6FEF70E088A999A965
:101020000E94E2036FEF70E08AA99BA90E94CC03A3
:101030001FAA25C00E949B0A6A8F7B8F8C8F9D8F71
:101040006FEF70E088A999A90E94CC036FEF70E060
:101050008AA99BA90E94E20381E08FAB10C064E6DD
:1010600070E088A999A90E94CC0364E670E08AA97F
:101070009BA9DF91CF911F910F910C94CC03DF912D
:10108000CF911F910F910895CF93DF93EC0188A921
:1010900099A90E94DC038AA99BA90E94DC0320E095
:1010A00030E040E050E060E070E08CA99DA90E9433
:1010B0002B04209769F089E191E0998388838EE67B
:1010C00092E00E94F906CE01DF91CF910C94F115C8
:1010D000DF91CF910895CF93DF93EC010E949B0A9B
:1010E0006EA37FA388A799A78A819B81AC81BD81CC
:1010F0008E8B9F8BA88FB98F83E092E00E94F906B8
:1011000020E030E044E150E066E970E08CA99DA960
:10111000DF91CF910C942B041F93CF93DF93EC01BD
:10112000162F88818C3008F049C061E0812F0E9421
:10113000000A888196E0899FF0011124ED5DFC4F43
:101140001F739081907C192B108319821A826CE096
:101150000E944A159CE0899FA001112420E030E004
:1011600096E0B901640F751F969FF001979FF00DEF
:101170001124ED5DFC4F608166FD16C02F5F3F4F6F
:101180002C30310571F781110FC01092800082E080
:10119000809381001092850010928400B19A809112
:1011A0006F00826080936F00E88186E0E89FF00125
:1011B0001124ED5DFC4F8081806480838881DF9104
:1011C000CF911F910895CF92DF92EF92FF92CF932C
:1011D000DF936C01990FEE08FF08F7FE1AC0E0914B
:1011E0006B03F0916C030190F081E02D6DE28BE6D2
:1011F00093E00995EC0166277727CB016C197D09EF
:101200008E099F094AE00E94A9067C01EC0EFD1E92
:1012100006C04AE0C701B6010E94A9067C0185E12B
:1012200092E00E9497068E0D9F1DDF91CF91FF9057
:10123000EF90DF90CF900895CF92DF92EF92FF92E0
:101240000F931F93CF93DF93EC018B017A01690118
:1012500085E391E09983888382E892E00E94F90611
:101260001A821B821C821D821E821F82188619868A
:10127000F801808191819BA78AA7828193819DA794
:101280008CA7848195819FA78EA7F701808191818A
:1012900099AB88AB828193819BAB8AABF60180814D
:1012A00091819DAB8CABCE010E944107CE010E9483
:1012B0001C07CE01DF91CF911F910F91FF90EF900E
:1012C000DF90CF900C94140608950895CF93DF9388
:1012D000EC0188A999A90E94DC038AA99BA90E9414
:1012E000DC0320E030E040E050E060E070E08CA9FA
:1012F0009DA90E942B04209769F083E691E09983D1
:10130000888386E992E00E94F906CE01DF91CF91B1
:101310000C94F115DF91CF910895CF93DF93EC01F9
:1013200088A999A90E94DC038AA99BA90E94DC03D1
:1013300020E030E040E050E060E070E08CA99DA942
:101340000E942B04209769F085E591E099838883BA
:101350008CEA92E00E94F906CE01DF91CF910C94C5
:10136000F115DF91CF91089590E0FC01E155FF4F19
:101370003491FC01E556FF4F2491FC01E957FF4FE2
:10138000E491EE2309F43BC0332339F1333091F07B
:1013900038F43130A9F0323001F584B58F7D12C0B8
:1013A000373091F03830A1F03430B9F480918000BA
:1013B0008F7D03C0809180008F77809380000DC067
:1013C00084B58F7784BD09C08091B0008F7703C04A
:1013D0008091B0008F7D8093B000F0E0EE0FFF1F92
:1013E000E358FF4FA591B4918FB7F894EC91611138
:1013F00003C020952E2301C02E2B2C938FBF089560
:10140000CF93DF9390E0FC01E556FF4F2491FC0160
:10141000E957FF4F8491882361F190E0880F991F6D
:10142000FC01ED58FF4FC591D491FC01E358FF4FEB
:10143000A591B491611109C09FB7F8948881209556
:1014400082238883EC912E230BC0623061F49FB716
:10145000F8943881822F809583238883EC912E2BFA
:101460002C939FBF06C08FB7F894E8812E2B28835A
:101470008FBFDF91CF9108951F93CF93DF93182FE4
:10148000EB0161E00E94000A209711F460E004C0C3
:10149000CF3FD10539F461E0812FDF91CF911F91CA
:1014A0000C94B409E12FF0E0E155FF4FE491E330F3
:1014B000F9F048F4E130B9F0E230A1F584B580628A
:1014C00084BDC8BD34C0E730E9F0E83019F1E4303C
:1014D00049F580918000806280938000D0938B00DA
:1014E000C0938A0024C084B5806884BDC7BD1FC076
:1014F00080918000806880938000D0938900C093A1
:10150000880015C08091B00080688093B000C093BF
:10151000B3000DC08091B00080628093B000C09392
:10152000B40005C0C038D1050CF0B5CFAFCFDF9106
:10153000CF911F9108952FB7F89460914404709152
:10154000450480914604909147042FBF0895CF939E
:10155000DF93EC010E949B0A6EA37FA388A799A743
:10156000FE01E25BFF4F2081318132974081518142
:101570003297608171818CA99DA90E942B04FE0184
:10158000F896EE96DF01329652968D919C91539784
:101590002D913C91821B930B918B808BEC17FD0757
:1015A00089F7DF91CF9108950F931F93CF93DF9326
:1015B000EC0187E092E00E94F9060E949B0A0E94DB
:1015C000EA060E949B0A0E811F8128853985AB019E
:1015D000BC01401B510B620B730B8A819B81AC8158
:1015E000BD81B695A79597958795481759076A07BE
:1015F0007B0778F58FEB92E00E94F90649E150E015
:1016000068E770E08AA59BA50E94B10449E150E01B
:1016100068E770E08CA59DA50E94B10449E150E007
:1016200068E770E08EA59FA50E94B1040E949B0A06
:101630006E8F7F8F88A399A38A819B81AC81BD81A6
:10164000B695A795979587958E879F87A88BB98B19
:101650002AC082ED92E00E94F90649E150E06FE075
:1016600070E08AA59BA50E94B10449E150E06FE0BB
:1016700070E08CA59DA50E94B10449E150E06FE0A7
:1016800070E08EA59FA50E94B1048A819B81AC81E8
:10169000BD818E879F87A88BB98B0E949B0A6E8F16
:1016A0007F8F88A399A3DF91CF911F910F91089508
:1016B0000F931F93CF93DF93EC0183EE91E00E9491
:1016C000F9060E949B0A0E94EA060E949B0A0E816C
:1016D0001F8128853985AB01BC01401B510B620B72
:1016E000730B8A819B81AC81BD81B695A795979537
:1016F0008795481759076A077B0708F586EE92E039
:101700000E94F90664E670E088A999A90E94E203A4
:101710008AA99BA90E94DC030E949B0A6A8F7B8F87
:101720008C8F9D8F8A819B81AC81BD81B695A79559
:10173000979587958A879B87AC87BD871CC08AEF62
:1017400092E00E94F90688A999A90E94DC0364E648
:1017500070E08AA99BA90E94E2038A819B81AC81E7
:10176000BD818A879B87AC87BD870E949B0A6A8F51
:101770007B8F8C8F9D8FDF91CF911F910F9108955B
:10178000CF93DF93EC010E949B0A6EA37FA388A7EF
:1017900099A78A819B81AC81BD818E8B9F8BA88FFD
:1017A000B98F83E092E00E94F90626E930E040E03C
:1017B00050E066E970E08CA99DA9DF91CF910C946F
:1017C0002B04CF93DF93EC0187E092E00E94F906AF
:1017D0000E949B0A0E94EA060E949B0A6E8F7F8FDE
:1017E00088A399A38A819B81AC81BD818E879F87C5
:1017F000A88BB98B4FEF50E068E770E08AA59BA5F6
:101800000E94B1044FEF50E068E770E08CA59DA501
:101810000E94B1044FEF50E068E770E08EA59FA5ED
:10182000DF91CF910C94B104CF93DF93EC0183EE61
:1018300091E00E94F9060E949B0A0E94EA068FA985
:101840008823A1F00E949B0A6A8F7B8F8C8F9D8FCB
:101850006FEF70E088A999A90E94E2036FEF70E032
:101860008AA99BA90E94CC031FAA14C00E949B0AAC
:101870006A8F7B8F8C8F9D8F6FEF70E088A999A9FD
:101880000E94CC036FEF70E08AA99BA90E94E2033B
:1018900081E08FABDF91CF9108951F920F920FB629
:1018A0000F9211242F933F938F939F93AF93BF93E6
:1018B0008091440490914504A0914604B09147045E
:1018C0003091430423E0230F2D3720F40196A11D0E
:1018D000B11D05C026E8230F0296A11DB11D20935E
:1018E00043048093440490934504A0934604B0932A
:1018F000470480913F0490914004A0914104B0912D
:1019000042040196A11DB11D80933F0490934004B1
:10191000A0934104B0934204BF91AF919F918F91E6
:101920003F912F910F900FBE0F901F901895CF925F
:10193000DF92EF92FF920F931F93E82FF92F05C0CC
:10194000015011092109310961F190819623941701
:10195000B9F305C0015011092109310911F1908134
:1019600096239413F7CFC12CD12CE12CF12C0AC073
:101970008FEFC81AD80AE80AF80A0C151D052E05BB
:101980003F0579F080818623841791F36C2D7D2D9E
:101990008E2D9F2D1F910F91FF90EF90DF90CF9094
:1019A000089560E070E080E090E01F910F91FF905B
:1019B000EF90DF90CF900895789484B5826084BDD5
:1019C00084B5816084BD85B5826085BD85B5816043
:1019D00085BD80916E00816080936E0010928100C1
:1019E000809181008260809381008091810081607C
:1019F000809381008091800081608093800080913D
:101A0000B10084608093B1008091B00081608093C8
:101A1000B00080917A00846080937A0080917A008F
:101A2000826080937A0080917A00816080937A004E
:101A300080917A00806880937A001092C100C091F2
:101A40003304D091340466E070E0CE010E948C082B
:101A50001B82C0913104D091320467E070E0CE0166
:101A60000E948C081B82C0912F04D091300468E042
:101A700070E0CE010E948C0881E08B83C0912D0420
:101A8000D0912E0461E088E10E94000A61E086E1C5
:101A90000E94000A61E08BE00E94000A88E190E069
:101AA0009983888386E190E09B838A838BE090E032
:101AB0009D838C83C0912B04D0912C0461E087E13D
:101AC0000E94000A61E089E10E94000A61E08CE066
:101AD0000E94000A87E190E09983888389E190E081
:101AE0009B838A838CE090E09D838C83C091290442
:101AF000D0912A0461E082E00E94000A61E083E064
:101B00000E94000A61E085E00E94000A82E090E005
:101B10009983888383E090E09B838A8385E090E0CB
:101B20009D838C83C0912704D091280461E089E0D3
:101B30000E94000A60E08AE00E94000A89E090E0CA
:101B4000998388838AE090E09B838A83E0917B037A
:101B5000F0917C0382E08083E0917703F091780339
:101B60001082E0917903F0917A038FEC80831092D8
:101B70008303E0917F03F091800386E08083E0910E
:101B80007D03F0917E03808180618083E0917D03FD
:101B9000F0917E03808188608083E0917D03F091E5
:101BA0007E03808180688083E0917D03F0917E03D5
:101BB00080818F7D808360E1462E67E2562E612C06
:101BC000712C22242394312C0E949B0A6B017C01EE
:101BD000809118048111C6C0A0910804B091090435
:101BE00012964D915D916D917C91159716960D9180
:101BF0001D912D913C91199746015701801A910A28
:101C0000A20AB30A84169506A606B70608F088C08D
:101C10005A964D915D916D917C915D9797018601EA
:101C2000041B150B260B370B1A964D915D916D9188
:101C30007C911D97041715072607370740F0ED9193
:101C4000FC9111970190F081E02DCD010995A091B3
:101C50000804B09109045E964D915D916D917C915F
:101C6000919797018601041B150B260B370B1E96C7
:101C70004D915D916D917C91519704171507260741
:101C8000370740F0ED91FC9111970280F381E02D30
:101C9000CD010995A0910804B091090492964D9147
:101CA0005D916D917C91959797018601041B150BB1
:101CB000260B370B52964D915D916D917C91559706
:101CC000041715072607370740F0ED91FC9111978F
:101CD0000480F581E02DCD010995A0910804B09113
:101CE000090496964D915D916D917C919997C41AD6
:101CF000D50AE60AF70A56964D915D916D917C9151
:101D00005997C416D506E606F70608F454C3ED91B4
:101D1000FC9111970680F781E02DCD0109954BC309
:101D20004F3F5F4F6F4F7F4FE9F0ED91FC9111975F
:101D30000084F185E02DCD01099586E390E00E94B5
:101D40005C15EC0124E134E040E154E06AE074E029
:101D50000E941C09D0930904C093080481E0809379
:101D6000180429C380911D0490911E04092E000CB3
:101D7000AA0BBB0BC81AD90AEA0AFB0A80911B04FA
:101D800090911C04092E000CAA0BBB0BC816D90697
:101D9000EA06FB0608F40FC30E949B0A70931E0418
:101DA00060931D04C0911604D091170460E08881EF
:101DB0000E94B40983E090E00197F1F761E0888127
:101DC0000E94B40983E290E00197F1F760E0888116
:101DD0000E94B4098A819B819927FC01E556FF4F37
:101DE0006491FC01E957FF4FE491F0E0EE0FFF1F13
:101DF000E759FF4F8591949100E412E42FE030E021
:101E0000462F0E94970C611571058105910539F0E7
:101E1000DC01CB010196A11DB11DBF7003C080E0A4
:101E200090E0DC019D838C83BC01990F880B990B9A
:101E30000E94281426E933E44BE05DE30E94B914C4
:101E400020E030E040E05FE30E94B9140E94F0130C
:101E50007F836E838DE691E00E9497068E819F813D
:101E60000E94E3088E819F819093200480931F0439
:101E70002091230430912404821793070CF097C219
:101E8000809125049091260490932204809321044C
:101E9000892B09F490C280EA9FE0909324048093F8
:101EA00023048091080490910904DC01ED91FC91D8
:101EB0000084F185E02D0995109218048091190491
:101EC00090911A048330910509F447C10CF064C065
:101ED0008130910509F4E1C0029709F04BC20E94DC
:101EE0009B0A6B017C0189E390E00E945C15EC0188
:101EF00089E191E09983888388E891E00E94F9065E
:101F00004A825B826C827D82CE82DF82E886F9869D
:101F10001E8E1F8E18A219A21A8E1B8E1C8E1D8E4D
:101F20001EA21FA218A619A638EC832E912CA12C54
:101F3000B12C8E869F86A88AB98A80E991E0A0E0BC
:101F4000B0E08A879B87AC87BD871E8A1F8A188E60
:101F5000198E80910A0490910B049BA78AA7809107
:101F60000C0490910D049DA78CA780910E04909174
:101F70000F049FA78EA7809110049091110499AB34
:101F800088AB80911204909113049BAB8AAB1FAA7B
:101F90001EAA81E088AF42C18430910509F44CC18A
:101FA000059709F0E7C10E949B0A6B017C0180E55F
:101FB00090E00E945C15EC0183E691E099838883B0
:101FC0008FEB91E00E94F90688E8882E83E1982E35
:101FD000A12CB12C8A829B82AC82BD82CE82DF8210
:101FE000E886F9861E8E1F8E18A219A21A8E1B8EE5
:101FF0001C8E1D8E1EA21FA218A619A61E861F8645
:10200000188A198A1A861B861C861D8684E690E02B
:10201000A0E0B0E08E8B9F8BA88FB98F80910A04CF
:1020200090910B049BA78AA780910C0490910D04BA
:102030009DA78CA780910E0490910F049FA78EA757
:10204000809110049091110499AB88AB8091120497
:10205000909113049BAB8AAB1FAA1EAA1FAE1EAEA3
:10206000FE01E05CFF4F86E990E091838083329629
:102070009183808332961182108232968AE090E0BA
:10208000918380833296918380838E01085C1F4FF9
:102090007E019EE3E90EF11C52C10E949B0A6B0176
:1020A0007C0188E390E00E945C15EC018BE091E0FC
:1020B0009983888388E791E00E94F9064A825B82CF
:1020C0006C827D82CE82DF82E886F9861E8E1F8E2C
:1020D00018A219A21A8E1B8E1C8E1D8E1EA21FA264
:1020E00018A619A640E9842E99249394A12CB12C0A
:1020F0008E869F86A88AB98A86E990E0A0E0B0E043
:102100008A879B87AC87BD871E8A1F8A188E198E87
:1021100080910A0490910B049BA78AA780910C04DC
:1021200090910D049DA78CA780910E0490910F04AF
:102130009FA78EA7809110049091110499AB88AB52
:1021400080911204909113049BAB8AAB809114048C
:10215000909115049DAB8CAB5FC00E949B0A6B01F4
:102160007C0188E390E00E945C15EC0187E291E03D
:10217000998388838AE991E00E94F90698EB892E79
:102180009BE0992EA12CB12C8A829B82AC82BD82CD
:10219000CE82DF82E886F9861E8E1F8E18A219A2D3
:1021A00080E991E0A0E0B0E08A8F9B8FAC8FBD8F7B
:1021B0001EA21FA218A619A62CED822E25E0922E93
:1021C000A12CB12C8E869F86A88AB98A1A861B8676
:1021D0001C861D861E8A1F8A188E198E80910A04FD
:1021E00090910B049BA78AA780910C0490910D04F9
:1021F0009DA78CA780910E0490910F049FA78EA796
:10220000809110049091110499AB88AB80911204D5
:10221000909113049BAB8AAB1FAA1EAAD09309040A
:10222000C09308048091190490911A040196909328
:102230001A0480931904B6C00E949B0A6B017C01AA
:1022400088E390E00E945C15EC0185E591E09983BC
:1022500088838EEA91E00E94F9064A825B826C8252
:102260007D82CE82DF82E886F9861E8E1F8E18A2BE
:1022700019A21A8E1B8E1C8E1D8E1EA21FA218A6BE
:1022800019A61E861F86188A198A82E390E0A0E0AC
:10229000B0E08A879B87AC87BD879CCF072E000C58
:1022A000880B990B0E9428144B015C016E897F8971
:1022B000072E000C880B990B0E9428149B01AC017F
:1022C000C501B4010E94B9144B015C016A817B8194
:1022D0008C819D810E9426149B01AC01C501B40133
:1022E0000E947E134B015C0120E030E0A9010E94B6
:1022F000B41420E030E040E05FE387FD32C0C50168
:10230000B4010E9412130E94F0131616170674F5FA
:10231000F801718360830E5F1F4FF6018081918108
:102320000E94E308D80114968D919C9115975196BF
:102330009C938E9350970E151F0509F46FCF68017B
:10234000D80116966D917C9117971C968D919C9152
:102350001D97681B790B77FFA1CF71956195710966
:102360009DCFC501B4010E941113CDCFD8012D928C
:102370003C92D1CF86E390E00E945C15EC0124E111
:1023800034E040E154E06AE074E00E941C09D0931C
:102390000904C093080481E08093180410921A0481
:1023A0001092190483ED91E00E94F90604C0109286
:1023B0002204109221040E945E0106CC6F927F924B
:1023C0008F929F92AF92BF92CF92DF92EF92FF9245
:1023D0000F931F93CF93DF93EBE6F3E01382128208
:1023E00088EE93E0A0E0B0E084839583A683B78372
:1023F00083E491E09183808385EC90E095878487E6
:1024000084EC90E09787868780EC90E0918B808BBE
:1024100081EC90E0938B828B82EC90E0958B848BA7
:1024200086EC90E0978B868B118E128E138E148E15
:1024300084E090E00E945C156C010E947402D092CE
:102440003404C092330484E090E00E945C157C0167
:102450000E947402F0923204E092310484E090E031
:102460000E945C158C010E9474021093300400934A
:102470002F0486E090E00E945C154C0190932E049E
:1024800080932D0486E090E00E945C155C0190939F
:102490002C0480932B0486E090E00E945C153C01A4
:1024A00090932A048093290488E090E00E945C15B0
:1024B0009093280480932704E9E3F4E0D182C0825A
:1024C000F382E28215830483E5E3F4E09182808263
:1024D000B382A282C8E0D4E0DB82CA82FD82EC82B1
:1024E0001F830E8399868886BB86AA867D866C8626
:1024F0009F878E871A8E198E88E290E09C8F8B8F33
:10250000188E1F8A84E090E09E8F8D8F8AE090E085
:102510009C8B8B8B1E8A1D8A86E390E00E945C1543
:102520008C0124E134E040E154E06AE074E00E9470
:102530001C091983088381E0888B1A8A198ADF9124
:10254000CF911F910F91FF90EF90DF90CF90BF90B0
:10255000AF909F908F907F906F900895052E97FB7E
:102560001EF400940E94C51257FD07D00E94E0128D
:1025700007FC03D04EF40C94C5125095409530954D
:1025800021953F4F4F4F5F4F0895909580957095DF
:1025900061957F4F8F4F9F4F08950E940213A59F13
:1025A000900DB49F900DA49F800D911D112408954E
:1025B000B7FF0C94CD120E94CD12821B930B08958D
:1025C000A1E21A2EAA1BBB1BFD010DC0AA1FBB1F37
:1025D000EE1FFF1FA217B307E407F50720F0A21BA9
:1025E000B30BE40BF50B661F771F881F991F1A9416
:1025F00069F760957095809590959B01AC01BD0140
:10260000CF010895A29FB001B39FC001A39F700D99
:10261000811D1124911DB29F700D811D1124911DEA
:1026200008955058BB27AA270E9429130C947A14A6
:102630000E946C1438F00E94731420F039F49F3F0C
:1026400019F426F40C9469140EF4E095E7FB0C944D
:102650006314E92F0E948B1458F3BA1762077307AB
:102660008407950720F079F4A6F50C94AD140EF4C8
:10267000E0950B2EBA2FA02D0B01B90190010C0192
:10268000CA01A0011124FF27591B99F0593F50F4AA
:10269000503E68F11A16F040A22F232F342F442702
:1026A000585FF3CF469537952795A795F0405395FA
:1026B000C9F77EF41F16BA0B620B730B840BBAF0CA
:1026C0009150A1F0FF0FBB1F661F771F881FC2F735
:1026D0000EC0BA0F621F731F841F48F48795779549
:1026E0006795B795F7959E3F08F0B0CF9395880F03
:1026F00008F09927EE0F9795879508950E949213F9
:102700000C947A140E94731458F00E946C1440F0D8
:1027100029F45F3F29F00C94631451110C94AE140A
:102720000C9469140E948B1468F39923B1F3552318
:1027300091F3951B550BBB27AA27621773078407D4
:1027400038F09F5F5F4F220F331F441FAA1FA9F36A
:1027500035D00E2E3AF0E0E832D091505040E69558
:10276000001CCAF72BD0FE2F29D0660F771F881FB9
:10277000BB1F261737074807AB07B0E809F0BB0BAC
:10278000802DBF01FF2793585F4F3AF09E3F5105C0
:1027900078F00C9463140C94AE145F3FE4F3983E0D
:1027A000D4F3869577956795B795F7959F5FC9F7A9
:1027B000880F911D9695879597F90895E1E0660F2A
:1027C000771F881FBB1F621773078407BA0720F0A3
:1027D000621B730B840BBA0BEE1F88F7E09508950C
:1027E0000E94F7136894B1110C94AE1408950E94DE
:1027F000931488F09F5798F0B92F9927B751B0F0EC
:10280000E1F0660F771F881F991F1AF0BA95C9F774
:1028100014C0B13091F00E94AD14B1E008950C9451
:10282000AD14672F782F8827B85F39F0B93FCCF304
:10283000869577956795B395D9F73EF490958095F1
:10284000709561957F4F8F4F9F4F0895E89409C011
:1028500097FB3EF490958095709561957F4F8F4FD3
:102860009F4F9923A9F0F92F96E9BB279395F695E9
:10287000879577956795B795F111F8CFFAF4BB0F67
:1028800011F460FF1BC06F5F7F4F8F4F9F4F16C0CB
:10289000882311F096E911C0772321F09EE8872F55
:1028A000762F05C0662371F096E8862F70E060E011
:1028B0002AF09A95660F771F881FDAF7880F96958A
:1028C000879597F9089597F99F6780E870E060E031
:1028D00008959FEF80EC089500240A9416161706B9
:1028E00018060906089500240A9412161306140601
:1028F00005060895092E0394000C11F4882352F064
:10290000BB0F40F4BF2B11F460FF04C06F5F7F4F1B
:102910008F4F9F4F089557FD9058440F551F59F002
:102920005F3F71F04795880F97FB991F61F09F3FBC
:1029300079F087950895121613061406551FF2CFE5
:102940004695F1DF08C0161617061806991FF1CF35
:1029500086957105610508940895E894BB2766275C
:102960007727CB0197F908950E94261508F48FEF79
:1029700008950E94CC140C947A140E946C1438F0C0
:102980000E94731420F0952311F00C9463140C949E
:10299000691411240C94AE140E948B1470F3959F4B
:1029A000C1F3950F50E0551F629FF001729FBB2746
:1029B000F00DB11D639FAA27F00DB11DAA1F649FE2
:1029C0006627B00DA11D661F829F2227B00DA11D95
:1029D000621F739FB00DA11D621F839FA00D611D1B
:1029E000221F749F3327A00D611D231F849F600D3C
:1029F000211D822F762F6A2F11249F5750409AF065
:102A0000F1F088234AF0EE0FFF1FBB1F661F771FF0
:102A1000881F91505040A9F79E3F510580F00C94BB
:102A200063140C94AE145F3FE4F3983ED4F38695A0
:102A300077956795B795F795E7959F5FC1F7FE2B5B
:102A4000880F911D9695879597F90895990F00081D
:102A5000550FAA0BE0E8FEEF16161706E807F90770
:102A6000C0F012161306E407F50798F0621B730B0B
:102A7000840B950B39F40A2661F0232B242B252B8C
:102A800021F408950A2609F4A140A6958FEF811D2F
:102A9000811D0895991B79E004C0991F961708F0CD
:102AA000961B881F7A95C9F780950895EE0FFF1F32
:102AB0000590F491E02D0994CF93DF938230910536
:102AC00010F482E090E0E0914A04F0914B0420E0A1
:102AD00030E0C0E0D0E0309711F1408151814817DB
:102AE0005907C0F04817590761F4828193812097F4
:102AF00019F09B838A832BC090934B0480934A04E4
:102B000026C02115310519F04217530718F49A0110
:102B1000BE01DF01EF010280F381E02DDCCF211542
:102B2000310509F1281B390B2430310590F4129638
:102B30008D919C9113976115710521F0FB01938391
:102B4000828304C090934B0480934A04FD01329623
:102B500044C0FD01E20FF31F81939193225031098C
:102B60002D933C933AC02091480430914904232B83
:102B700041F42091030130910401309349042093E2
:102B8000480420910101309102012115310541F4E1
:102B90002DB73EB74091050150910601241B350B1E
:102BA000E0914804F0914904E217F307A0F42E1BCA
:102BB0003F0B2817390778F0AC014E5F5F4F2417A1
:102BC000350748F04E0F5F1F509349044093480467
:102BD0008193919302C0E0E0F0E0CF01DF91CF91CB
:102BE00008950F931F93CF93DF93009709F48CC040
:102BF000FC0132971382128200914A0410914B0417
:102C00000115110581F420813181820F931F2091DC
:102C10004804309149042817390779F5F09349049D
:102C2000E093480471C0D80140E050E0AE17BF0700
:102C300050F412962D913C911397AD012115310559
:102C400009F1D901F3CF9D01DA0133832283608139
:102C50007181860F971F8217930769F4EC01288111
:102C60003981260F371F2E5F3F4F318320838A81A2
:102C70009B8193838283452B29F4F0934B04E0934B
:102C80004A0442C01396FC93EE931297ED014991CA
:102C900059919E01240F351FE217F30771F48081CB
:102CA0009181840F951F029611969C938E93828139
:102CB000938113969C938E931297E0E0F0E0D801F5
:102CC00012968D919C911397009719F0F8018C0141
:102CD000F6CF8D919C9198012E5F3F4F820F931FED
:102CE00020914804309149042817390769F4309736
:102CF00029F410924B0410924A0402C013821282EB
:102D00001093490400934804DF91CF911F910F91D4
:102D1000089581E090E0F8940C948E16F894FFCF1B
:102D2000FF00004C04800000000000F203C0059783
:102D30000190046904000000006A061F0613066B78
:102D400008440800000000E5079E0712067D0756AC
:102D5000070000000041071C0711061406070700C2
:102D6000000000F50068018D003C01BE009C00B031
:102D70000000000000140CE10B6509C00B8D090078
:102D8000000000580BD40A6409A70A660944697355
:102D900074616E63653A2000656E746572204A6FD7
:102DA0007920737461746500656E74657220416E7C
:102DB00067657220737461746500656E7465722056
:102DC0004469736775737420737461746500656E0C
:102DD0007465722046656172207374617465006564
:102DE0006E746572205361646E65737320737461D1
:102DF000746500656D6F74696F6E206368616E67DE
:102E00006564006D6F746F7220616374696F6E200A
:102E10000065786974696E67204A6F792073746100
:102E20007465006C656400736572766F206163740D
:102E3000696F6E20000D0A0065786974696E6720FD
:102E40006E65757472616C2073746174650073656E
:102E500072766F20616374696F6E206E657574722F
:102E6000616C006D6F746F7220616374696F6E20A6
:102E70006E65757472616C0065786974696E67203F
:102E80004469736775737420737461746500657841
:102E90006974696E6720416E67657220737461742E
:102EA0006500656E746572204E65757472616C2084
:102EB00073746174650065786974696E6720536125
:102EC000646E6573732073746174650065786974EA
:102ED000696E672046656172207374617465007362
:102EE0006572766F20616374696F6E2066697273B4
:102EF0007400736572766F20616374696F6E2073FE
:102F000065636F6E64006D6F746F722061637469C6
:102F10006F6E20666972617420006D6F746F72202D
:102F2000616374696F6E207365636F6E6420000067
:00000001FF
